:020000041000EA
:1000000000000108792003100D0000009901001084
:1000100000000000000000000000000000000000E0
:10002000000000000000000000000000C1E202101B
:10003000000000000000000045E3021051E3021040
:10004000D1200310E1260310D1200310D12003108A
:10005000D1200310D1200310D1200310D120031090
:10006000D1200310D1200310D1200310D120031080
:10007000D1200310D1200310D1200310D120031070
:10008000D1200310D1200310D1200310D120031060
:10009000D1200310D1200310D1200310D120031050
:1000A000D1200310D1200310D1200310D120031040
:1000B000D1200310D1200310D1200310D120031030
:1000C00010B5064C2378002B07D1054B002B02D02E
:1000D000044800E000BF0123237010BD5015000844
:1000E00000000000A4660410084B10B5002B03D0DC
:1000F0000749084800E000BF07480368002B00D10B
:1001000010BD064B002BFBD09847F9E7000000001C
:1001100054150008A46604106410000800000000D4
:10012000164B002B00D1144B9D46402292029A1A86
:10013000924600218B460F461348144A121A38F093
:1001400033F90F4B002B00D098470E4B002B00D0FB
:1001500098470020002104000D000D48002802D01F
:100160000C482DF0DFFB37F01DFD200029002DF09D
:10017000CBFE2DF0CDFBC0460000080000000108BA
:100180000000000041DE0210501500080C8A000833
:1001900025D90210000000002C4B05E02C4B03E099
:1001A0002C4B01E02C4BFFE7EFF308802B49724604
:1001B0000A4201D0EFF309809C46294B1968026876
:1001C0000A60043142680A60043182680A600431BE
:1001D000C2680A600431F0C147460F6004314F46DF
:1001E0000F60043157460F6004315F460F600431E1
:1001F00002690A60083142690A60043182690A6052
:100200000431C2690A60043103462033154E32427C
:1002100000D0043375460D4E354200D148330C46AC
:10022000103C2360EFF309820A600431EFF3088287
:100230000A60043172460A600431EFF314820A60E6
:100240006046074900F010F8FEE7000010000000CB
:10025000200000003000000040000000040000000A
:10026000B8E103100002000000B587B003900291CE
:10027000002305931C4B18002CF084FB039B302BB0
:100280000AD0402B0FD0202B14D1184B18002CF083
:1002900079FB174B059314E0164B18002CF072FBFA
:1002A000154B05930DE0154B18002CF06BFB144B10
:1002B000059306E0134B18002CF064FB124B0593DA
:1002C000C046124B18002CF05DFB00F027F8104BD5
:1002D00018002CF057FB0F4BDA6B0F4905980023E1
:1002E000009300232CF084FDBCE10310E8E103102F
:1002F0003E01FF80F8E103103F01FF8004E203109C
:100300004001FF8010E203103D01FF801CE203105A
:1003100028E20310C478000848E2031070B586B0E4
:10032000002305930CE02E4A059B9B00D3181A6806
:1003300005992C4B18002CF025FB059B01330593E8
:10034000059B0C2BEFDD264B5C6B254B9D6B244BEB
:10035000DE6B234B1A6C224B596C214B9B6C224851
:1003600002930191009233002A0021002CF00AFB35
:100370001E4B1A681E4B110018002CF003FB184B83
:10038000DB6C0822134012D01A4B18002CF0FAFA3A
:10039000134B1B6D0122134004D0174B18002CF097
:1003A000F1FA0CE0154B18002CF0ECFA07E0144BB6
:1003B00018002CF0E7FA114B18002CF0E3FA084B68
:1003C000DB6C0422134004D00E4B18002CF0DAFA38
:1003D00003E00D4B18002CF0D5FAC04606B070BDF6
:1003E000C478000858E2031068E2031000ED00E052
:1003F000B8E20310C8E20310D8E20310E8E20310E9
:10040000FCE203100CE3031018E3031082B0019028
:100410000091009B180002B07047000000B58BB03F
:10042000039002910192039B002B05D139493A4B6D
:100430002C2218002CF0ECF9029B002B05D1354939
:10044000364B2D2218002CF0E3F900F037FE0300A4
:100450000793079B002B02D0079B1B6801E0012339
:100460005B4206932E4B0493039B04A900221800C1
:100470002CF060FB039B012118002CF0A1FB030072
:1004800005930023099300230893002308932CE08D
:1004900000230493089B1A04059B13430993039BB1
:1004A0009A68089B1B01D3181800099A04AB19001D
:1004B0002CF040FB031E15D0039B9A68089B1B0180
:1004C000D318029ADA60039B9A68089B1B01D31821
:1004D000069A5A60039B9A68089B1B01D318019ADD
:1004E0009A6007E0089B01330893039B5A68089BB6
:1004F0009A42CDD8039B5A68089B9A4205D1054978
:10050000084B5D2218002CF083F9099B18000BB0F2
:1005100000BDC04624E3031088E30310A4E30310E6
:10052000FFFF0000C0E3031000B589B00390029103
:10053000039B002B05D13649364B662218002CF060
:1005400067F9029B002B05D13149334B6722180014
:100550002CF05EF9029B1B0C0793039B5A68079BC8
:100560009A4209D8079A039B5B682C492C48009350
:1005700013006D222CF08EFB039B9A68079B1B01D6
:10058000D3181A68029B9A4205D0029B234925483A
:1005900071222CF07FFB00F091FD03000693069B77
:1005A000002B02D0069B1B6801E001235B420593F0
:1005B000039B9A68079B1B01D3185A68059B9A42B4
:1005C0000ED0039B9A68079B1B01D3189A68059B62
:1005D0009A4205D01149144B7B2218002CF05AFB8B
:1005E000039B9A68079B1B01D31800221A60039B88
:1005F0009A68079B1B01D31800225A60039B9A68D4
:10060000079B1B01D31800229A60C04609B000BDA9
:1006100024E3031088E30310E4E3031090E50310E0
:1006200000E403104CE4031088E4031000B589B023
:1006300003900291039B002B05D13649364B86224D
:1006400018002CF0E5F8029B002B05D13349344B00
:10065000892218002CF01EFB029B1B0C0793039BA6
:100660005A68079B9A4209D8079A039B5B682B49F3
:100670002C48009313008F222CF00CFB039B9A68EC
:10068000079B1B01D3181A68029B9A4205D0029B54
:100690002249254893222CF0FDFA00F00FFD0300BB
:1006A0000693069B002B02D0069B1B6801E00123EA
:1006B0005B420593039B9A68079B1B01D3185A68FA
:1006C000059B9A420ED0039B9A68079B1B01D31887
:1006D0009A68059B9A4205D01049144B9D22180038
:1006E0002CF0D8FA039B9A68079B1B01D318DB6890
:1006F000002B05D107490E4BA22218002CF088F8D8
:10070000039B9A68079B1B01D318DB68180009B08C
:1007100000BDC04624E3031088E30310ACE50310DA
:10072000C4E4031000E403104CE4031004E50310D8
:1007300054E5031000B583B00190019B002B05D157
:100740000C490D4B5C2218002CF0A4FA0B4B18003E
:1007500001F0A0FE0A4B180003F000FE094B180040
:1007600004F00CFC019B054A1A600323180003B037
:1007700000BDC046E4E50310C8E50310C40000084E
:10078000EC0000081401000884B0019000910023DF
:1007900003930FE0019B1A69039B5B01D31802933B
:1007A000029B1A68009B9A4201D1029B08E0039BBE
:1007B00001330393019B5A69039B9A42EAD80023B1
:1007C000180004B07047000000B585B00190002308
:1007D000039316E00F4B1968039A13009B009B18B4
:1007E000DB00CB18019A11001800FFF7CDFF0300C2
:1007F0000293029B002B01D0029B08E0039B013374
:100800000393044B5A68039B9A42E3D800231800D1
:1008100005B000BD6C01000800B587B003900291DF
:10082000029B002B0DD1039B1B7D01225340DBB2A9
:10083000002B06D0039B1B681A491B4838222CF05A
:1008400029FA029B002B2BD0029B9B69002B06D11F
:10085000029B1B68134915483D222CF01BFA00230C
:1008600005930CE0029B9A69059B9B00D3181A68BC
:10087000039B1B689A4212D0059B01330593029B90
:10088000DA69059B9A42EDD8039B1A68029B1B68A4
:10089000044907480093130046222CF0FBF9C04698
:1008A00007B000BD08E90310F4E503102CE60310BF
:1008B00064E6031000B583B001900091009A01999D
:1008C000034B1800FFF7AAFD0300180003B000BD9A
:1008D0007401000800B583B00190019A044B110027
:1008E0001800FFF7A3FE0300180003B000BDC046C8
:1008F0007401000800B585B001900091019B9B68D0
:100900001A6A01235B42190010002FF095FC0300C6
:100910000393039B002B05D02349244B5722180037
:100920002BF076FF019BDB69002B03D1019B009A22
:100930009A6103E0019BDB69009A1A61019B009AAE
:10094000DA61019B9B685A68019B5B681900100083
:1009500031F0C6F903000293029B002B05DA12491D
:10096000134B662218002BF053FF019B5B68029A21
:10097000134005D10C490F4B672218002BF048FF9C
:10098000019B9B681B6A18002FF080FC03000393F7
:10099000039B002B05D00449044B6B2218002BF05D
:1009A00037FFC04605B000BDA4E6031000E7031002
:1009B00014E7031030E7031030B58BB005900491B5
:1009C000049B002B05D15649564B702218002BF082
:1009D0001FFF059B1800FFF7F7FE03000993099B13
:1009E000002B05D1059B5049504874222CF052F938
:1009F000099B1B69002B05D1049B1A68099BDB68C6
:100A00009A4209D8099B1B69012B17D1049B1A68CC
:100A1000099BDB689A4211D0049B1D68099B1A68E8
:100A2000099BD968099B1B693F4C4148029301917E
:100A300000922B007A2221002CF02CF900F03EFBD2
:100A400003000893089A099B11001800FFF7E4FEC1
:100A5000089A049B0C21180000F06AFB03001A009E
:100A600001235340DBB2002B05D02F49314B8122AB
:100A700018002CF00FF9304B1B6A002118002EF0E3
:100A8000E1FA03000793079B002B1BD1049B2B4A21
:100A90005A60089B002B0FD0049B9B6818002FF016
:100AA00005FF03000693069B002B35D01C49244B01
:100AB0008A2218002BF0ACFE049B9B68180001F002
:100AC00021FB29E0099B9B681A68079B110018000D
:100AD000FFF7F0FE0200049B5A60079B02225A7542
:100AE000079B089A1A60079B099A5A60079B049A09
:100AF000DA60079B01221A75079B00229A60079B08
:100B000000221A61079B00229A75079A099B11001F
:100B10001800FFF7EFFE00E0C0460BB030BDC04646
:100B2000A4E603104CE70310F4E8031060E7031099
:100B300080E70310DCE703106C010008010000806F
:100B400000E7031000B58FB00190009109AB1800C9
:100B500010231A00002137F027FC05AB00221A6091
:100B600005AB00225A6005AB09AA9A6005AB1022BA
:100B7000DA6002AB009A1A6002AB00225A6005AB41
:100B80001A00002101202FF03DFE020002AB9A6006
:100B900002AB9B68002B05D119491A4BB7221800EC
:100BA0002CF078F802AA019B11001800FFF704FF4F
:100BB00002AB9A6801235B42190010002FF04EFE31
:100BC00003000D930D9B002B05D00F490F4BBD2249
:100BD00018002BF01DFE02AB9B6818002FF088FE5A
:100BE00003000D930D9B002B05D00749074BC02236
:100BF00018002BF00DFE02AB5B6818000FB000BDB3
:100C000028E903100CE80310A4E6031000E7031022
:100C100000B585B001900091009B002B05D13649AD
:100C2000364BC92218002BF0F3FD019B1800FFF78B
:100C300051FE03000393039B002B05D12E49304B3B
:100C4000CB2218002BF0E4FD039B1A68009B1821AF
:100C5000180000F06DFA03001A0001235340DBB2C4
:100C6000002B05D02749284BCE2218002CF012F873
:100C7000039B9B7D012B1DD1009B802212061A61D4
:100C8000039B1B68002B05D1009B5B69180001F0DA
:100C900039FA2EE0009B5B6918002FF007FE030075
:100CA0000293029B002B24D01349184BD822180022
:100CB0002BF0AEFD039B153304220321180000F036
:100CC000A3F9039B009ADA60039B02221A75009B2A
:100CD0001868009B5968009B9A68009BDB6800F0CD
:100CE00067F9039B5B68039A11001800FFF702FE87
:100CF00000E0C04605B000BDA4E603104CE70310B9
:100D000044E8031034E903105CE8031000E7031023
:100D100000B595B003900291019200930FAB1800BB
:100D200010231A00002137F03FFB0BAB00221A60A2
:100D30000BAB00225A600BAB0FAA9A600BAB1022D0
:100D4000DA6005AB029A1A6005AB019A5A6005ABEE
:100D5000009A9A6005AB169ADA6005AB00221A6118
:100D60000BAB1A00002101202FF04CFD020005AB57
:100D70005A6105AB5B69002B06D183235A001B49DE
:100D80001B4B18002BF086FF05AA039B11001800CF
:100D9000FFF73EFF05AB5A6901235B4219001000C3
:100DA0002FF05CFD03001393139B002B06D08623CA
:100DB0005A001049104B18002BF02AFD05AB5B6957
:100DC00018002FF095FD03001393139B002B07D001
:100DD0001023FF331A000749074B18002BF018FDAA
:100DE00005AB1B69180015B000BDC04644E90310EF
:100DF0000CE80310A4E6031000E7031000B585B06B
:100E000001900091009B002B06D18C235A002049B1
:100E1000204B18002BF0FCFC019B1800FFF75AFD3B
:100E200003000393039B002B07D11C23FF331A00FD
:100E30001749194B18002BF0EBFC039B1A68009B19
:100E40000821180000F074F903001A000123534030
:100E5000DBB2002B06D08F235A001049104B18002C
:100E60002BF018FF039B15330321180000F004F941
:100E7000039B009ADA60039B03221A75039B5B684D
:100E8000039A11001800FFF735FDC04605B000BDFC
:100E9000A4E603104CE7031044E8031050E90310E4
:100EA0008CE8031000B58FB00190019B002B55D04A
:100EB00009AB180010231A00002137F075FA05ABB2
:100EC00000221A6005AB00225A6005AB09AA9A609D
:100ED00005AB1022DA6003AB019A1A6005AB1A0069
:100EE000002101202FF08EFC020003AB5A6003ABFF
:100EF0005B68002B06D1A1235A001A491A4B18002F
:100F00002BF0C8FE03AA019B11001800FFF776FF23
:100F100003AB5A6801235B42190010002FF09EFCBE
:100F200003000D930D9B002B06D0A4235A000F49FC
:100F30000F4B18002BF06CFC03AB5B6818002FF014
:100F4000D7FC03000D930D9B002B08D04C23FF33DF
:100F50001A000649064B18002BF05AFCC0460FB089
:100F600000BDC04660E90310BCE80310A4E603100E
:100F700000E7031000B585B0019000230393019BA7
:100F80001800FFF721FC03000293029B002B0AD0FC
:100F900000F094F8031E03D1029B1B7D002B02D0AE
:100FA000029BDB680393039B180005B000BD0000A3
:100FB00000B589B00790069105920493079B002B1A
:100FC00002D1069B002B0AD1059B002B02D1049B6A
:100FD000002B04D1069A049BD318042B0CD9079A32
:100FE00007490848049B0293059B0193069B0093C5
:100FF000130027222BF04EFEC04609B000BDC046AC
:10100000A0EA03106CE9031000B587B00390080054
:1010100011000B236B44021C1A700A236B440A1C38
:101020001A7017236B440B226A4412781A700A2331
:101030006B441A780B216944039B18002BF04AFD7E
:1010400003001A0001235340DBB2002B0DD00B2309
:101050006B441B781A0017236B441B78044905481E
:101060000093130030222BF015FEC04607B000BDE0
:10107000B0EA0310C0E9031000B585B003900A0080
:101080000B236B441A70039B1B780B226A44127863
:101090009A420CD0039B1B781A000B236B441B78DD
:1010A000044905480093130038222BF0F3FDC04695
:1010B00005B000BDC8EA0310C0E9031000B583B055
:1010C00030F0E4FD03000093009B002B05D115498F
:1010D000154B5E2218002BF09BFB0023019317E0B9
:1010E000124B1968019A13009B009B18DB00CB1868
:1010F0005A68009B9A4208D10C4B1968019A130058
:101100009B009B18DB00CB1808E0019B0133019387
:10111000064B5A68019B9A42E2D80023180003B09C
:1011200000BDC04608EA031080EA03106C01000805
:101130008CB0039002910192039B002B01D10023FC
:1011400076E0029B002B01D1012371E0039A029B00
:10115000D3185A1E039B9A4201D2002368E08023D1
:101160001B050B9380235B020A9380235B05099385
:1011700080231B030893304B0793304B0693304B6F
:101180000593F023DB020493019B002B27D1039AE4
:10119000079B9A420FD3079A069BD218039B9A4249
:1011A00009D9039A029BD2180799069BCB189A4239
:1011B00001D801233CE0039A059B9A4237D3059A54
:1011C000049BD218039B9A4231D9039A029BD218EE
:1011D0000599049BCB189A4229D8012328E0039A49
:1011E0000B9B9A420FD30B9A0A9BD218039B9A42ED
:1011F00009D9039A029BD2180B990A9BCB189A42E1
:1012000001D8012314E0039A099B9A420FD3099A4B
:10121000089BD218039B9A4209D9039A029BD218C1
:101220000999089BCB189A4201D8012300E00023BA
:1012300018000CB07047C04600000108007703009A
:101240000000081010B531F0DFFD174B1A0018210F
:101250000A202DF0CBFE0200144B1A62134B1B6ABE
:10126000002B05D1124A134B110018002BF012FD70
:10127000114B1A0028210A202DF0B8FE02000B4B5A
:101280005A620A4B5B6A002B05D1094A0B4B1100CD
:1012900018002BF0FFFC054B1800FFF74BFA02007B
:1012A000024B5A60C04610BD3C0100086C010008AA
:1012B00070EB031010EB0310540100083CEB03101B
:1012C00010B5034B1B68180001F078F8F9E7C04629
:1012D0009801000800B583B001900091009A01992F
:1012E000034B1800FFF79AF80300180003B000BD85
:1012F0008001000800B583B00190019A044B1100F1
:101300001800FFF793F90300180003B000BDC046B2
:101310008001000800B583B00190019A034B1100D1
:101320001800FFF701F9C04603B000BD80010008B6
:1013300000B583B00190019A034B11001800FFF72C
:10134000F3F8C04603B000BD7401000884B00190FA
:1013500000910023039311E0019B1A69039B5B0139
:10136000D3185A68009B9A4205D1019B1A69039BC6
:101370005B01D31808E0039B01330393019B5A6977
:10138000039B9A42E8D80023180004B0704700007D
:1013900010B596B00190009103AB180028231A00F5
:1013A000002137F001F803AB019A1A60019B1B7D05
:1013B000022B00D0F6E0019BD868019B1B681A0045
:1013C0001821FFF7B5FE03001A0001235340DBB2DA
:1013D000002B05D08D498E4B5B2218002BF05AFC58
:1013E000019BDB681393139B1B681293139B5B6831
:1013F0001193139B9B681093139BDB680F930F9BB8
:10140000109A11991298FFF7D3FD119BD9B203AB33
:1014100024229954119B002B5DD0119BD900019B74
:101420001A68129B1800FFF783FE03001A000123BD
:101430005340DBB2002B05D07449764B6B22180069
:101440002BF028FC0023159341E0159BDB00129A3A
:10145000D3185B68002B36D0159BDB00129AD0188E
:1014600003AA159BDB000421D3185B18020003CAF2
:1014700003C3159BDB00129AD3185A680099159B79
:1014800002339B00CB1804331A6003AA159BDB00C0
:10149000D3180433186803AA159BDB00D31808334C
:1014A0001968019B1B681A00FFF742FE03001A002F
:1014B00001235340DBB2002B06D0159B53495648FD
:1014C0007C222BF0E7FBC046159B01331593159A40
:1014D000119B9A42B9D30F9B002B63D00F9BD9006D
:1014E000019B1A68109B1800FFF722FE03001A00E8
:1014F00001235340DBB2002B05D04449474B8322E4
:1015000018002BF0C7FB0023149347E0149BDB006B
:10151000109AD3185B68002B3CD0119A149BD318F7
:10152000149AD2001099881803AADB000421D3185A
:101530005B18020003CA03C3149BDB00109AD31884
:101540005A680099149B06339B00CB1804331A6029
:10155000119A149BD31803AADB00D318043318681C
:10156000119A149BD31803AADB00D3180833196807
:10157000019B1B681A00FFF7DBFD03001A00012323
:101580005340DBB2002B06D0149B20492448942200
:101590002BF080FBC046149B01331493149A0F9BCD
:1015A0009A42B3D31F4B5A6A01235B4219001000C1
:1015B0002DF048FD03000E930E9B002B05D113491F
:1015C000194B9D2218002BF065FB0E9B03AA13CA32
:1015D00013C313CA13C313CA13C312681A600E9B32
:1015E00000211800FFF776FE03000D93019B1B7D81
:1015F0001A00009B1A60019B9A68009B9A60009BEE
:101600000D9A5A60C04616B010BDC046D8F10310FE
:1016100080EB0310A8EB0310C8EB0310ECEB0310F6
:101620000CEC03106C01000830EC031000B587B01F
:101630000190019B9B681A6A01235B42190010000C
:101640002EF0FAFD03000593059B002B05D02849D9
:10165000284BAD2218002BF0DBF8019B9B6904930B
:10166000049B002B05D12449244BB32218002BF0F6
:1016700011FB049B1A69019B9A61049B00221A6169
:10168000019B9B69002B1DD1019B0022DA61019B0C
:101690005B68180030F04CFB03000393039B002BA6
:1016A00005DA1349164BBF2218002BF0B1F8019B45
:1016B0005B68039A134005D10D49124BC0221800F4
:1016C0002BF0A6F8019B9B681B6A18002EF0DEFD2C
:1016D00003000593059B002B05D00549054BC5224A
:1016E00018002BF095F8049B180007B000BDC04609
:1016F0005CEC0310B8EC0310ECF10310CCEC03101D
:10170000ECEC031008ED031000B58BB004910392CC
:1017100017236B44021C1A70FFF7D0FC03000993D7
:10172000099B002B05D12A492A4BCE2218002BF009
:101730006FF8099BDB68082213430893099B9A689A
:10174000089B1343079317236B441B78002B02D08D
:10175000079B04930EE0089B049A1A40049B9A424C
:1017600008D0049A1C491D48089B00931300DB22F3
:101770002BF090FA039A80231B069A4201D0039B18
:1017800001E001235B4204981A00022130F00CFBB7
:1017900003000693069B079A1A40069B9A420DD0B7
:1017A000039A80231B069A4202D0069B023305D07F
:1017B00007490B4BE72218002BF02AF8069B02334F
:1017C00001D0069B00E0002318000BB000BDC0460E
:1017D0005CEC031024ED03100CF2031044ED031035
:1017E00080ED031000B583B00190019B1A00002129
:1017F0000120FFF789FF0300180003B000BD0000BF
:1018000010B58AB003900291FFF758FC03000993CA
:10181000099B002B05D15149514BF92218002AF0A0
:10182000F7FF099A029B2C211800FFF781FC0300A7
:101830001A0001235340DBB2002B05D049494A4B23
:10184000FC2218002BF026FA029B2C220021180003
:1018500036F0AAFD039B002B06D0039B013B039AA5
:10186000134001D1012200E0002223236B441A70AF
:101870001A7801210A401A7023236B441B78012235
:101880005340DBB2002B04D1099B9B68039A1340A1
:101890000AD1099B9B68039C84225200314933483A
:1018A000009323002BF0F6F930F066FA030007935B
:1018B000039B079A134007D10E23FF331A002949CF
:1018C0002B4B18002BF0E6F9039A099B1100180026
:1018D000FFF73CFD03000693069B002B07D1039CFA
:1018E00089235A001F49234823002BF0D3F9069B74
:1018F0001800FFF79BFE03000593059B1B7D022B41
:101900000AD0032B10D0012B15D1059B15330221D2
:101910001800FFF7B1FB18E0059B153305220421E1
:101920001800FFF771FB10E0059B15330321180029
:10193000FFF7A2FB09E0059B1B7D1C0097235A00C3
:1019400008490D4823002BF0A5F9029A059B1100C8
:101950001800FFF71DFDC0460AB010BD5CEC031077
:1019600024ED031018F20310FCED031018EE031021
:1019700064EE031080EE0310D0EE031000B587B0C4
:101980000390029101920093039B1800FFF7B2FCB1
:1019900003000593059B1B68153305211800FFF70D
:1019A0006BFB029B032B06D99E235A001C491D4B3F
:1019B00018002BF06FF9059B24229B5C1A00029BF8
:1019C0009A4201D8002327E0029BDB00059AD31836
:1019D00004330493049B5A68009B9A4202D2049BEE
:1019E0005B680093009B002B15D0019B002B06D059
:1019F000049B1968009A019B180036F043FC049B75
:101A00001A68009BD218049B1A60049B5A68009BBA
:101A1000D21A049B5A60009B180007B000BDC04654
:101A200020F2031000EF031000B587B0039002917D
:101A300001920093FFF742FB03000593059B002BE7
:101A400007D15823FF331A001149124B18002AF00E
:101A5000DFFE059A0099019B1800FFF769FB030060
:101A60001A0001235340DBB2002B06D0AD235A00ED
:101A700009490A4B18002BF00DF9009B019A0299B5
:101A80000398FFF77BFF0300180007B000BDC046B6
:101A90005CEC031024ED031030F203101CEF031074
:101AA00010B58AB00590049103920293029B002B1B
:101AB0006BD0FFF703FB03000993099B002B06D1B2
:101AC000B6235A003249334B18002AF0A1FE099A76
:101AD0000299039B1800FFF72BFB03001A00012358
:101AE0005340DBB2002B07D07023FF331A002A4982
:101AF0002A4B18002BF0CEF8059B1800FFF7FAFBD5
:101B000003000893089B1B68153305211800FFF795
:101B1000B3FA089B24229B5C1A00049B9B18049335
:101B2000049B032B06D9BC235A001B491C4B1800ED
:101B30002BF0B0F8049BDB00089AD318043307930A
:101B4000079B5A68029B9A420AD2079B5B68029CD9
:101B50007E22FF3210491348009323002BF09AF89D
:101B6000079B1B68029A0399180036F08BFB079BB2
:101B70001A68029BD218079B1A60079B5A68029B3F
:101B8000D21A079B5A60C04600E0C0460AB010BD9A
:101B90005CEC031024ED03103CF203101CEF031067
:101BA0003CEF031058EF031010B58EB00190009178
:101BB000019B1800FFF79EFB03000B930B9B1B6818
:101BC0000D930D9B002B07D18C23FF331A008B49FB
:101BD0008B4B18002AF01CFE0D9BDB68002B06D1F6
:101BE000C6235A008549874B18002AF011FE019B35
:101BF0001800FFF78FFB0B9B28220021180036F0FE
:101C0000D3FB814B5B6A0B9A110018002DF042FA4E
:101C100003000A930A9B002B06D0CB235A00774976
:101C20007A4B18002AF0F4FD00230C930D9B1A68E0
:101C300027236B4451424A411A700D9B1B7D022B96
:101C400051D0032B00D178E0012B00D0A3E0009B02
:101C5000002B0CD0009B6E4A934208D0009CA0231E
:101C6000FF331A006B496C4823002BF013F80D9BCF
:101C7000DB680893089B9B680C93009B644A934223
:101C800029D10D9B153302211800FFF7F5F9089BA8
:101C90005B681800FFF74CFB0D9B18220021180011
:101CA00036F082FB584B1B6A0D9A110018002DF07C
:101CB000F1F903000793079B002B06D0D9235A00A4
:101CC0004E49524B18002AF0A3FD089B009A5A6017
:101CD00000230D936BE00D9B1533032202211800A6
:101CE000FFF792F963E0009A80231B069A420BD01B
:101CF000009B4A4A934207DA009CE0235A00454978
:101D0000474823002AF0C6FF0D9B15330322052107
:101D10001800FFF779F9009A80231B069A4202D136
:101D20000D9B01229A750D9BDB680693069B009A1A
:101D30001A61069B5B690C9339E00D9BDB68059388
:101D4000059B5B680C930D9B153301220321180042
:101D5000FFF75AF9059B1B681800FFF7E9FA0D9B7E
:101D600018220021180036F01FFB274B1B6A0D9A22
:101D7000110018002DF08EF90300049300230D9339
:101D8000049B002B12D0E223FF331A001B491F4B88
:101D900018002AF03DFD0D9B1B7D1C00EA23FF333C
:101DA0001A001C491F4823002AF074FFC0460D9BEF
:101DB000002B05D00D9B0022DA600D9B00221A75C6
:101DC00027236B441B78002B04D00C9B180000F0D9
:101DD00099F90FE00C9B18002EF068FD03000393A7
:101DE000039B002B06D0FB235A000449074B180025
:101DF0002AF00EFDC0460EB010BDC0465CEC0310CC
:101E000098EF0310B8EF03106C010008B8EC031052
:101E10000100008048F20310E0EF03108000008012
:101E20001CF0031054F0031000B585B00190019B25
:101E30001800FFF75FFA03000393039B1B68002B56
:101E400005D10A4A0A490B4B18002AF0E1FC039B12
:101E50001B681B68002B02D101235B4203E0039B3C
:101E60001B681B681B68180005B000BD1E0200003F
:101E70005CEC0310F4F0031000B585B00190009104
:101E8000019B1800FFF736FA03000393039B1B68BE
:101E9000009A9A60C04605B000BD000000B583B04E
:101EA000154B1B685B6918002EF000FD03000193C1
:101EB000019B002B08D0019B033305D00F49104B29
:101EC000442218002AF0A4FC0E4B1B681B69180062
:101ED0002EF0ECFC03000193019B002B08D0019B2A
:101EE000033305D00549064B472218002AF090FC21
:101EF000C04603B000BDC046940100086CF2031058
:101F0000E4F203109801000810B531F097F8C046CC
:101F100010BD10B531F092F8C04610BD00B587B0C5
:101F200001AB186059609A6001AB1B68022B11D09D
:101F300002D8012B05D045E0032B15D0042B1DD072
:101F400040E001AB9A6801AB5B6819001000FEF736
:101F500033FD3DE001AB9B681A0001AB5B681900E3
:101F60001000FEF755FE33E001AB9B681A0001AB91
:101F70005B6819001000FEF741FF29E001AB5B68C8
:101F80000593059B002208211800FFF7D1F80300F4
:101F90001A0001235340DBB2002B05D00E490F4B32
:101FA0006C2218002AF076FE01AB9B681800FEF741
:101FB000E1FF0200059B1A60059B5B68180000F0BA
:101FC000A1F805E00649074B752218002AF020FC0D
:101FD000C04607B000BDC046C0F303101CF3031099
:101FE0006CF2031044F3031000B599B0394B17930A
:101FF0000FAB394A1A60179B0C331A000FAB5A60AB
:10200000179B48331A000FAB9A606B4618003C23AD
:102010001A00002136F0C8F96B46304A1A600FAB3F
:102020005B6816930FAB9B6815936946169B3C2221
:10203000180036F027F96946159B3C22180036F047
:1020400021F90FA9179B0C22180036F01BF9244B1D
:1020500018002EF0CDF803001493149B002B05D12B
:102060002049214B9F2218002AF0D2FB1F4B1A0057
:10207000002101202EF0C6FB03001393139B002BBD
:1020800005D118491A4BA22218002AF0C1FB194B9E
:102090001A00002101202EF0B5FB03001293129BC1
:1020A000002B05D10F49144BA52218002AF0B0FBD4
:1020B000124B1868139B149A159900F03DF8104BB9
:1020C0001B68129A1699180000F096F8C04619B0CD
:1020D00000BDC04600770408779A333D0C4A286358
:1020E00090F303106CF203104CF30310A0F30310F1
:1020F00060F30310B0F3031078F3031094010008A9
:102100009801000800B587B0019003AB18000C23BC
:102110001A00002136F048F9019A03AB5A60054BCA
:10212000186803AB19685A689B6800F0B5F8C04698
:1021300007B000BD9401000800B585B0039002917E
:1021400001920093039B002B05D12349234B2422AA
:1021500018002AF05DFB029B002B05D11E49204B85
:10216000252218002AF054FB029B1B681D4A93424B
:1021700005D019491C4B262218002AF049FB019B67
:10218000002B05D11449194B272218002AF040FBD7
:10219000009B002B05D11049154B282218002AF06E
:1021A00037FB039B134A1A60029B1A1D039B5A605C
:1021B000029B08331A00039B9A60029B0C331A009F
:1021C000039BDA60039B019A1A61039B009A5A6190
:1021D000C04605B000BDC046D0F3031034F4031070
:1021E00044F403100C4A28635CF403108CF40310CD
:1021F0009CF40310FFD948A200B585B0039002916A
:102200000192039B002B05D11C491D4B372218005E
:102210002AF0FEFA029B002B05D11849194B3822EF
:1022200018002AF0F5FA029B1B68174A934205D062
:102230001249164B392218002AF0EAFA019B002BAA
:1022400005D10E49124B3A2218002AF0E1FA039BFD
:10225000104A1A60029B1A1D039B5A60029B0833A6
:102260001A00039B9A60029B0C331A00039BDA60EE
:10227000039B019A1A61C04605B000BDD0F303105C
:1022800034F4031044F403100C4A28635CF4031084
:10229000B4F4031042658BA610B586B0039068466F
:1022A000016042608360039B002B05D13D493E4B9A
:1022B000472218002AF0ACFA039B1B683B4A934262
:1022C00005D038493A4B482218002AF0A1FA039B5E
:1022D0001A6901235B42190010002DF0ADFF0300C5
:1022E0000593059B002B1BD02E49324B4B22180027
:1022F0002AF08EFA039B5A69FA235B00190010003A
:102300002EF0ACFA03000593059B002B08D0059B2B
:10231000023305D02349284B502218002AF078FABE
:10232000039B9B681B68013303221A40039B5B6875
:102330001B689A42DED0039BD968039B9B681A688E
:1023400013005B009B189B00CB186A4613CA13C38B
:10235000039B9B68039A92681268013203210A402A
:102360001A60039B5B681B68013303221A40039BBE
:102370009B681B689A4201D1FFF7C6FD039B1B694E
:1023800018002DF083FF03000593059B002B05D05B
:102390000449084B5D2218002AF03AFAC04606B0FC
:1023A00010BDC046D0F3031034F40310FFD948A287
:1023B000C8F40310F4F4031008F5031010B586B048
:1023C0000190019B002B05D12D492E4B6322180053
:1023D0002AF01EFA019B1B682B4A934205D028491C
:1023E0002A4B642218002AF013FA019B1A69FA2377
:1023F0005B00190010002EF031FA03000593059BD5
:10240000002B31D0059B02332ED01D49204B682272
:1024100018002AF0FDF9019BD968019B5B681A68D6
:1024200013005B009B189B00CA1802AB13CA13C3AE
:10243000019B5B68019A52681268013203210A40CD
:102440001A60019B9B681B68023303221A40019BA0
:102450005B681B689A4201D1FFF75BFD02AB18680D
:1024600059689A68FFF75AFD019B5B681A68019BDF
:102470009B681B689A42CED1C04606B010BDC046CC
:10248000D0F3031034F4031042658BA640F503101B
:1024900008F5031000B585B00190019B002B05D114
:1024A0001F49204BD42218002AF0F4FB1E4B1800C1
:1024B0002DF09EFE0200019B1A62019B1B6A002BFD
:1024C00005D11749194BD92218002AF0E3FB002344
:1024D000039309E0164A039B5B01D3180833019A62
:1024E0001A60039B01330393039B0A2BF2D9019BD0
:1024F0000F4A1A610F4A104B002118002FF098FB69
:102500000200019B5A60019B5B68002B05D10449C6
:102510000A4BE32218002AF0BDFBC04605B000BDFF
:102520004CF603108CF503103CF60310A8F50310CD
:10253000C00100089C0100087D420010E8F503106E
:1025400084B0039002910192019B00221A6033E053
:10255000019B1A68444913005B009B189B005A5862
:10256000039B9A4223D1019B1A683F4913005B00E9
:102570009B189B00CB1804331A68029B9A4216D111
:10258000019B1A68384913005B009B189B00CB180D
:1025900008331B780133D8B2334913005B009B1812
:1025A0009B00CB180833021C1A70002358E0019BD3
:1025B0001B685A1C019B1A60019B1B68012BC7D921
:1025C000019B00221A6045E0019B1A68264913000E
:1025D0005B009B189B005B58002B36D1019B1A684F
:1025E000214913005B009B189B00CB1804331B6828
:1025F000002B2AD1019B1A681B4913005B009B1812
:102600009B00039A5A50019B1A68174913005B00FC
:102610009B189B00CB180433029A1A60019B1A681E
:10262000114913005B009B189B00CB1808331B78E3
:102630000133D8B20C4913005B009B189B00CB18E8
:102640000833021C1A7000230AE0019B1B685A1C05
:10265000019B1A60019B1B68012BB5D989235B4242
:10266000180004B07047C046445A000882B0019078
:10267000019B1B7A013BDAB2019B1A72019B1B7A08
:10268000002B05D1019B00221A60019B00225A6099
:10269000C04602B07047000084B00190002303934D
:1026A0002BE01949039A13005B009B189B00CB1881
:1026B00004331A68019B9A421CD11349039A1300F0
:1026C0005B009B189B0000225A500F49039A13008D
:1026D0005B009B189B00CB18043300221A600A4948
:1026E000039A13005B009B189B00CB180833002251
:1026F0001A7005E0039B01330393039B012BD0D990
:10270000C04604B07047C046445A000884B00390E5
:1027100002910192039B012B14D81249039A1300D2
:102720005B009B189B005A58029B9A420AD10D49A4
:10273000039A13005B009B189B00CB1804331B68A3
:10274000002B02D189235B4209E0039A13005B004E
:102750009B189B00034A9A18019B1A6000231800DB
:1027600004B07047445A000800B58DB06B4618009D
:102770002C231A00002135F017FE00230B936B4623
:1027800019001020FFF73CF86B461B68022B04D0A1
:10279000032B20D0012B1ED016E009F05DFC0300B6
:1027A0000B930B9B002B18D1114B1B685A1C104B21
:1027B0001A600F4B1B68012B0FD10E4B1822002102
:1027C000180035F0F1FD08E06B461B680A490B481C
:1027D0007E222AF05FFAC04600E0C0466B465B6886
:1027E0000B9A11001800FFF7DFF9C0460DB000BDCD
:1027F000405A0008445A0008B0F703105CF6031072
:1028000000B58DB06B4618002C231A00002135F05E
:10281000CBFD00230B936A4680235B011100180057
:10282000FEF7EEFF6B461B68022B04D0032B1FD074
:10283000012B1DD015E0154B1B68002B04DD134B3D
:102840001B685A1E114B1A60104B1B68002B11D1CC
:102850000F4B18220021180035F0A6FD09F0D8FB17
:1028600008E06B461B680B490B48A3222AF012FABA
:10287000C04600E0C0466B465B680B9A110018002A
:10288000FFF792F9C0460DB000BDC046405A00089F
:10289000445A0008CCF703105CF6031010B596B04C
:1028A00005AB18002C231A00002135F07DFD002314
:1028B000159305AB19002020FEF7A2FF05AB1B689E
:1028C000022B1BD0032B00D138E1012B00D044E1B7
:1028D000B4235B001900012034F016FE03001493AA
:1028E000149B002B02D1A74B159341E105AB5B680C
:1028F000149A11001800FFF7BFFA39E103AB180072
:1029000008231A00002135F04FFD05ABDB68082BCA
:1029100003D091235B4215932AE105AB586805ABC0
:10292000DB6803AA0021FFF77FF80300139305ABD0
:10293000DA68139B9A4205D09349944BC822180039
:102940002AF0A8F903AB1B78153B052B00D9EFE063
:102950009A008F4BD3181B689F4605AB986803AB52
:10296000598803AB5B681A0006F0BAF803001593A8
:10297000E2E005AB986803AB598803AB5B681A00CB
:1029800006F0C2F803001593D6E005AB1B691900E9
:10299000012034F0B9FD03001293129B002B03D1E8
:1029A0008D235B421593C7E005AB586805AB1B69E7
:1029B000129A0121FFF738F80300139305AB1A6947
:1029C000139B9A4205D07049704BE52218002AF0FB
:1029D00061F905AB986805AB1A69129B190006F0FE
:1029E000A7F803001593129B180035F011F9A3E026
:1029F0000023029305AB586805AB1B6902AA0121AD
:102A0000FFF712F80300139305AB1A69139B9A4260
:102A100005D05D495D4BF52218002AF03BF90023F3
:102A20000193029B1900012034F06EFD0300119305
:102A3000119B002B03D18D235B4215937CE005ABEA
:102A40009868029A01AB119906F09EF9030015935C
:102A5000159B002B0DD105AB5868019B119A0021E5
:102A6000FFF71EF805AB586801AA04230121FFF700
:102A700017F8119B180035F0CBF8C0465CE0002336
:102A8000009305AB586805AB1B696A460121FEF748
:102A9000CBFF0300139305AB1A69139B9A4204D131
:102AA00005AB5A69009B9A4207D01223FF331A00E4
:102AB0003549364B18002AF0EDF8009B190001202B
:102AC00034F022FD03001093109B002B03D18D23C3
:102AD0005B42159330E005AB586805AB5B69109A13
:102AE0000221FEF7A1FF0300139305AB5A69139B64
:102AF0009A4206D08E235A002349244B18002AF00C
:102B0000C9F805AB9B68009A1099180006F082F985
:102B100003001593109B180035F07AF8C0460BE0BF
:102B200005AB9B68180005F031FC0300159303E02A
:102B300086235B421593C046C04619E005AB9B68EF
:102B4000180005F023FC05AB9B68002B0FD005ABEC
:102B50009B68180035F05CF809E005AB1B681C00A9
:102B60009F235A0008490B4823002AF093F8C046D7
:102B700005AB5B68159A11001800FFF715F8C04601
:102B800016B010BD01000080E8F7031080F60310B6
:102B9000A0F603105CF6031010B59AB009AB18004C
:102BA0002C231A00002135F0FFFB0023199309ABF9
:102BB00019004020FEF724FE09AB1B68022B19D038
:102BC000032B00D196E1012B00D0A7E1E0210120E9
:102BD00034F09AFC03001893189B002B02D1DA4BB7
:102BE0001993A7E109AB5B68189A11001800FFF769
:102BF00043F99FE10023179307AB180008231A003D
:102C0000002135F0D1FB09ABDB68082B03D0912301
:102C10005B4219938EE109AB586809ABDB6807AAE0
:102C20000021FEF701FF0300179309ABDA68179B39
:102C30009A4207D06423FF331A00C449C44B1800DA
:102C40002AF028F807AB1B780E3B062B00D948E189
:102C50009A00C04BD3181B689F4609AB9A6807AB14
:102C60005B681900100004F0A7FF030019933FE10F
:102C700009AB1B691900012034F046FC03001693D0
:102C8000169B002B03D18D235B42199330E109ABD6
:102C9000586809AB1B69169A0121FEF7C5FE0300AF
:102CA000179309AB1A69179B9A4206D0BC235A00A6
:102CB000A649A74B180029F0EDFF09AB986809ABAE
:102CC0001A69169B190004F0F1FF03001993169B73
:102CD000180034F09DFF0BE10023069309AB586800
:102CE00009AB1B6906AA0121FEF79EFE030017939C
:102CF00009AB1A69179B9A4207D08823FF331A0041
:102D00009249934B180029F0C5FF00230593069BB9
:102D10001900012034F0F8FB03001593159B002BDC
:102D200003D18D235B421993E2E009AB9868069AC0
:102D300005AB159904F0FEFF03001993199B002BB6
:102D40000DD109AB5868059B159A0021FEF7A8FE26
:102D500009AB586805AA04230121FEF7A1FE159BC3
:102D6000180034F055FF09AB9B681800FFF794FC7E
:102D7000C046BDE00023049309AB586809AB1B694A
:102D800004AA0121FEF750FE0300179309AB1A694C
:102D9000179B9A4204D109AB5A69049B9A4206D008
:102DA000D2235A0069496A4B180029F073FF049B2B
:102DB0001900012034F0A8FB03001493149B002B8E
:102DC00003D18D235B42199392E009AB586809AB9C
:102DD0005B69149A0221FEF727FE0300179309ABE3
:102DE0005A69179B9A4207D0B023FF331A005749FC
:102DF000574B180029F04EFF09AB9B68049A1499B1
:102E0000180005F0CBF803001993149B180034F058
:102E1000FFFE09AB9B681800FFF73EFCC04667E069
:102E200009AB9B68180004F097FE0300199309ABE7
:102E30009B681800FFF730FC5AE00023039309ABAE
:102E40005B681800FEF7F0FF09AB9B6803AA190046
:102E5000FFF776FB03001993199B002B45D109ABB3
:102E6000586803AA04230021FEF71AFEC0463CE07E
:102E70000023029309AB586809AB1B6901AA012121
:102E8000FEF7D2FD0300179309AB1A69179B9A420C
:102E900006D0E7235A002D492D4B180029F0FAFEE1
:102EA000019C09AB5B681800FEF7BEFF010002AB96
:102EB0001A002000FFF72AFC03001993199B002B2E
:102EC00015D1029B5A6809AB9B681900100005F0E8
:102ED0008DF803001993029B1800FFF7C7FBC0464B
:102EE00005E086235B42199302E0C04600E0C0463D
:102EF000C0461FE009AB9B68180004F02DFE09AB2B
:102F00009B68002B15D009AB9B681800FFF7C4FB2A
:102F100009AB9B68180034F07BFE0AE009AB1B6824
:102F20001C00EE23FF331A0008490B48230029F048
:102F3000B1FEC04609AB5B68199A11001800FEF794
:102F400033FEC0461AB010BD01000080FCF703102C
:102F500080F60310B8F603105CF6031070B5A2B04B
:102F60000DAB18002C231A00002135F01DFA0023A8
:102F700021930DAB19008020FEF742FC0DAB1B68BE
:102F8000022B06D0032B00D19EE1012B00D19BE147
:102F900093E10DABDB68102B03D091235B422193AF
:102FA00093E10023209309AB180010231A0000219D
:102FB00035F0FAF90DAB58680DABDB6809AA0021B2
:102FC000FEF732FD030020930DABDA68209B9A4296
:102FD00006D083239A00C249C24B180029F05AFE3A
:102FE00009AB1B78252B6BD002DC242B04D05EE1CF
:102FF000272B00DD5BE1C5E0002308930DABDB6907
:103000001900012034F080FA03001F931F9B002B4E
:1030100003D18D235B4221934DE10DAB1B69190058
:10302000012034F071FA03001E931E9B002B07D180
:103030008D235B4221931F9B180034F0E9FD3AE198
:103040000DAB58680DAB1B691E9A0121FEF7ECFC15
:10305000030020930DAB1A69209B9A4205D0A24A27
:103060009F49A04B180029F015FE09AB588809AB01
:1030700059680DAB1D690DABDB691E9C08AA029255
:1030800001931F9B00932B00220006F087F9030099
:103090002193219B002B06D10DAB5868089B1F9AEA
:1030A0000021FEF7FDFC0DAB586808AA042301219E
:1030B000FEF7F6FC1F9B180034F0AAFDC046FAE0AC
:1030C0000DAB1B691900012034F01EFA03001D939B
:1030D0001D9B002B03D18D235B422193EBE00DABB5
:1030E00058680DAB1B691D9A0121FEF79DFC03007A
:1030F00020930DAB1A69209B9A4205D07B4A7849F0
:10310000784B180029F0C6FD0DAB5B691900012052
:1031100034F0FAF903001C931C9B002B03D18D2380
:103120005B422193C7E00DAB58680DAB5B691C9AFD
:103130000221FEF779FC030020930DAB5A69209B16
:103140009A4205D06A4A6649664B180029F0A2FDEA
:1031500009AB588809AB59680DAB5C690DAB1B69AD
:103160001C9A01931D9B0093230006F0A3F9030012
:1031700021931D9B180034F04BFD1C9B180034F06C
:1031800047FD98E0002307930DAB1B691900012050
:1031900034F0BAF903001B931B9B002B03D18D2342
:1031A0005B42219387E00DAB58680DAB1B691B9AFE
:1031B0000121FEF739FC030020930DAB1A69209B17
:1031C0009A4206D09C239A004549464B180029F0A4
:1031D00061FD1B9B1A9309AB9B681B9AD31819932B
:1031E0000DABDB691900012034F08EF90300189350
:1031F000189B002B07D18D235B4221931B9B18004A
:1032000034F006FD57E009AB1B78262B1AD109AB29
:10321000588809AB5C6809AB9E6809ABDA680DABEE
:10322000DB691A9D07A904910393189B02930192ED
:10323000199B009333002A00210006F0C5F9030012
:10324000219319E009AB588809AB5C6809AB9E680B
:1032500009ABDA680DABDB691A9D07A904910393EA
:10326000189B02930192199B009333002A002100BE
:1032700006F054FA03002193219B002B06D10DABDD
:103280005868079B189A0021FEF70AFC0DAB586896
:1032900007AA04230121FEF703FC189B180034F051
:1032A000B7FC1B9B180034F0B3FCC04603E0862338
:1032B0005B422193C046C04607E00DAB1B680D4A38
:1032C00007490D4829F0E6FCC0460DAB5B68219A22
:1032D00011001800FEF768FCC04622B070BDC04661
:1032E00010F8031080F603102502000046020000CB
:1032F00052020000A70200005CF60310F0B5A5B072
:1033000013AB18002C231A00002135F04DF80023D0
:10331000239313AA80239B0011001800FEF770FA74
:1033200013AB1B68022B06D0032B00D1E5E0012B69
:1033300000D1E2E0D7E013ABDB68242B03D091236C
:103340005B422393DAE00023229309AB1800242385
:103350001A00002135F028F813AB586813ABDB686E
:1033600009AA0021FEF760FB0300229313ABDA6881
:10337000229B9A4205D0664A6649674B180029F09D
:1033800089FC09AB1B78223B012B00D9A5E0002367
:10339000129313AB1B691900012034F0B5F8030038
:1033A0002193219B002B03D18D235B42239398E033
:1033B00013AB586813AB1B69219A0121FEF734FB4C
:1033C0000300229313AB1A69229B9A4205D0534AF9
:1033D0005049514B180029F05DFC219B209309AB0B
:1033E000DB68219AD3181F9313ABDB691900012006
:1033F00034F08AF803001E931E9B002B07D1219BFB
:10340000180034F005FC8D235B42239369E009AB7F
:103410001B78222B23D109AB5C8809AB5D6809AB13
:103420001B891F0009ABDA6809AB196913ABDB69AB
:1034300009A81430060012A8069005931E9B049359
:1034400003911F9B02930192209B00933B0032004B
:103450002900200006F08AFE0300239322E009AB36
:103460005C8809AB5D6809AB1B891F0009ABDA6892
:1034700009AB196913ABDB6909A81430060012A85F
:10348000069005931E9B049303911F9B0293019248
:10349000209B00933B0032002900200006F040FFF3
:1034A00003002393239B002B0DD113AB5868129B71
:1034B0001E9A0021FEF7F4FA13AB586812AA0423EF
:1034C0000121FEF7EDFA219B180034F0A1FB1E9BB1
:1034D000180034F09DFBC04603E086235B42239333
:1034E000C046C0460AE013AB1B681C00C5239A0007
:1034F00008490B48230029F0CDFBC04613AB5B689D
:10350000239A11001800FEF74FFBC04625B0F0BD0E
:10351000C60200002CF8031080F60310DA02000047
:103520005CF6031010B5A6B00023259310AB18006D
:103530002C231A00002134F037FF10AA80235B00EF
:1035400011001800FEF75CF910AB1B68022B19D0B4
:10355000032B00D154E1012B00D060E14C2101206C
:1035600033F0D2FF03002493249B002B02D1B54BF0
:1035700025935CE110AB5B68249A11001800FEF7FC
:103580007BFC54E10EAB180008231A00002134F034
:103590000BFF10ABDB68082B03D091235B42259314
:1035A00045E110AB586810ABDB680EAA0021FEF7AE
:1035B0003BFA0300239310ABDA68239B9A4205D0B1
:1035C000A14AA249A24B180029F064FB0EAB1B785C
:1035D0001B3B062B00D90CE19A009E4BD3181B68AD
:1035E0009F4610AB98680EAB59880EAB5B681A000B
:1035F00006F070FA0300259300E110AB98680EAB5B
:1036000059880EAB5B681A0006F078FA0300259320
:10361000F4E000230D9310ABDB69229309AB180093
:1036200010231A00002134F0BFFE10AB98680DABD8
:10363000229A09A906F076FA03002593259B002B10
:1036400000D0DAE010AB58680D9B09AA0021FEF704
:1036500027FA10AB58680DAA04230121FEF720FABF
:10366000C046CAE010AB1B69219305AB18001023BC
:103670001A00002134F098FE10AB5868219B05AA6F
:103680000121FEF7D1F903002393239A219B9A424B
:1036900005D0714A6D496E4B180029F0FBFA10AB4A
:1036A0009B68219A05A9180006F08EFA030025935D
:1036B000C046A3E010AB1B69209310ABDB691F93DE
:1036C00000230493209B1900012033F01DFF030009
:1036D0001E931E9B002B03D18D235B4225938DE00F
:1036E00010AB5868209B1E9A0121FEF79DF903003C
:1036F0002393239A209B9A4205D0584A5349544B0E
:10370000180029F0C7FA1F9B1900012033F0FCFEB6
:1037100003001D931D9B002B07D11E9B180034F046
:1037200077FA8D235B42259368E010AB98681D9C67
:10373000209A1E9904AB01931F9B0093230006F06F
:1037400084FA03002593259B002B0DD110AB5868FC
:10375000049B1D9A0021FEF7A3F910AB586804AA38
:1037600004230121FEF79CF91E9B180034F050FA47
:103770001D9B180034F04CFAC0463FE010ABDB69EB
:103780001C93002303931C9B1900012033F0BCFE03
:1037900003001B931B9B002B03D18D235B422593BE
:1037A0002CE010AB986803AB1C9A1B9906F096FAB4
:1037B00003002593259B002B0DD110AB5868039B6C
:1037C0001B9A0021FEF76CF910AB586803AA04237A
:1037D0000121FEF765F91B9B180034F019FAC04669
:1037E0000CE010AB9B68180006F0FCFA0300259370
:1037F00004E086235B42259300E0C046C04616E005
:1038000010AB9B68180006F0EDFA10AB9B68002B1C
:103810000CD010AB9B68180034F0FAF906E010AB3E
:103820001B680F4A09490F4829F034FAC04610AB0B
:103830005B68259A11001800FEF7B6F9C04626B05D
:1038400010BDC046010000803B03000040F803109B
:1038500080F60310D4F60310620300007903000021
:10386000BE0300005CF6031010B5ACB013AB18003B
:103870002C231A00002134F097FD00232B9313AA68
:103880008023DB0011001800FDF7BAFF13AB1B68A3
:10389000022B06D0032B00D155E2012B00D152E2BE
:1038A0004AE213ABDB68102B03D091235B422B93CE
:1038B0004AE2002329930FAB180010231A000021BD
:1038C00034F072FD13AB586813ABDB680FAA00210C
:1038D000FEF7AAF80300299313ABDA68299B9A42F2
:1038E00006D0F8239A00DE49DE4B180029F0D2F901
:1038F0000FAB1B7B292B00D90DE29A00DA4BD318B2
:103900001B689F4613ABDB6928930FAB1B880EAA7D
:103910001100180006F0F1FA03002B932B9B002BEB
:1039200000D0FCE113AB5868289B0EAA0021FEF7DB
:10393000B7F8C046F3E113AB1B69279313AB586884
:10394000279B0CAA0121FEF76FF803002993299AFF
:10395000279B9A4205D0C54AC149C24B180029F09D
:1039600099F90FAB1B880CAA1100180006F070FA29
:1039700003002B93C046DDE113ABDB6926930FAB4D
:103980001B880AAA1100180006F092FA03002B9374
:103990002B9B002B00D0C4E113AB5868269B0AAACE
:1039A0000021FEF77DF8C046BBE113AB1B692593F0
:1039B000259B1900012033F0A7FD03002493249BCD
:1039C000002B03D18D235B422B93B3E113AB5868DB
:1039D000259B249A0121FEF727F803002993299AB1
:1039E000259B9A4205D0A24A9D499E4B180029F07A
:1039F00051F90FAB18880FAB9968259B249A03F0F7
:103A00004AFD03002B93249B180034F001F991E147
:103A10000FAB1B88180003F089FD03002B9389E18D
:103A20000FAB1B8808AA09A9180003F0E7FD0300E3
:103A30002B932B9B002B00D075E113ABDB69032B81
:103A400006D913AB586809AA04230021FEF728F809
:103A500013AB1B6A032B00D865E113AB586808AAA7
:103A600004230121FEF71CF8C0465CE113ABDB69BF
:103A70002393239B1900012033F046FD030022937A
:103A8000229B002B03D18D235B422B9352E10FAB82
:103A9000188807AB239A229903F036FF03002B9373
:103AA0002B9B002B06D113AB5868079B229A002151
:103AB000FDF7F6FF13AB586807AA04230121FDF7B1
:103AC000EFFF229B180034F0A3F8C04632E113AB9D
:103AD000DB692193219B1900012033F015FD0300C0
:103AE0002093209B002B03D18D235B422B9321E15C
:103AF0000FAB188806AB219A209903F02DFF030025
:103B00002B932B9B002B06D113AB5868069B209A56
:103B10000021FDF7C5FF13AB586806AA0423012155
:103B2000FDF7BEFF209B180034F072F8C04601E19B
:103B300013AB1B691F9313AB5B691E9300232A937E
:103B400013AB58681F9B05AA0121FDF76DFF030009
:103B50002993299A1F9B9A4206D08D23DA00404967
:103B6000404B180029F096F80FAB9B68414A9342EE
:103B700023D11E9B002B20D01E9B1900012033F067
:103B8000C3FC03002A932A9B002B03D18D235B42A5
:103B90002B93CFE013AB58681E9B2A9A0221FDF7A6
:103BA00043FF03002993299A1E9B9A4205D0324A6B
:103BB0002B492C4B180029F06DF80FAB18880FAB70
:103BC0009968059A2A9C1E9B0093230008F03EF9F1
:103BD00003002B932A9B180034F01AF8C046A9E082
:103BE0000FAB180008F06BFB03002B932B9B002BF3
:103BF00000D09AE013AB58680FAA02230021FDF70A
:103C00004FFF92E0002304930023039313AB586803
:103C100013AB1B6904AA0121FDF706FF03002993DA
:103C200013AB1A69299B9A4205D0144A0C490D4BD3
:103C3000180029F02FF813AB586813AB5B6903AA7F
:103C40000221FDF7F1FE0300299313AB5A69299B6A
:103C50009A4217D00A4A0249024B180029F01AF872
:103C600058F8031080F60310F0F60310F903000073
:103C70001604000000000170750400008F040000AD
:103C8000930400000FAB5B6804990FAA180008F0BA
:103C9000C9FB03002B932B9B002B48D113AB586817
:103CA0000FAA02230021FDF7FBFEC0463FE00023E0
:103CB000029313AB586813AB1B6902AA0121FDF7ED
:103CC000B3FE0300299313AB1A69299B9A4205D0CE
:103CD000224A2349234B180028F0DCFF0FAB5B6816
:103CE00002990FAA180008F08EFB03002B932B9B60
:103CF000002B1ED113AB58680FAA02230021FDF739
:103D0000CFFEC04615E00FAB1B88180008F0A7FBDC
:103D100003002B930EE086235B422B930AE0C04600
:103D200008E0C04606E0C04604E0C04602E0C046E7
:103D300000E0C046C04607E013AB1B680A4A0849CA
:103D40000A4828F0A7FFC04613AB5B682B9A110006
:103D50001800FDF729FFC0462CB010BDA2040000DA
:103D600058F8031080F60310BB0400005CF6031043
:103D700000B591B001AB18002C231A00002134F0DB
:103D800013FB00230F9301AA8023DB01110018000D
:103D9000FDF736FD01AB1B68022B06D0032B01D0CB
:103DA000012B3CD100230F9340E001ABDB680E9365
:103DB0000E9A8023DB009A4203D987235B420F933C
:103DC00034E00E9B1900012033F09EFB03000D939D
:103DD0000D9B002B03D18D235B420F9326E001AB9B
:103DE00058680E9B0D9A0021FDF71EFE03000C93F0
:103DF0000C9A0E9B9A4205D0114A1249124B180098
:103E000028F048FF0E9A0D9B1100180007F0DAFF0A
:103E100003000F930D9B180033F0FAFE06E001AB90
:103E20001B680A4A07490A4828F034FF01AB5B685F
:103E30000F9A11001800FDF7B7FEC04611B000BD83
:103E4000E104000078F8031080F60310ED04000090
:103E50005CF6031000B58FB06B4618002C231A00D7
:103E6000002134F0A1FA00230D936A4680231B0140
:103E700011001800FDF7C4FC6B461B68022B04D030
:103E8000032B31D0012B2FD027E06B46DB690C933D
:103E90000C9B1900012033F037FB03000B930B9BA5
:103EA000002B03D18D235B420D931EE00C9A0B9BDC
:103EB0001100180007F062FF03000D930D9B002B0B
:103EC00006D16B4658680C9B0B9A0021FDF7E8FD64
:103ED0000B9B180033F09CFE07E06B461B68084AFA
:103EE0000849094828F0D6FEC0466B465B680D9A23
:103EF00011001800FDF758FEC0460FB000BDC046C7
:103F00001405000090F803105CF6031070B59EB025
:103F100000231D930BAB18002C231A00002134F052
:103F200043FA0BAA80239B0111001800FDF768FCDF
:103F30000BAB1B68022B1CD0032B00D166E1012BBD
:103F400000D072E1FC235B001900012033F0DCFAA1
:103F500003001C931C9B002B03D18D235B421D93FC
:103F60006BE10BAB5B681C9A11001800FDF784FF36
:103F700063E108AB18000C231A00002134F014FA96
:103F80000BABDB680C2B03D091235B421D9354E1F8
:103F90000BAB58680BABDB6808AA0021FDF744FDAA
:103FA00003001B930BABDA681B9B9A4205D0A84A0F
:103FB000A849A94B180028F06DFE08AB1B782A3BD6
:103FC000052B00D91BE19A00A44BD3181B689F4610
:103FD000002307930BAB9B6807AA1100180006F09B
:103FE00005FB03001D931D9B002B00D00BE10BABC9
:103FF000586807AA04230021FDF752FDC04602E1DC
:1040000000231A930BABDB691993199B190001204C
:1040100033F07AFA03001A931A9B002B03D18D23F5
:104020005B421D93F0E00BAB9B68199A1A9918003C
:1040300006F026FF03001D931D9B002B06D10BAB42
:104040005868199B1A9A0021FDF72AFD1A9B18003F
:1040500033F0DEFDD8E00BAB58680BAB1B6906AA4A
:104060000121FDF7E1FC03001B931B9B042B05D0F2
:104070007B4A7849784B180028F00CFE0BAB586847
:104080000BAB5B6905AA0221FDF7CEFC03001B9375
:104090001B9B042B05D0734A6E496F4B180028F008
:1040A000F9FD08AB58880699059A0BAB9B6806F09A
:1040B00075FF03001D93C046A6E00BAB9B6818007C
:1040C00006F018FA03001D939EE00BAB1B69190064
:1040D000012033F019FA03001893189B002B03D129
:1040E0008D235B421D938FE00BAB58680BAB1B69B4
:1040F000189A0121FDF798FC03001B930BAB1A697A
:104100001B9B9A4205D0584A5249534B180028F03D
:10411000C1FD0BAB5B691900012033F0F5F9030019
:104120001793179B002B07D18D235B421D93189B80
:10413000180033F06DFD67E00BAB58680BAB5B69A3
:10414000179A0221FDF770FC03001B930BAB5A6911
:104150001B9B9A4205D0454A3E493F4B180028F028
:1041600099FD0BAB986808AB5C8808AB5D680BAB3E
:104170001A690BAB596908AB9B68189E03930291AF
:10418000179B0193009233002A00210007F0A4FC42
:1041900003001D9338E00BAB1B691900012033F0BD
:1041A000B3F903001693169B002B03D18D235B42BA
:1041B0001D9329E00BAB58680BAB1B69169A0121C4
:1041C000FDF732FC03001B930BAB1A691B9B9A4251
:1041D00005D0274A1F49204B180028F05BFD0BAB88
:1041E000986808AB59880BAB1C6908AB5B68169ADA
:1041F0000093230007F086FD03001D9304E086234F
:104200005B421D9300E0C046C04616E00BAB9B68C6
:10421000180006F06FF90BAB9B68002B0CD00BABB2
:104220009B68180033F0F4FC06E00BAB1B68114AE6
:104230000849114828F02EFDC0460BAB5B681D9A5B
:1042400011001800FDF7B0FCC0461EB070BDC0469E
:104250003C050000A4F8031080F6031098F7031043
:10426000670500006D050000840500009105000051
:10427000AA050000C70500005CF6031000B585B074
:10428000019080231B061800FDF7ACFA030003938E
:10429000039B1022134001D0FEF766FA039B2022F5
:1042A000134001D0FEF7FAFA039B4022134001D0DD
:1042B000FEF772FC039A80235B00134001D0FFF7E6
:1042C00031F9039B8022134001D0FEF747FE039A89
:1042D00080239B00134001D0FFF710F8039A80233E
:1042E000DB00134001D0FFF7BFFA039A80231B01C4
:1042F000134001D0FFF7AEFD039A80235B0113400A
:1043000001D0FEF77DFA039A80239B01134001D070
:10431000FFF7FCFD039A8023DB011340B1D0FFF7C8
:1043200027FDAEE782B00190019B802252011A6006
:104330000023180002B0704700B583B00190019AC5
:1043400080235B019A4203D100F0ECFD030000E002
:10435000014B180003B000BDE803008000B585B034
:104360000190019B002B05D11F49204B65221800AD
:1043700028F090FC1E4B18002BF03AFF0200019B26
:104380001A62019B1B6A002B05D11749194B6A223F
:10439000180028F07FFC0023039309E0164A039BD2
:1043A0005B01D3180833019A1A60039B013303930E
:1043B000039B012BF2D9019B0F4A1A610F4A104B44
:1043C000002118002DF034FC0200019B5A60019B73
:1043D0005B68002B05D104490A4B7422180028F0B1
:1043E00059FCC04605B000BD94F90310E0F8031075
:1043F00084F90310FCF803104403000820030008AC
:10440000DD4400103CF9031000B585B00190019B1C
:10441000DB69042B02D080231B0610E002AB1800DE
:10442000FFF780FF03000393039B002B06D1019B42
:10443000586802AA04230021FDF732FB039B1800F1
:1044400005B000BD00B585B00190019BDB68042B71
:1044500002D080231B0611E0019B586803AA0423A5
:104460000021FDF7E1FA0300042B02D080231B0694
:1044700004E0039B1800FFF75FFF0300180005B07E
:1044800000BD000000B585B00190009100230393AA
:10449000019B1B68022B04D0032B10D0012B0ED0E4
:1044A00006E0019A009B100098470300039307E081
:1044B000019B1B6807490848442228F0EBFBC046D3
:1044C000019B5B68039A11001800FDF76DFBC04665
:1044D00005B000BDC8F90310A4F9031000B58FB0F2
:1044E000019000230D9302AB18002C231A00002129
:1044F00033F05AFF80231B061800FDF773F9030001
:104500000D930D9B102213400AD002AB190010200E
:10451000FDF776F90A4A02AB11001800FFF7B2FF67
:104520000D9B20221340E5D002AB19002020FDF79F
:1045300067F9044A02AB11001800FFF7A3FFD9E79F
:10454000094400104544001010B58EB00590049148
:104550000392029308AB00221A6008AB00225A6053
:104560000023079337236B4400221A70059B0C939A
:104570000C9B1B6818331C6808AA04990C9800232C
:10458000019307AB00930823A04703000B930B9BF9
:10459000002B06D1079B082B10D0344B180028F0B5
:1045A00079FB0B9B324A934204D137236B4401229F
:1045B0001A7003E02F4B180028F06CFB08AB1A6848
:1045C000039B1B689A420BD808AB1A68039B1B68B5
:1045D0009A4209D108AB5A68039B5B689A4203D997
:1045E000254B180028F056FB08AB1A68039B1B6884
:1045F0009A420BD308AB1A68039B1B689A4217D1E7
:1046000008AB5A68039B5B689A4211D2039A08A9C7
:104610000C98029B984703000A930A9B002B03D037
:10462000164B180028F036FB37236B4401221A7012
:1046300037236B441B78002B14D00C9B1B6814335E
:104640001C6803AA04990C98002300930423A04734
:1046500003005A1E9341DBB2002B03D0084B180015
:1046600028F018FBC0460EB010BDC04618FA031063
:104670000701FF803CFA031064FA031094FA031058
:10468000B4FA031082B00190019B204A934223D0D8
:104690001E4A934210DC1E4A934226D01C4A934283
:1046A00003DC1C4A934223D02BE01B4A934219D0CF
:1046B0001A4A934213D024E0194A934208DC194A5B
:1046C00093421BDA184A94466344012B19D812E02E
:1046D000002B16D1002316E085235B4213E08E23C6
:1046E0005B4210E08C235B420DE098235B420AE0C2
:1046F00087235B4207E092235B4204E095235B4201
:1047000001E084235B42180002B070471201FF8071
:104710000201FF800101FF800701FF800B01FF8084
:104720004601FF804501FF80E5FE007FF0B58DB0BA
:104730000390029100920193039B002B05D14949FC
:10474000494BA322180028F063F8029B132B05D0D5
:104750004449464BA422180028F05AF82F236B44F2
:1047600000221A70129B0A932F236B441B782F226E
:104770006A44591C11701A00039B9B180A9A3F2126
:104780000A403B498A5C1A700A9B099306230893E6
:10479000099A089BDA4013000A930A9B002B00D069
:1047A000E2E72F236B441B782F226A44591C1170B7
:1047B0001A00039B9B1823221A702F236B441B782B
:1047C0002F226A44591C11701A00039B9B18009AEF
:1047D0003F210A401600019A00210A401700244A8E
:1047E000921912781A70009A019B06920793062379
:1047F0000593059B203B002B03DB079ADA4014004E
:104800000AE0059B2022D31A079A9A4013000699C2
:10481000059AD1400C001C43079A059BDA4015000D
:1048200000940195009B019A134300D0C5E72F2304
:104830006B441B782F226A44591C11701A00039B89
:104840009B1800221A702F236B441B78132B05DD55
:104850000449084BB922180027F0DAFFC0460DB012
:10486000F0BDC046D8FA031040FB031058FB0310FC
:10487000D8F9031088FB031030B58FB00590049170
:1048800002920393149B0122934302D086235B423E
:104890002DE006AB180013231A00002133F084FD2D
:1048A000029B039C06A8049A00921A00230013217D
:1048B000FFF73CFF00230D93149B0122134001D00E
:1048C00001230D93059B0C930C9B1B6814331C68F0
:1048D000129D139A06A90C980D9B00932B00A047DC
:1048E00003000B930B9B1800FFF7CCFE030018008E
:1048F0000FB030BD30B591B0059004910292039392
:1049000009AB180013231A00002133F04DFD029B60
:10491000039C09A8049A00921A0023001321FFF7B0
:1049200005FF059B0E930E9B1B681C331B6807AA93
:1049300009A90E98984703000F930F9B002B36D1BF
:1049400007AB1A68149B9A4202D287235B4233E07A
:10495000159A149BD218159B9A4202D287235B4268
:104960002AE0149A159BD21807AB1B689A4202D909
:1049700087235B4220E0002306930E9B1B681833BD
:104980001C68159D169A09A90E98149B019306ABF5
:1049900000932B00A04703000F930F9B002B06D121
:1049A000069A159B9A4202D287235B420F930F9B74
:1049B0001800FFF767FE0300180011B030BD10B5F6
:1049C00090B0059004910292039309AB1800132351
:1049D0001A00002133F0E8FC029B039C09A8049A0A
:1049E00000921A0023001321FFF7A0FE059B0F93EE
:1049F0000F9B1B681C331B6807AA09A90F989847CF
:104A000003000E930E9B002B11D1129B00225A60C3
:104A100007AB5B680122134005D0129B5B68012243
:104A20001A43129B5A6007AB1A68129B1A600E9BBE
:104A30001800FFF727FE0300180010B010BD10B5D6
:104A40008EB0059004910292039307AB18001323D4
:104A50001A00002133F0A8FC029B039C07A8049ACB
:104A600000921A0023001321FFF760FE059B0D93AF
:104A70000D9B1B6820331B6807A90D9A10009847EF
:104A800003000C930C9B1800FFF7FCFD03001800BB
:104A90000EB010BD00B585B00190019B0393039B40
:104AA0001B6810331B68039A100098470300029399
:104AB000029B1800FFF7E6FD0300180005B000BDDB
:104AC00000B583B00190019B180000F011F9019B23
:104AD000180003B000BD000010B5144B1B78BFF3E5
:104AE0005B8FDBB21A00012313405A425341DBB201
:104AF000002B17D00D4B180028F02EFF03005A1E74
:104B00009341DBB2002B0DD0094B1800FFF7D8FF03
:104B1000064B180028F072FF064A0749044B18009C
:104B200028F0EEFE024B180010BDC046105F0008D2
:104B3000C05E0008C00000080990021084B0039015
:104B4000029101920023180004B0704700B585B0AF
:104B5000FFF7C2FF0300039301AB0F4A03CA03C36D
:104B60000E4A039B1100180024F002FC02000C4BBB
:104B70001A600B4B1B68002B03D10A4B180028F05E
:104B800089F8074B1868084B01AA0849FFF7DCFCB5
:104B9000C04605B000BDC04608FC0310B4FB0310BE
:104BA000145F0008D4FB03103D4B0010F8FB03100A
:104BB00010B588B00790049205930C4B1B68002B2E
:104BC00001D1FFF7C3FF094B1868049B059C0799A7
:104BD0000C9A02920B9A01920A9A00921A002300F0
:104BE000FFF74AFE0300180008B010BD145F00086C
:104BF00010B588B00790049205930C4B1B68002BEE
:104C000001D1FFF7A3FF094B1868049B059C079986
:104C10000C9A02920B9A01920A9A00921A002300AF
:104C2000FFF768FE0300180008B010BD145F00080D
:104C300010B586B00590029203930A4B1B68002BB7
:104C400001D1FFF783FF074B1868029B039C05996E
:104C5000089A00921A002300FFF7B1FE0300180023
:104C600006B010BD145F000810B584B00390009228
:104C70000193094B1B68002B01D1FFF767FF064B1F
:104C80001868009B019C03991A002300FFF7D7FEC8
:104C90000300180004B010BD145F000800B583B015
:104CA000104B1B68002B14D1FFF716FF0300019374
:104CB0000D4A019B1100180024F05AFB0200094B19
:104CC0001A60084B1B68002B03D1084B180027F013
:104CD000E1FF044B1B681800FFF7DCFE030018001F
:104CE00003B000BD145F0008B4FB0310D4FB031035
:104CF00082B00190019B180002B0704700B58FB0E0
:104D00000490059103920293029B002B05D1039B13
:104D1000002B02D087235B4235E006AB04AA1A6061
:104D200006AB08225A6006AB029A9A6006AB039A59
:104D3000DA6006AB10AA1A6106AB04225A61134B63
:104D400001211800FBF7FEFE03000C930C9B002BC7
:104D500002DC92235B4216E006A90C980023009324
:104D600000230322FBF7D4FF03000D930D9A802349
:104D70001B069A4202D192235B420D930C9B1800B2
:104D8000FCF790F80D9B18000FB000BD011A010050
:104D900000B58FB00490059103920293109B002BF5
:104DA00005D1029B002B02D087235B4237E008AB82
:104DB00004AA1A6008AB08225A6008AB03AA9A60DA
:104DC00008AB0422DA6006AB109A1A6006AB029AAE
:104DD0005A608D235B0201211800FBF7B3FE03002C
:104DE0000C930C9B002B02DC92235B4217E006AA7B
:104DF00008A90C980123009313000222FBF788FFF7
:104E000003000D930D9A80231B069A4202D1922330
:104E10005B420D930C9B1800FCF744F80D9B1800A7
:104E20000FB000BD00B58FB0049005910392039BB5
:104E3000002B02D187235B423AE00AAB00221A60C2
:104E40000AAB00225A6008AB04AA1A6008AB082219
:104E50005A6006AB0AAA1A6006AB08225A60164BC3
:104E600001211800FBF76EFE03000C930C9B002B36
:104E700002DC92235B421BE006AA08A90C980123DE
:104E8000009313000122FBF743FF03000D93039BE4
:104E90000AAA03CA03C30D9A80231B069A4202D1B1
:104EA00092235B420D930C9B1800FBF7FBFF0D9BBD
:104EB00018000FB000BDC046021A010000B589B04D
:104EC0000290039104AB02AA1A6004AB08225A6054
:104ED000134B01211800FBF735FE03000693069BD8
:104EE000002B02DC92235B4216E004A90698002303
:104EF000009300230122FBF70BFF03000793079A9F
:104F000080231B069A4202D192235B420793069BA1
:104F10001800FBF7C7FF079B180009B000BDC0468B
:104F2000031A010000B585B0134B01211800FBF7EF
:104F300009FE03000293029B002B02DC92235B42DA
:104F400016E0029800230093002300220021FBF7C3
:104F5000DFFE03000393039A80231B069A4202D1CB
:104F600092235B420393029B1800FBF79BFF039B7A
:104F7000180005B000BDC046041A010000B585B098
:104F80000190019B002B05D11F49204B8422180062
:104F900027F080FE1E4B18002BF02AF90200019B1F
:104FA0001A62019B1B6A002B05D11749194B8922F4
:104FB000180027F06FFE0023039309E0164A039BB5
:104FC0005B01D3180833019A1A60039B01330393E2
:104FD000039B042BF2D9019B0F4A1A610F4A104B15
:104FE000002118002CF024FE0200019B5A60019B56
:104FF0005B68002B05D104490A4B9322180027F067
:1050000049FEC04605B000BDC8FC031020FC0310DB
:10501000B8FC03103CFC0310A8030008840300083C
:105020003953001078FC031010B58EB005900023A2
:1050300000240893099400230D93059B1B690C938E
:1050400000230793059BDB68082B03D1059B5B6955
:10505000042B02D080231B0659E0059B586808AA40
:1050600008230021FCF7E0FC0300082B02D080237A
:105070001B064CE0059B586807AA04230221FCF795
:10508000D3FC0300042B02D080231B063FE00C9BC3
:10509000180032F0B3FD03000D930D9B002B02D1DD
:1050A00092235B4233E0059B5868059B1B690D9A70
:1050B0000121FCF7B9FC0200059B1B699A4206D04E
:1050C0000D9B180032F0A4FD92235B421FE0059B6C
:1050D0005B681800FCF7A8FE0100089B099C079A72
:1050E00002920D9A01920C9A00921A002300080075
:1050F000FFF75EFD03000B930C9A0D9B0021180037
:1051000033F052F90D9B180032F082FD0B9B180012
:105110000EB010BD30B58DB005900023002408936B
:10512000099400230793059BDB68082B03D1059B9B
:105130001B69042B02D080231B0653E0059B586893
:1051400008AA08230021FCF76FFC0300082B02D0FB
:1051500080231B0646E0059B586807AA042301210B
:10516000FCF762FC0300042B02D080231B0639E00D
:10517000059BDB69180032F041FD03000B930B9B8C
:10518000002B02D192235B422CE0059B5B68180048
:10519000FCF74AFE0500089B099C0799059AD2690D
:1051A0000B980290019200911A0023002800FFF74B
:1051B0001FFD03000A930A9B002B07D1059B58682B
:1051C000059BDB690B9A0021FCF76AFC059BDA69F9
:1051D0000B9B0021180033F0E7F80B9B180032F00E
:1051E00017FD0A9B18000DB030BD10B58AB00390B2
:1051F00007AB180008231A00002133F0D5F800236C
:10520000002404930594039BDB68082B03D1039BC4
:10521000DB69082B02D080231B0629E0039B58681A
:1052200004AA08230021FCF7FFFB0300082B02D08F
:1052300080231B061CE0039B5B681800FCF7F4FD51
:105240000100049B059C07AA00921A002300080095
:10525000FFF7EEFC03000993099B002B07D1039B8A
:105260005868039BDB6907AA0021FCF719FC099B1E
:1052700018000AB010BD10B584B0019000230024BE
:1052800002930394019BDB68082B02D080231B064A
:105290001AE0019B586802AA08230021FCF7C4FB0E
:1052A0000300082B02D080231B060DE0019B5B68E6
:1052B0001800FCF7B9FD0100029B039C1A002300B3
:1052C0000800FFF7D1FC0300180004B010BD00B5C2
:1052D00083B00190FFF7E2FC0300180003B000BDAB
:1052E00000B585B00190009100230393019B1B68DA
:1052F000022B04D0032B10D0012B0ED006E0019A14
:10530000009B100098470300039307E0019B1B6874
:10531000074908489D2227F0BDFCC046019B5B68F9
:10532000039A11001800FCF73FFCC04605B000BD11
:105330002CFD0310D4FC031000B591B001900023A4
:105340000F9303AB18002C231A00002133F02CF824
:1053500080231B061800FCF745FA03000F9323F087
:1053600091FB03000E930E9B002B05D00E9B2A4948
:105370002A48B12227F08EFC0F9B202213400AD02E
:1053800003AB19002020FCF73BFA254A03AB1100C0
:105390001800FFF7A5FF0F9B102213400AD003ABA4
:1053A00019001020FCF72CFA1E4A03AB110018005C
:1053B000FFF796FF0F9B402213400AD003AB190062
:1053C0004020FCF71DFA184A03AB11001800FFF744
:1053D00087FF0F9B802213400AD003AB1900802067
:1053E000FCF70EFA114A03AB11001800FFF778FF23
:1053F0000F9A80235B001340AAD003AA80235B008E
:1054000011001800FCF7FCF9094A03AB1100180061
:10541000FFF766FF9CE7C0463CFD0310F8FC031055
:105420002950001015510010EB5100107752001058
:10543000CF52001082B00190034A019B1A60019B79
:10544000180002B07047C04614FE031000B583B0C8
:105450000190019B1800FFF7EDFF019B180028F059
:105460003DFB019B180003B000BD82B001900023FA
:10547000180002B0704784B003900092019300239B
:10548000180004B0704784B0039000920193002389
:10549000180004B0704710B582B00190019B1B68E2
:1054A00028331B68019A1000984703000C0018006D
:1054B000210002B010BD10B584B00390009201939A
:1054C000039B1B682C331B68039A1000984703004A
:1054D0000C001800210004B010BD82B0019001231F
:1054E0005B42180002B0704730B585B0039000925F
:1054F0000193039B1B6824331B68039A1000984791
:1055000003000C00009801991A00230036F080FF78
:105510001C001300190022000B0013432DD1039B24
:105520001B6824331B68039A1000984703000C0083
:10553000089809991A00230036F06AFF1C0013002E
:10554000190022000B00134317D10099019A089B00
:10555000099CC91862410C001500039B1B68383375
:105560001B68039A1000984702000B009D4204D864
:1055700001D1944201D8012300E00023180005B0B6
:1055800030BD30B585B0039000920193039B1B683A
:1055900028331B68039A1000984703000C000098FA
:1055A00001991A00230036F033FF1C001300190084
:1055B00022000B0013432DD1039B1B6828331B686B
:1055C000039A1000984703000C00089809991A00E4
:1055D000230036F01DFF1C001300190022000B00F1
:1055E000134317D10099019A089B099CC91862417D
:1055F0000C001500039B1B6838331B68039A1000CE
:10560000984702000B009D4204D801D1944201D872
:10561000012300E00023180005B030BDF0B585B0CF
:10562000039000920193039B1B6830331968009B21
:10563000019C03981A002300884703000C0000987F
:1056400001991A00230036F0E3FE1C001300190034
:1056500022000B00134342D10099019A0A9B0B9C34
:10566000C91862410D001600039B1B6830331F6888
:105670000099019A0A9B0B9C5B18544101214942F5
:10568000CA175B18544103991A0023000800B84751
:1056900003000C001A0023002800310036F0B8FE89
:1056A0001C001300190022000B00134317D10099AE
:1056B000019A0A9B0B9CC91862410C001500039BC0
:1056C0001B6838331B68039A1000984702000B00D0
:1056D0009D4204D801D1944201D8012300E0002367
:1056E000180005B0F0BD000082B00190034A019B94
:1056F0001A60019B180002B07047C04614FE0310E8
:10570000F0B587B0059004910392059B1800FFF750
:10571000EBFF174A059B1A60059B0433180000F045
:10572000F0FA049B1E0000231F00059B1E615F61B1
:10573000039B1C0000231D00059B9C61DD61059BF4
:10574000202200219954059B00225A62049B0133B8
:1057500002D0039B002B07D1064907480023009382
:105760000023002227F044FB059B180007B0F0BD82
:10577000CCFD031048FD03100101FF8000B583B08C
:1057800001900A4A019B1A60019B180000F0E8F89A
:10579000019B0433180000F0BFFA019B1800FFF7CB
:1057A00049FE019B180003B000BDC046CCFD0310AC
:1057B00000B583B00190019B1800FFF7DFFF019B4C
:1057C000180028F08BF9019B180003B000BD000001
:1057D000F0B5C64600B58CB00990099B20229B5CB1
:1057E00001225340DBB2002B02D0099B00225A62F7
:1057F000099B24330121180027F0E2F903000B93E1
:105800000B9B012B01D00023A2E0099B043318005D
:1058100000F08EFA03000A930A9B002B07D0099B25
:1058200024330121180027F0FFF90A9B90E0099B1F
:105830009969DA69099B5C691B69C91862410C00A6
:105840001500099B0433180000F0F4FC8046099B06
:105850000433180000F0E3FC0300434400930023EA
:1058600001930123019A954206D8019A954202D1EB
:10587000009A944200D80023DBB2002B07D0099B8A
:1058800024330121180027F0CFF9344B60E0099B45
:105890001C695D69099B0433180000F0C0FC03001B
:1058A0001E0000231F000123AF4203D801D1A642EE
:1058B00000D80023DBB2002B07D0099B2433012141
:1058C000180027F0B1F9254B42E0099B5C691B6980
:1058D0001A0022430DD1099B0433180000F09FFCED
:1058E0000300029300230393099B0299039A196111
:1058F0005A61099BDC699B691A00224323D1099BE9
:105900000433180000F096FC030004930023059371
:10591000099B0433180000F082FC03000693002367
:105920000793099B5C691B690699079AC91AA241EA
:105930000B0014000499059AC91862410B00140069
:10594000099A9361D461099B2022012199540A9BF1
:1059500018000CB004BC9046F0BDC0465FF0FFFFDD
:1059600000B585B00190019B20229B5C0122534031
:10597000DBB2002B04D0019B00225A62002316E008
:10598000019B24330121180027F04EF903000393F3
:10599000039B002B01D0002309E0019B2022002162
:1059A0009954019B0433180000F008FA0300180012
:1059B00005B000BD10B58AB0059004910292039322
:1059C000174B0993059B20229B5C002B0ED005985A
:1059D0000299039A0C9B0D9C0093019413000A00FA
:1059E000FFF782FD031E01D0012300E00023002BFE
:1059F00011D0059B19695A69029B039C5B1854419D
:105A000006930794059B181D069A0C9B049900F0B9
:105A100017FA03000993099B18000AB010BDC0468D
:105A20005FF0FFFF10B58AB00590049102920393D6
:105A3000174B0993059B20229B5C002B0ED00598E9
:105A40000299039A0C9B0D9C0093019413000A0089
:105A5000FFF797FD031E01D0012300E00023002B78
:105A600011D0059B19695A69029B039C5B1854412C
:105A700006930794059B181D069A0C9B049900F049
:105A800017FA03000993099B18000AB010BDC0461D
:105A90005FF0FFFF10B58AB0059002920393174B99
:105AA0000993059B20229B5C002B0ED00598029940
:105AB000039A0C9B0D9C0093019413000A00FFF7BE
:105AC000ADFD031E01D0012300E00023002B11D007
:105AD000059B19695A69029B039C5B185441069304
