:020000041000EA
:1000000000000108999401100D00000099010010F2
:1000100000000000000000000000000000000000E0
:100020000000000000000000000000004175011009
:100030000000000000000000C5750110D17501101E
:10004000F19401101D980110F1940110F194011028
:10005000F1940110F1940110F1940110F194011048
:10006000F1940110F1940110F1940110F194011038
:10007000F1940110F1940110F1940110F194011028
:10008000F1940110F1940110F1940110F194011018
:10009000F1940110F1940110F1940110F194011008
:1000A000F1940110F1940110F1940110F1940110F8
:1000B000F1940110F1940110F1940110F1940110E8
:1000C00010B5064C2378002B07D1054B002B02D02E
:1000D000044800E000BF0123237010BD681300082E
:1000E00000000000F47C0210084B10B5002B03D078
:1000F0000749084800E000BF07480368002B00D10B
:1001000010BD064B002BFBD09847F9E7000000001C
:100110006C130008F47C021064100008000000005A
:10012000164B002B00D1144B9D46402292029A1A86
:10013000924600218B460F461348144A121A1CF0AF
:1001400023FA0F4B002B00D098470E4B002B00D00A
:1001500098470020002104000D000D48002802D01F
:100160000C4816F0B7FE1BF00DFE2000290017F01A
:1001700019F916F0E9FFC046000008000000010868
:10018000000000000D73011068130008AC87000820
:10019000D56E0110000000002C4B05E02C4B03E055
:1001A0002C4B01E02C4BFFE7EFF308802B49724604
:1001B0000A4201D0EFF309809C46294B1968026876
:1001C0000A60043142680A60043182680A600431BE
:1001D000C2680A600431F0C147460F6004314F46DF
:1001E0000F60043157460F6004315F460F600431E1
:1001F00002690A60083142690A60043182690A6052
:100200000431C2690A60043103462033154E32427C
:1002100000D0043375460D4E354200D148330C46AC
:10022000103C2360EFF309820A600431EFF3088287
:100230000A60043172460A600431EFF314820A60E6
:100240006046074900F05EF8FEE70000100000007D
:10025000200000003000000040000000040000000A
:10026000A82302100002000030B5002585B01A4C0A
:10027000AB002900E2581948013516F067FC0D2D36
:10028000F5D1A36C16480293636C0193236C009321
:10029000E36BA26B616B16F059FC124B12481968A4
:1002A00016F054FCE36C1B0712D5104816F04EFCF8
:1002B000236D0F48DB0700D40E4816F047FCE36CB3
:1002C0000D485B0700D40D4816F040FC05B030BD6A
:1002D0000B4816F03BFCEFE7607600083C24021068
:1002E0004A24021000ED00E099240210A724021015
:1002F000B6240210C3240210E6240210F2240210D5
:10030000D624021013B50400154816F01FFC302C3B
:1003100017D0402C1AD0202C1DD1124816F016FCF4
:10032000114C124816F012FCFFF79EFF104816F011
:100330000DFC00230F4A0093D26B0F49200016F0EA
:1003400017FD0E4816F002FC0D4CEAE70D4816F0BA
:10035000FDFB0D4CE5E70D4816F0F8FB0C4CE0E713
:10036000AC230210D52302103E01FF8002240210AC
:100370000D240210607600082C240210E4230210E1
:100380003F01FF80ED2302104001FF80F82302109F
:100390003D01FF80F0B587B006000291039200F0A6
:1003A000F3FA00282BD0036800240093164B002298
:1003B00005A93000059316F019FC0121300016F054
:1003C00035FC2500019073689C4215D200230593EB
:1003D000019B25041D43B3682701D8192A0005A9EC
:1003E00016F004FC00280DD0B368DF19029BFB60F7
:1003F000009B7B60039BBB60280007B0F0BD01231E
:100400005B42D1E70134DEE7FFFF000037B5426809
:1004100005000B0C934205D3009215496D22154837
:1004200016F08CFC1C0183681B59994205D00B0007
:1004300071220F49104816F081FC00F0A5FA00283F
:100440000DD00268AB681B1959688A420AD09968B6
:100450008A4207D07B220649084816F06FFC012229
:100460005242EFE700221A605A609A6037BDC046D8
:10047000FE2402103625021082250210BD2502102E
:1004800037B50500002904D189221749174816F00D
:1004900055FC42680B0C934205D3009212498F22FF
:1004A000134816F04BFC1C0183681B59994205D078
:1004B0000B0093220C490F4816F040FC00F064FA40
:1004C00000280CD00268AB681C1963689A4209D0F6
:1004D000A3689A4206D09D2203490748D7E7012224
:1004E0005242F0E7E0683EBD1A250210F9250210DD
:1004F00036250210822502103626021070B5041E21
:1005000004D15C220849094816F018FC084D28005F
:1005100000F0C2FE074801F0A1FF074802F03EFBD1
:100520002560032070BDC046842602109426021068
:10053000C4000008EC00000814010008F0B5002118
:1005400006000D4B5D681B681033A94201D10020E5
:1005500010E000225F68BA4202D101312833F4E78B
:100560001868540100190468A64201D00132F2E76C
:100570000028F2D0F0BDC0466C01000870B50D0037
:100580000121040083684942186A17F0DFFFE3691C
:10059000002B0BD1A561A368E5616168586818F06C
:1005A0004DFEA368186A17F0E7FF70BD1D61F2E702
:1005B000F0B585B005000E00FFF7C0FF041E05D1A1
:1005C0002B0074223C493D4816F0B8FB0369002B10
:1005D0000ED13268C1688A4210D90293E3687A2248
:1005E00001932368344900933548336816F0A6FB1D
:1005F000012B03D13268C1688A42EED100F0C4F900
:10060000071E07D1237D002B1FD1236838222D49D7
:100610002D48D9E78269002A0BD00023C1698B429B
:100620000CD13B684622009323682649274816F0E0
:1006300085FB03683D2223492548C5E798001058EB
:100640002568A84201D00133E9E73A000C213000C7
:1006500000F0B2F9002804D1812217491D4816F094
:100660006DFB1D4B0021186A17F0D6FA051E0BD141
:100670001A4BB0687360002F03D018F0E7F805B08C
:10068000F0BD00F047FDFAE7A36801001A681448BE
:10069000FFF780FE022370606B75013B2B75002312
:1006A0002F606C60EE60AB602B61AB7529002000A1
:1006B000FFF764FFE3E7C046D0260210E9270210E7
:1006C00006280210B02602105F280210CC28021063
:1006D000962802100A2902106C010008010000800F
:1006E00074010008F0B510248DB004AD0F00220095
:1006F0000021060028001BF047FF002108AA012066
:10070000089109910A950B940197029118F062F8EB
:100710000390002804D1B72209490A4816F00EFBBD
:1007200001A93000FFF744FF01210398494218F066
:1007300067F8039818F0C0F802980DB0F0BDC046F5
:10074000E2260210B127021070B50C000100184813
:10075000FFF796FE182105000268200000F02CF932
:10076000002804D1CE221349134816F0E7FAAB7DD6
:10077000012B0CD180231B0623612B686069002BA1
:1007800002D100F0C7FC70BD18F060F8FBE728004C
:1007900004221530032100F0CFF802232B75EC6002
:1007A0000FCC00F0AFF829006868FFF7E7FEEAE732
:1007B00074010008EE26021020270210F0B5102464
:1007C00091B00F00160000212200050002A801933D
:1007D0001BF0DAFE002102AB0893019B06AA0C93E2
:1007E000169B01200691079109940A970B960D9389
:1007F0000E9117F0EFFF0F90002805D183220A49D0
:1008000052000A4816F09AFA0AA92800FFF79CFF3E
:1008100001210F98494217F0F3FF0F9818F04CF898
:100820000E9811B0F0BDC046FD260210B12702108F
:1008300070B50D0001000F48FFF722FE08210400EB
:100840000268280000F0B8F8002805D18F220A4974
:1008500052000A4816F072FA20000321153000F009
:1008600083F80323E560237521006068FFF786FEA7
:1008700070BDC046740100080627021083270210CD
:1008800070B504008AB0002825D0102502AE2A00D9
:10089000002130001BF078FE002106AA01200691FD
:1008A000079108960995009417F094FF019000288D
:1008B00005D1A12209495200094816F03FFA6946BC
:1008C0002000FFF7B5FF01210198494217F098FF7A
:1008D000019817F0F1FF0AB070BDC046162702104C
:1008E0004D27021010B5FFF729FE041E01D100208C
:1008F00010BD00F049F8002802D1237D002BF6D06E
:10090000E068F5E71FB5002801D1002906D1002ACB
:1009100001D1002B02D1CC18042C08D902930192EA
:100920000091030027220249024816F007FA1FBD72
:100930003A290210BB29021030B50F2585B06D444D
:1009400029700C00290016F03DF9002806D12B78FB
:10095000302200940249034816F0F0F905B030BD8A
:10096000492902107329021007B503788B4205D07C
:10097000009138220249034816F0E0F907BDC0464D
:100980005E2902107329021070B518F043FC002292
:10099000084B5C681B68A24202D10021080070BDB0
:1009A000190028331D00243D2D68A842F6D00132DD
:1009B000F1E7C0466C01000810B5031E1DD00123ED
:1009C00000291AD009184C1E0023A04215D89A42BB
:1009D00015D1144A904210D9134B984203D8134AA8
:1009E0000123914209D9124B124AC01800239042A8
:1009F00003D8114A8A425B41DBB2180010BD0F4A8E
:100A00009042FAD9074B984203D80D4A01239142EC
:100A1000F3D9F0230B4A1B06C01800239042ECD8F0
:100A2000094AE7E7FFFF0008FF760408007704089B
:100A30000000F8EFFF7F070000800F10FFFFFF07A7
:100A400000000108FFFF07000000081010B519F0B2
:100A50005FF80E4A18210A2017F0C8F80C4C2062E3
:100A6000002803D10B490C4816F068F90B4A2821DD
:100A70000A2017F0BBF86062002802D10549084837
:100A8000F2E72000FFF73AFD606010BD5401000856
:100A90006C0100080D2A02101A2A02103C010008FD
:100AA000462A021010B5024B186800F0C9FBFAE79D
:100AB00094010008F7B50C000100184817000193D5
:100AC000FFF7DEFC0600006805211530FFF74CFF3C
:100AD000032C05D99E2212495200124816F02EF915
:100AE000731DDB7F00259C4215D2E4003619B568E2
:100AF000019B9D4200D91D00002D0CD0002F04D079
:100B00002A00716838001BF0ADFC73685B197360D4
:100B1000B3685B1BB3602800FEBDC04680010008BF
:100B2000DE2A0210182E021010B50400FFF72CFF69
:100B3000C368806803430820184380231B069C4237
:100B400001D1012464422200022118F0D1FB831C50
:100B500000D1002010BD0000F0B593B00391050056
:100B6000FFF712FF2C21060002000398FFF724FF75
:100B7000002804D1FC228E498E4816F0DFF82C2282
:100B8000002103981BF000FDB268002D04D06C1EFC
:100B90002C4001D12A4207D1009284222B0052001E
:100BA0008349854816F0CAF818F092FB28420AD00B
:100BB0002300726993420BD189222B007C497F4824
:100BC000520016F0BBF80E227949FF327C48D4E778
:100BD00031695C010C1961688D4201D00133E9E78C
:100BE000002CE9D00121A3684942186A17F0AEFC35
:100BF000A569002D03D1B32272497348BDE70022D5
:100C00002B69A3612A61934203D1E361606818F004
:100C100049FBA368186A17F0AFFC28002B7D15303C
:100C2000022B09D0032B21D00221012B1FD09722A8
:100C30005F4952006548C4E705220421FFF77CFEA6
:100C40002822002108A81BF09FFC00222B7D069281
:100C5000022B00D080E02A681821E868FFF7ACFE7C
:100C6000002807D15B225A495A4886E71900FFF746
:100C70007BFEE5E7EB685F681C689A68DB68390013
:100C8000200004930592FFF73DFEFBB20693002F70
:100C90002AD1049B002B5FD0049B2A68D9000598B9
:100CA000FFF78AFE00284DD0FF0012ABDF193C0091
:100CB0000027059E243C73689C46002B46D02300E9
:100CC000320003CA03C3039ABB00D31862466146CD
:100CD000DA6120682A68FFF76FFE002836D13B00F2
:100CE00094223B493C486CE7F9002A682000FFF752
:100CF00063FE0026002807D16B22354937483CE7C0
:100D000001360834B742C4D063689C46002BF7D044
:100D1000200008AAF300D31807931A1D0AC80AC2B4
:100D200063460398B2008218D360079B2A68614625
:100D30005868FFF741FE0028E2D133007C222449A5
:100D400027483EE783222249264816E7049B0137BD
:100D500008360834BB42AED10121234B4942586AC0
:100D600016F05AFF011E03D19D2219491F4804E7BE
:100D70000D2306AA9B186A46127E0895DA770200B0
:100D800008AB51CB51C251CB51C251CB51C21B68A0
:100D9000174813600022FFF7FDFA2B7D039A1360BA
:100DA000AB6804931300049A58609A6013B0F0BDC6
:100DB000D62A0210082B0210242B02108A2B0210B4
:100DC0006E2B0210B82A0210D82B0210F82B02103A
:100DD000A42A0210282C0210AF2C02104D2C021055
:100DE0006C2C02108F2C02106C010008D32C021006
:100DF00080010008F8B514000F001D000600FFF781
:100E0000C3FD290002002000FFF7D6FD002805D110
:100E1000AD2206495200064815F090FF2B0039001C
:100E200030002200FFF746FEF8BDC046EB2A021054
:100E3000FC2C0210F7B507000C0016001D1E3AD05E
:100E4000FFF7A2FD290002003000FFF7B5FD0028E2
:100E500005D1702218491948FF3215F06FFF39008B
:100E60001748FFF70DFB0700006805211530FFF755
:100E70007BFD7B1DD97F0C19032C04D9BC220E49A4
:100E800052001048E9E7E4003C19A3689D4207D9E5
:100E90007E220093FF322B0007490B4815F04EFFCE
:100EA0002A00310060681BF0DDFA63685B1963603B
:100EB000A3685D1BA560F7BDF42A0210FC2C02108C
:100EC00080010008C02D0210DB2D0210F7B50700CD
:100ED0000D0001004348FFF7D3FA0600046839000B
:100EE0004048FFF793FA2822002130001BF04CFB0A
:100EF0003D4F3100786A16F0AFFE200023681530B0
:100F00000193237D022B36D0032B4DD0012B60D1D2
:100F1000364B002D08D09D4206D0A0222B0034492C
:100F20003448FF3215F00AFFE668B26800929D422D
:100F300017D10221FFF718FD71682F48FFF766FAF5
:100F40001822002120001BF01FFB2100386A16F038
:100F500083FE7560019B0098002B3FD100F0DAF80A
:100F6000F7BD03220221FFF7E7FC002CF2D000239B
:100F7000E3602375EEE7214BEB187E2B05D8E022CA
:100F80002B0052001A491E48CCE703220521FFF727
:100F9000D3FC80231B069D4201D10123A375E36886
:100FA0001D615B690093E0E7E56819006A680092DB
:100FB0000122FFF7C1FC29680F48FFF727FA182222
:100FC000002120001BF0E0FA2100386A16F044FEF0
:100FD000C0E7EA220649FF320A48A3E717F036FCC9
:100FE000BEE7C046800100086C01000801000080D7
:100FF000FE2A02101B2D021074010008FFFFFF7F64
:10100000552D02108C2D0210010010B50548FFF778
:1010100037FA03681B68002B01D0186810BD012047
:101020004042FBE78001000810B50C0001000348B6
:10103000FFF726FA03689C6010BDC04680010008D7
:10104000054B10B51B68586917F000FC034B1B6873
:10105000186917F0FBFB10BD980100089401000807
:1010600010B518F08FFD10BD10B518F08BFD10BD38
:10107000F0B53C2695B01D4C1D4D1E4B3200002195
:1010800005A80293039404951BF07EFA1A4B3200D4
:1010900005A9200005931BF0E5F9320005A92800F9
:1010A0001BF0E0F902A90C2214481BF0DBF91448EC
:1010B00017F036FA134A06000021012017F08AFBC8
:1010C000114A07000021012017F084FB01900F480E
:1010D0003B0032002900006800F062F80C4B019AD6
:1010E0002100186800F06AF815B0F0BD0C7704080C
:1010F00048770408779A333D0C4A28630077040840
:10110000542E0210442E0210642E02109801000882
:10111000940100081FB504000C22002101A81BF057
:1011200033FA0021034822000B000068029400F00B
:1011300051F81FBD9801000830B585B00190013805
:101140000C00029115000392032806D81FF04CF8FA
:1011500002070B0F1000FFF72BFA05B030BD10008F
:10116000FFF7F2FAF9E71000FFF762FBF5E700225C
:1011700008212000FFF720FC002804D16C2206493A
:10118000064815F0DBFD2800FFF7ACFB2060606827
:10119000FFF7C0FFE1E7C046322E0210282C0210F4
:1011A00010B5054C026104600C1D44600C31043420
:1011B0008460C160436110BDFFD948A2044B026145
:1011C00003600B1D43600C3104338360C1607047C2
:1011D00042658BA6F0B585B00191012101AC0500F7
:1011E00049420069FA276260A360032617F0AEF94E
:1011F0007F00AA6869681368086801338C46334029
:10120000834218D00C2310684343E868C31883CC8A
:1012100083C3136801333340136063461B6812684D
:1012200001333340934201D1FFF71AFF286917F0C9
:10123000A3F905B0F0BD3900686917F0E1FAD8E705
:10124000FA21F0B54900050085B0006917F0D8FA19
:10125000AB686A689C4610681B68984201D105B06B
:10126000F0BD0C211368E8684B4301ACC3182000A3
:10127000C2CBC2C00321136801330B401360634625
:101280001B68126802330B40934201D1FFF7ECFE5A
:1012900007CCFFF751FFDBE710B5041E04D1D422C1
:1012A0001249134815F04AFD124817F039F90B217D
:1012B0002062114A002803D1D9220C490F48F1E7D6
:1012C0004B01D31A6933FF3301391C600029F7D170
:1012D00022610B480B4A17F087FF6060002803D19A
:1012E000E32202490848DDE710BDC0468A2E0210FD
:1012F000AC2E02104C2F02109C010008C72E0210C9
:1013000049150010FC020008072F0210084B5A680C
:10131000904204D01A690121904201D07047002107
:101320000C224A43002199509B1859601972F5E725
:101330005858000870B596B02C2200210BA81BF05D
:1013400023F980200BA98001FFF706FC0B9B022BE1
:1013500011D0032B00D1D4E0012B00D0DBE0FC2125
:10136000180049001AF0C0F9011E41D00C98FFF78F
:101370005BFE00242FE008AC0C22002120001BF0B3
:1013800003F90E9B0C2B00D0B6E0220000210C9834
:10139000FFF730FD0E9B0593984204D0604A6149E7
:1013A000614815F0CBFC20782A38052800D9A6E042
:1013B0001EF01AFF0317314D5187002307A90D981E
:1013C000079304F059FD041E05D10100042307AA68
:1013D0000C98FFF72FFD21000C98FFF777FD16B052
:1013E00070BD129E012031001AF07EF9051E01D158
:1013F0008D2482E0010032000D9804F041FD041EAE
:1014000005D1010033002A000C98FFF713FD2800D6
:101410001AF0EEFCDFE70F9B06AA01210C98FFF7FC
:10142000E9FC042801D0414AB9E7109B07AA022130
:101430000C98FFF7DFFC042801D03D4AAFE7608835
:101440000D9B079A069904F089FE0400C3E70D98E6
:1014500004F0C8FCF9E70F9901201AF045F9051EC0
:10146000C6D00F9B020001210C98FFF7C3FC0F9B15
:101470000593984201D02F4A91E7109901201AF064
:1014800033F9061E03D128001AF0B2FCB0E7109B16
:10149000020002210C98FFF7ADFC109B05939842C7
:1014A00001D0254A7BE7A368618803930F9B0290D4
:1014B00000930196059362682B000D9804F07BFE63
:1014C000C3E70F9901201AF00FF9051E90D0020012
:1014D0000F9B01210C98FFF78DFC0F9A03000592DA
:1014E000904201D0154A5AE7626861880D980092CF
:1014F0002A0004F09AFEA8E7912464426BE7862450
:10150000FBE70D9804F06EFC0D98041E00D162E715
:101510001AF06EFC2DE70A4A02490A4815F00EFC43
:101520003C0500005A3002107A30021067050000B6
:101530006D0500008405000091050000AA0500006B
:10154000C70500009A300210F0B5A3B08020000655
:10155000FFF7EAFA10220890104224D01C32002132
:1015600017A81BF011F817A91020FFF7F5FA179B21
:10157000022B05D0032B01D0012B38D100240EE023
:1015800004F0C0FF041E0AD1C44A1368013313607B
:10159000012B04D101001822C1481AF0F5FF2100E7
:1015A0001898FFF793FC2024089B234200D19CE06D
:1015B0002C22002117A81AF0E7FF17A92000FFF737
:1015C000CBFA179B022B17D0032B00D1E6E0012B9F
:1015D00000D0ECE0B421180049001AF085F8011E93
:1015E00000D1E8E01898FFF71FFD002479E07E2283
:1015F000AC49AD4815F0A2FB0EAC0822002120003A
:101600001AF0C2FF1A9B082B00D0C0E02200002174
:101610001898FFF7EFFB1A9B0993984204D0C82251
:10162000A249A34815F08AFB20781538052800D96F
:10163000B0E01EF0D9FD030A102A7DA86188626817
:10164000199803F0CBFD04004BE06188626819989B
:1016500003F0C9FDF7E71B9901201AF045F8051EB4
:1016600000D199E002001B9B01211898FFF7C2FBF3
:101670001B9B02000993984201D0E522D0E7290084
:10168000199803F0B5FD040028E000241B9B0BAA69
:10169000012118980B94FFF7ADFB1B9B099398420F
:1016A00001D0F522BCE70B9901200C941AF01CF82C
:1016B000051E71D001000CAB0B9A199803F0C8FD00
:1016C000041E0BD101000C9B2A001898FFF7B2FBF7
:1016D00004230CAA01211898FFF7ACFB28001AF08C
:1016E00087FB21001898FFF7F1FB4024089B234259
:1016F00000D190E02C22002117A81AF045FF17A96D
:101700002000FFF729FA179B022B56D0032B00D19C
:10171000AEE1012B00D0B8E1E021180019F0E4FFA0
:10172000011E00D1B5E11898FFF77EFC00246EE0A1
:1017300000230CAA0C9301211B9B1898FFF75AFB5E
:101740001B9B0993984203D11C990C9B994202D090
:101750001222FF3264E7012019F0C6FF051E1BD0DC
:101760001C9B020002211898FFF744FB1C9B099365
:10177000984202D08E22520052E70C9A2900199802
:1017800003F090FD7FE7199803F008FC5BE79124D4
:101790006442A6E78624FBE78D24F9E7199803F055
:1017A000FDFB1998041E9CD01AF022FB1DE79F2216
:1017B0003E4952001DE73F4C93E70EAC0822002142
:1017C00020001AF0E1FE1A9B082B00D04AE122000B
:1017D00000211898FFF70EFB1A9B0993984203D03B
:1017E0006422FF3234491CE720780E38062800D9DD
:1017F0003AE11EF003FD0700350063009400BF00CE
:10180000C4000D016168199802F0DCFE040021009B
:101810001898FFF75BFB8024089B6400234200D1EB
:1018200087E12C22002117A81AF0AEFE17A920008C
:10183000FFF792F9179B022B00D12CE1032B00D16B
:1018400009E2012B00D010E24C21180019F04CFFE6
:10185000011E00D10CE21898FFF7E6FB002664E1B8
:101860001B99012019F040FF051E00D1FEE0020087
:101870001B9B01211898FFF7BDFA1B9B02000993DF
:10188000984202D0BC225200ACE72900199802F01D
:10189000D9FE040028001AF0ABFAB8E77058000827
:1018A00058580008782F02109A300210AC2F0210FE
:1018B0007A30021001000080BE2F021000241B9B12
:1018C0000BAA012118980B94FFF794FA1B9B09931C
:1018D000984201D0882284E70B9901200C9419F0DA
:1018E00003FF051E00D1C1E001000CAB0B9A199853
:1018F00002F0B2FE041E0BD101000C9B2A001898C6
:10190000FFF798FA04230CAA01211898FFF792FA1E
:1019100028001AF06DFA1998FFF7F8FC77E7002312
:101920000CAA0C9301211B9B1898FFF763FA1B9BD1
:101930000993984203D11C990C9B994201D0D22261
:10194000A1E7012019F0D0FE051E00D18EE01C9BFE
:10195000020002211898FFF74DFA1C9B0993984248
:1019600001D0B0223DE70C9A2900199803F0C8FA7B
:101970000400CDE7199802F0D5FD0400CBE7002460
:10198000012618980C94FFF73FFBC74A0C942300DC
:10199000250011001400B446199F022B08D1002322
:1019A000012519000C93022B1CD1892464422EE7D7
:1019B0000E68B04212D14E68B7420FD1002D00D050
:1019C0000C930C214B43D218137A01331372042366
:1019D0000CAA00211898FFF72DFAA7E601330C3165
:1019E0006546DAE71668002E0ED15668002E0BD138
:1019F000002900D00C930C225343E050E418237AC2
:101A0000676001332372E2E701330C322900CAE731
:101A10001B9B0CAA01211898FFF7ECF91B9B09935B
:101A2000984201D0E7222EE70C9C1898FFF7ECFAB9
:101A3000012CBAD80C2565439B4FEB599842B4D181
:101A40007E1970680028B0D0199903F079FA337ABA
:101A50000400013BDBB23372002B00D0D7E6EB5120
:101A60007360D4E69124A1E786249FE78D249DE747
:101A7000199802F057FD1998041E00D1C7E6FFF728
:101A800045FC19981AF0B4F950E6EE228749FF3266
:101A9000AFE5874CBBE60CAC0822002120001AF011
:101AA00073FD1A9B9126082B00D08FE022000021A5
:101AB0001898FFF79FF91A9B0993984202D07D4A24
:101AC0007D49AEE520781B38062800D9C1E01EF01C
:101AD0008BFB040B11495F9DBC00618862681998FB
:101AE00003F08AFF060020E061886268199803F01D
:101AF00088FFF7E700211E9C10220EA80B911AF018
:101B000043FD0BAB22000EA9199803F0A1FF061E9E
:101B10000BD101000B9B0EAA1898FFF78BF9042339
:101B20000BAA01211898FFF785F931001898FFF7E3
:101B3000CDF98024089B234200D1E4E02C2200212F
:101B400017A81AF021FD17A92000FFF705F8179B29
:101B5000022B00D18EE0032B02D0012B00D094E1A8
:101B60000024CCE01B9C102200210EA81AF00CFDD2
:101B700023000EAA01211898FFF73CF9844201D0F6
:101B80004E4A9DE722000EA9199803F03FFFA9E7EE
:101B900000231B9E012031001E9F0E9319F0A4FD0F
:101BA000041E12D00200330001211898FFF722F919
:101BB000864201D0424A83E73900012019F094FDA2
:101BC000051E05D120001AF013F98D267642ACE7E8
:101BD0000EAB01933200030000972100199803F027
:101BE00065FF061E0BD101000E9B2A001898FFF717
:101BF00021F904230EAA01211898FFF71BF92000F0
:101C00001AF0F6F828001AF0F3F88EE700231E9D6C
:101C1000012029000E9319F067FD041ED5D00100A4
:101C20000EAB2A00199803F071FF061E0BD10100BC
:101C30000E9B22001898FFF7FDF804230EAA01213D
:101C40001898FFF7F7F82000DDE7199803F006FE73
:101C500048E78626BAE7199803F000FE1998061E91
:101C600000D162E71AF0C4F8F8E5164A1249C0E458
:101C70000F4E5AE71A9B91240993102B00D08FE046
:101C80000EAC1022002120001AF07EFC102322004E
:101C900000211898FFF7AEF81A9B0993984213D0C9
:101CA0008322920055E0C04658580008BE2F02100B
:101CB000010000803B030000FD2F021062030000C2
:101CC00079030000BE03000020782438032800D9DF
:101CD000D9E01EF089FA025E949400231E99012037
:101CE0000C9319F001FD051E59D01B99012019F024
:101CF000FBFC041E21D128001AF07AF88D3C21004B
:101D00001898FFF7E3F88024089BA400234200D131
:101D10002DE12C22002117A81AF036FC17A920006B
:101D2000FEF71AFF179B022B00D1B2E0032B02D063
:101D3000012B00D042E1002415E102001B9B012190
:101D40001898FFF757F81B9A03000992904202D0A7
:101D5000C24AC34965E41E9A0EA90CAE488809928E
:101D600001920296220000950F9903F0CDFA041E0D
:101D700005D101000C9B2A001898FFF75BF804239B
:101D8000320001211898FFF755F828001AF030F8B2
:101D9000B5E71B99012019F0A7FC061E02D18D247E
:101DA0006442ACE71B9B020001211898FFF722F860
:101DB0001B9B0993984201D0AA4ACAE71C990120AB
:101DC00019F092FC051EEAD002001C9B0221189813
:101DD000FFF710F81C9A03000992904201D0A24A22
:101DE000B7E71B9A608801920096099261682A0001
:101DF00003F090FB0400300019F0FAFFC5E7002360
:101E00001B9901200C9319F06FFC051EC7D01B9B7A
:101E1000020001211898FEF7EDFF1B9B09939842E1
:101E200001D09C223DE7A3681E990120EF1819F00C
:101E30005BFC061E03D1280019F0DAFFAFE71E9BFA
:101E40000CAA21786088049203930296E3680097B5
:101E50000193A3682A00262911D1616803F016FCBA
:101E6000041E05D101000C9B32001898FEF7E2FF1A
:101E700004230CAA01211898FEF7DCFFBBE7616878
:101E800003F07EFCECE786248AE7784A7449FFF782
:101E9000B0FB1A9D9124242D37D10EAC2A000021CD
:101EA00020001AF071FB2B00220000211898FEF789
:101EB000A1FF1A9B0993984203D06D4A6D49FFF721
:101EC000B0FB2378223B012B76D800231B990120FD
:101ED0000C9319F009FC051E16D01B9B0200012172
:101EE0001898FEF787FF1B9B0993984201D0624A1E
:101EF000E4E7E3681E990120EF1819F0F5FB061ED0
:101F000005D1280019F074FF8D2464422BE023785A
:101F10001E9A9C4623890CA9099363466088069102
:101F200005920496222B3BD1236902970393E36821
:101F30000095019313AA099B616803F063FE041ED8
:101F40000BD101000C9B32001898FEF773FF04239D
:101F50000CAA01211898FEF76DFF280019F048FF20
:101F6000300019F045FF21001898FEF7AFFF8024DC
:101F7000089BE400234200D101E12C22002117A894
:101F80001AF002FB17A92000FEF7E6FD179B022BB3
:101F900019D0032B02D0012B00D08AE10024EAE003
:101FA000236902970393E3680095019313AA099BA1
:101FB000616803F099FEC2E78624A6E7C5222D4991
:101FC0009200FFF716FB1A9B91240993102B00D067
:101FD0006BE10EAD1022002128001AF0D5FA102373
:101FE0002A0000211898FEF705FF1A9B09939842D2
:101FF00004D0F82292002149FFF713FB287B023816
:10200000272800D950E11EF0F9F85D000E011601F5
:1020100037014B0177007B009700D4004600570042
:102020003B004F014F014F014F014F014F014F0145
:102030004F014F014F014F014F014F014F014F0120
:102040004F014F014F014F014F014F014F014F0110
:102050004F014F014F014F01E200C0462502000031
:10206000D12F02104602000052020000A702000019
:10207000C6020000EA2F0210DA020000153002103A
:1020800028880CA91E9E03F0B1FD041E73D13300F5
:102090000CAA21004CE01B9C0CAA230001211898DB
:1020A000FEF7A8FE844201D0C54AA4E728880CA9FF
:1020B00003F076FD04005EE028880CA91E9E03F064
:1020C00085FDE2E71B9C0120210019F00DFB061E97
:1020D00000D1ECE00200230001211898FEF78AFEEF
:1020E000844201D0B74A86E7288823003200A968D5
:1020F00002F08AF904003BE0288802F0B0F9D9E741
:1021000028880CAA0BA902F0C0F9041E33D11E9B2B
:102110000993032B05D9010004230BAA1898FEF795
:1021200089FE1F9B0993032B25D9042301210CAAA7
:102130001898FEF77FFE1EE01E9C0120210019F07A
:10214000D3FA061E00D1B2E028880CAB2200310081
:1021500002F0BCF9041E05D101000C9B3200189856
:10216000FEF768FE04230CAA01211898FEF762FE10
:10217000300019F03DFE21001898FEF7A7FE8024DC
:10218000089B2401234200D1B0E02C22002117A893
:102190001AF0FAF917A92000FEF7DEFC179B022BB4
:1021A00000D18AE0032B02D0012B00D0D5E000241F
:1021B00098E01E9C0120210019F096FA061E76D0A8
:1021C00028880CAB2200310002F095F9C2E71B9E73
:1021D0000CAA3300012118981C9CFEF70BFE8642C6
:1021E00002D08D22D20006E7774B109A00269A4241
:1021F00011D1B4420FD02100012019F075FA061E4A
:1022000055D00200230002211898FEF7F3FD844206
:1022100001D06E4AEFE62888009433000C9AA96832
:1022200004F070F866E7280004F04EFA041EA2D10C
:1022300002232A002DE700230BAA0B930C93012104
:102240001B9B1898FEF7D6FD1B9B0993984201D063
:102250005F4AD0E61C9B0CAA02211898FEF7CAFD23
:102260001C9B0993984201D05A4AC4E62A000B9954
:10227000686804F04CFAD9E700230CAA0C930121FA
:102280001B9B1898FEF7B6FD1B9B0993984201D043
:10229000514AB0E62A000C99686804F01BFAC5E7B9
:1022A000288804F05BFA05E78624644263E78D24FE
:1022B000FBE74A4A4A49FFF79CF91E9E012031007C
:1022C00019F012FA051E4CD0310003F0D7FF041E9E
:1022D00005D1010033002A001898FEF7ABFD280055
:1022E00019F086FD21001898FEF7F0FD8024089B68
:1022F0006401234213D02C22002117A81AF044F9BC
:1023000017A92000FEF728FC179B022B2CD0032BCB
:1023100001D0012B38D100211898FEF7D7FD089B7A
:102320009B0401D5FFF706F88024089BE4012342B3
:1023300001D1FFF70BF92C22002117A81AF024F97C
:1023400017A92000FEF708FC179B022B20D0032BB7
:1023500001D0012B62D100245AE0224A2249FFF722
:1023600048F98D246442BDE7204A1368002B01DD43
:10237000013B136011680029CDD118221C481AF0C6
:1023800003F904F0A3F8C6E7A3221A49FFF731F9CD
:1023900080231A9CDB009C4244D82100012019F0C4
:1023A000A3F9051E41D00200230000211898FEF772
:1023B00021FD844224D0104A1049FFF732F9C0466B
:1023C000F90300001604000000000170750400000D
:1023D0008F04000093040000A2040000BB0400006E
:1023E0001530021014050000483002107058000823
:1023F00058580008922F0210E104000032300210F9
:102400002100280003F052FF0400280019F0F0FC1E
:1024100021001898FEF75AFDFFF798F8044A05497D
:10242000FFF7E7F887246442F2E78D24FBE7C04614
:10243000ED0400003230021080235B0103600020B5
:1024400070470000802310B55B01984202D100F074
:1024500087FB10BD0048FCE7E803008010B5041EB0
:1024600004D165220F49104814F068FC0F4816F09B
:1024700057F8206200280FD00D4B0E4A9C629C60DA
:10248000236100210C4816F0AFFE6060002807D1E0
:10249000742204490948E7E76A2202490848E3E749
:1024A00010BDC046BD300210AC2E021050310210DB
:1024B0002003000860030008492500100E310210B7
:1024C000D0300210C36807B5042B02D0802000066C
:1024D0000EBD01AA00214068FEF78CFC0428F5D14E
:1024E0000198FFF7AFFFF3E773B5C6690500042E47
:1024F0000CD101A8FFF7A0FF041E05D10100330095
:1025000001AA6868FEF796FC200076BD80242406A8
:10251000FAE70000036810B50400022B05D0032B76
:1025200001D0012B07D1002101E08847010060683C
:10253000FEF7CCFC10BD44220149024814F0FEFB1A
:10254000783102109A300210F0B58DB02C220021A3
:1025500001A880271AF018F820243F06102638001A
:10256000FEF7E2FA0500304207D001A93000FEF77D
:10257000F3FA074901A8FFF7CDFF2542EFD001A9E3
:102580002000FEF7E9FA034901A8FFF7C3FFE5E7DA
:10259000E9240010C5240010184B984223D010DC09
:1025A000174B984223D004DC164B984221D0842349
:1025B00012E0154B984218D0144B9842F7D18E2355
:1025C0000AE0134B984209DC124B984213DA124B83
:1025D000C01892230128EAD85B4202E00023984207
:1025E000E5D1180070478523F6E78C23F4E798239C
:1025F000F2E78723F0E79523EEE7C0461201FF805C
:102600000201FF800101FF800701FF800B01FF80B5
:102610004601FF804501FF80E5FE007FF0B53F24C5
:102620000021A446059D0F4E67462F40F75D4C1CC8
:10263000E4B24754AD0913D1233502310555C9B26F
:102640001C3517002F40F75D4C1C47549209990622
:102650000A43E1B214009B091C43F2D14454F0BD7B
:102660002100E1E788310210F0B51E00002389B097
:1026700003920693026807930193059305AB0093B9
:102680009769082306AA04000D00B847002810D156
:10269000059B07001748082B10D1039A0699136869
:1026A000994204D80CD107995368994208D9124825
:1026B00004E0124B01279842EFD0114814F03EFB82
:1026C000994213D206A92000B04700280CD100225D
:1026D000236800925E6903AA042329002000B04702
:1026E000002805D00748E9E70748E7E7002FEED1C3
:1026F00009B0F0BDC8310210143202100701FF808A
:10270000EC3102106032021043320210F0B51F00AB
:10271000012389B00D00109904001600994316D1C9
:10272000132203A819F030FF009532003B0003A8E4
:10273000FFF774FF109A236800925D690F9A0E9B51
:1027400003A92000A847FFF727FF09B0F0BD8620A6
:102750004042FAE7F0B50D0016001F0004008BB0F0
:102760000021132205A819F00FFF32003B0005A835
:102770000095FFF753FF236803AADB6905A9200032
:10278000984700281CD1039A109B9A421BD3119999
:102790005B18994217D89A4215D3109A2368019270
:1027A00002AA009202909D69129A0B00200005A9CE
:1027B000A847002804D1119B029A934200D9873878
:1027C000FFF7EAFE01E0872040420BB0F0BDF0B514
:1027D0001F00160005008DB003911322002107A8E9
:1027E000129C19F0D1FE039B3200009307A83B0016
:1027F000FFF714FF2B6805AADB6907A92800984793
:10280000002807D10123069A60601A4200D0636055
:10281000059B2360FFF7C0FE0DB0F0BDF0B50D00C5
:1028200016001F00040089B00021132203A819F02C
:10283000ABFE32003B0003A80095FFF7EFFE2368D4
:1028400003A91B6A20009847FFF7A6FE09B0F0BD58
:1028500010B503681B699847FFF79EFE10BD002066
:102860007047000070B50B4C2378BFF35B8F0A4DA7
:10287000DB070CD4200014F037FB002807D0200021
:1028800014F04AFB054A0649280014F021FB2800F1
:1028900070BDC046D85C0008E05C0008C0000008BD
:1028A000A94D011037B5FFF7DDFF6A46094B22CB72
:1028B00022C2094912F07EFA084B1860002802D1A2
:1028C000074814F03BFA074B6A460749FFF7CCFE6E
:1028D00037BDC046843202108C320210305D0008D1
:1028E000A93202105F280010CA320210F0B50C4C59
:1028F0001F00236885B005001600002B01D1FFF7EB
:10290000D1FF0C9B320002930B9B290001930A9B81
:10291000009320683B00FFF7F9FE05B0F0BDC0460C
:10292000305D0008F0B50C4C1F00236885B0050031
:102930001600002B01D1FFF7B5FF0C9B320002936C
:102940000B9B290001930A9B009320683B00FFF733
:1029500001FF05B0F0BDC046305D0008F7B5094C79
:102960001F00236805001600002B01D1FFF79AFF16
:10297000089B3200009329003B002068FFF727FFE7
:10298000FEBDC046305D0008F8B5084C1F00236846
:1029900005001600002B01D1FFF784FF32003B0039
:1029A00029002068FFF73AFFF8BDC046305D0008F7
:1029B00010B5094C2368002B0AD1FFF753FF0749D4
:1029C00012F0F8F92060002802D1054814F0B6F999
:1029D0002068FFF73DFF10BD305D00088C3202100B
:1029E000A932021030B58BB002900391002B01D1B7
:1029F000002A22D102A90491069308210EAB089364
:102A0000042305910F48073907920993FDF76AFEE1
:102A1000051E15DD00230322009304A9FDF7CEFE59
:102A2000802304001B06984201D1922464422800AE
:102A3000FDF726FF20000BB030BD87246442F9E784
:102A40009224FBE7011A010030B58DB00392109A71
:102A500004900591002A01D1002B24D104A90891EA
:102A60000821099103A90A918D20042140020B91AC
:102A7000033906920793FDF735FE051E16DD012387
:102A80000222009308A906ABFDF798FE80230400FC
:102A90001B06984201D1922464422800FDF7F0FE03
:102AA00020000DB030BD87246442F9E79224FBE793
:102AB000F0B58BB002900391161E24D0002304932E
:102AC000059302AB0693082304AC01211048079339
:102AD00008940993FDF706FE071E17DD012208ABD7
:102AE000009206A9FDF76AFE0CCC0CC680230500F7
:102AF0001B06984201D192256D423800FDF7C0FEB9
:102B000028000BB0F0BD87256D42F9E79225FBE761
:102B1000021A010030B587B002AB0493082302907B
:102B2000039101210D480593FDF7DCFD051E12DD23
:102B300000230122009304A9FDF740FE8023040036
:102B40001B06984201D1922464422800FDF798FEAA
:102B5000200007B030BD92246442F9E7031A010057
:102B600037B501210C48FDF7BDFD051E11DD002123
:102B70000B0000910A00FDF721FE802304001B06D4
:102B8000984201D1922464422800FDF779FE20008A
:102B90003EBD92246442FAE7041A010010B5041EF7
:102BA00004D184221149124814F0C8F8114815F0D4
:102BB000B7FC2062002814D00F4B00211A00883285
:102BC00014609C629C649C669C6023610B4A0C4868
:102BD00016F00AFB6060002807D1932203490948D8
:102BE000E2E7892201490848DEE710BDDA32021027
:102BF000AC2E02105C330210840300082404000889
:102C0000092E00101C330210E332021010B5FFF73A
:102C1000CFFE10BD0023002213B500920193C368BC
:102C20000400082B02D08020000616BD6A46002151
:102C30004068FEF7DFF80828F5D16068FEF7E4F990
:102C4000009A019BFFF7A0FEEFE770B586B004AED7
:102C5000040008220021300019F096FC0023002215
:102C600002920393E368082B04D080252D062800E8
:102C700006B070BDE369082BF7D102AA0021606895
:102C8000FEF7B8F80828F0D16068FEF7BDF9029A9F
:102C9000039B0096FFF762FE051EE8D10100E36981
:102CA00032006068FEF7C6F8E1E700230022002149
:102CB00070B588B006920793C36804000591082B8D
:102CC00004D080252D06280008B070BD0569042DAC
:102CD000F7D106AA4068FEF78DF80828F1D12B003D
:102CE00005AA01216068FEF785F80428E9D1E069AA
:102CF00019F074F8061E1CD06068FEF785F9E369C8
:102D000002960193059B0093069A079BFFF70AFE24
:102D1000051E05D10100E36932006068FEF78AF8FC
:102D2000E2690021300019F02FFC300019F060F842
:102D3000C9E792256D42C6E700230022F0B50026C0
:102D400089B006920793C368040007690596082BAB
:102D500004D080242406200009B0F0BD4569042D6C
:102D6000F7D106AA31004068FEF744F80828F0D1F0
:102D70002B0005AA02216068FEF73CF80428E8D180
:102D8000380019F02BF8051E0BD023690200012131
:102D90006068FEF72FF82369984205D0280019F0E3
:102DA00027F892246442D6E76068FEF72DF9059B68
:102DB000019502930097069A079BFFF797FD3A004B
:102DC00004003100280019F0DFFB280019F010F88A
:102DD000C1E70000036810B50400022B05D0032BE7
:102DE00001D0012B07D1002101E088470100606874
:102DF000FEF76CF810BD9D220149024813F09EFFBA
:102E00007A3302109A30021070B58CB02C22002157
:102E100001A8802619F0B8FB202536063000FDF702
:102E200083FE040011F0A6FE031E04D0B1221C494B
:102E30001C4813F083FF2C4207D001A92800FDF79E
:102E40008BFE194901A8FFF7C5FF1020044206D0E8
:102E500001A9FDF781FE154901A8FFF7BBFF40203E
:102E6000044206D001A9FDF777FE114901A8FFF73A
:102E7000B1FF8020044206D001A9FDF76DFE0D4987
:102E800001A8FFF7A7FF802040000442C6D001A997
:102E9000FDF762FE084901A8FFF79CFFBEE7C046A8
:102EA0008A33021095330210392D0010AB2C00101C
:102EB0004B2C0010152C00100D2C0010002070471A
:102EC00000207047012000217047C1698069704768
:102ED00000487047C6330210F0B5431C87B0059315
:102EE000DB7F0500002B00D143622E002436012138
:102EF000300013F09BFE00230490019301280AD1B7
:102F00002F1D380000F0DEF90190002806D004994A
:102F1000300013F0A4FE019807B0F0BD29696A697A
:102F2000AB69EC695B18544138000293039400F0DC
:102F30009FF90400380000F097F9039B2418002B38
:102F400002D1029BA34206D90121300013F087FE73
:102F5000194B0193DFE76B69380002932C6900F08D
:102F600083F9019B029A934201D1A042ECD82C69CB
:102F70006B691C4304D1380000F076F96C6128615C
:102F8000AC69EB691C4312D1380000F071F90600FE
:102F9000380000F069F92700320023000600286994
:102FA000696992197B41121A8B41AA61EB61012375
:102FB000059AD377AFE7C0465FF0FFFF421C0300DE
:102FC000002010B5D27F824202D0181D00F044F9D3
:102FD000002110BD10B5431CDB7F002B03D0043053
:102FE00000F04AF910BD01204042FBE770B5451CD6
:102FF0000400E87F002801D1606270BD200001213B
:10300000243013F02CFE030000208342F5D1E87732
:10301000201D00F075F9F0E710B50400044B0833EB
:103020000360FFF7E3FF201D00F015F9200010BD3D
:10303000D033021010B50400FFF7EEFF200014F0AB
:103040009BF8200010BD421C0300002010B5D27F69
:10305000824203D0181D196900F002F9002110BD49
:10306000411C0300002010B5C97F814204D01969BA
:10307000181D891800F0F4F8002110BDF7B51F00E5
:10308000431CDB7F04000D001600002B33D00368C7
:103090009B6A984702000B00300039001DF0A2FA2D
:1030A0001A4328D1236820009B6A984702000B002E
:1030B000089809991DF096FA1A431CD1089A099BA1
:1030C00092197B4100920193236820009B6B9847E3
:1030D000019B8B420FD802D1009B83420BD82269FF
:1030E000636992197B411100201D0A00089B290089
:1030F00000F03EF9FEBD0148FCE7C0465FF0FFFF6F
:10310000D3B51F00431CDB7F04001600002B39D011
:103110000368196B3B00884702000B003000390040
:103120001DF060FA1A432DD1069A079B92197B4134
:10313000009201930098019901225242D31712186C
:103140004B4121682000096B884702000B00009862
:1031500001991DF047FA1A4314D1236820009B6B94
:103160009847019B8B420DD802D1009B834209D81E
:1031700022696369B6185F41201D069A310000F08C
:103180007BF9D6BD0048FCE75FF0FFFFF7B51F00F5
:10319000431CDB7F04000D001600002B33D00368B6
:1031A0005B6A984702000B00300039001DF01AFAE4
:1031B0001A4328D1236820005B6A984702000B005D
:1031C000089809991DF00EFA1A431CD1089A099B18
:1031D00092197B4100920193236820009B6B9847D2
:1031E000019B8B420FD802D1009B83420BD82269EE
:1031F000636992197B411100201D0A00089B290078
:1032000000F09AF8FEBD0148FCE7C0465FF0FFFF02
:103210000E4B73B50833040008C015000E0000F013
:1032200019F80023621C26616361A561E361D3770D
:103230006362721C01D09D4206D1009300230448B2
:103240001A00190013F094FD200076BDD03302104F
:103250000101FF807047704710B517F023FE10BDC5
:1032600010B517F013FE10BD10B517F01EFE10BDFF
:1032700010B517F01DFE10BD10B517F01CFE10BDE7
:1032800070B505000468002C17D10D4E3068002879
:1032900003D00121494215F059F92C68002C07D1BF
:1032A0002C000834002C02D0200013F0F5FF2C6015
:1032B0003068002801D015F05FF9200070BDC046CD
:1032C0000877000870B505000C4E3000FFF7D8FFF6
:1032D00013F0EAFF280017F0C3FD0400280017F0E0
:1032E000E1FD13F035FF68603000FFF7C9FF13F010
:1032F000F1FF601E8441604270BDC04698610008C5
:1033000070B506000B4D2800FFF7BAFF13F0CCFF95
:10331000300017F0A7FD441EA04144427068002809
:1033200001D013F02DFF2800FFF7AAFF13F0D2FF02
:10333000200070BD98610008F7B50F001600050069
:103340000A4C01932000FFF79BFF13F0ADFF3A00FA
:103350003100019B280013F01BF905002000FFF746
:103360008FFF13F0B7FF2800FEBDC046986100082C
:10337000F0B587B0029100920193060017F092FD1C
:103380000500300017F094FD0390300017F08DFD1C
:103390002900070000981CF0C1FF0C1E02D1029BFF
:1033A000002B02D10124644261E0009A019B9B182A
:1033B000039AD2199342F5D82E48FFF761FF13F014
:1033C00073FF019B002B4DD0002C4BD10099300096
:1033D00017F05CFD0400010000981CF09FFF019BAA
:1033E000601A984200D918000322029B134201D1AF
:1033F00085422ED92F00854200D907003A00029954
:10340000706819F02FF8AF4205D27368EA1BD8191B
:10341000FF2119F0B9F873680395059310230493FD
:10342000039B059A0099300017F026FD041E06D074
:10343000049B013B0493002BF2D101246442019BC5
:10344000DB1B0193009BDB190093029BDB190293AA
:10345000B7E729001CF0DCFE6843029B03900700DD
:103460000593DBE70348FFF70BFF13F033FF200062
:1034700007B0F0BD98610008F7B50D001700060011
:1034800017F016FD0400300017F00FFD2018EC199E
:10349000A04202D201204042FEBDA0421FD81948DE
:1034A000FFF7EEFE13F000FF0024002F22D0002CC7
:1034B00020D1102301932900300017F0D5FC041E01
:1034C00006D0019B013B0193002BF4D101246442FF
:1034D0002900300017F0DAFC3F1A2D18E5E721002B
:1034E000300017F0D3FC010020001CF017FF00296A
:1034F000D0D1D4E70348FFF7C3FE13F0EBFE200062
:10350000CAE7C0469861000816204042704710B5CF
:1035100003681B69984710BD10B503689B699847FD
:1035200010BD10B503689B6A984710BD002081420A
:1035300000D11938704701207047704710B50368F3
:1035400001221B690021984710BD002210B50368B5
:1035500011001B69984710BD030000B57F3304DAE2
:10356000FF234042DB011840404203006C3300D18E
:103570000DE203006C3300DDB9E0964B984200D1B8
:1035800009E25FDC944B984241D030DC934B984287
:1035900000D100E216DC924B984200D1F9E10ADC3E
:1035A000904B984200D1DFE097238F4A5B429042D4
:1035B00036D1180000BD8D4B984200D1DFE18C4A16
:1035C0009623F3E78B4B984200D1CDE008DC8A4B81
:1035D00098421CD0894B984222D186235B42E8E76F
:1035E000874B984200D1CCE1864A8D23DEE7864B9B
:1035F000984200D1CFE115DC844B984200D1C6E15E
:1036000007DC834B9842E8D0824B984208D187234D
:10361000E4E7814B9842E0D0804B984200D1B8E17A
:103620008423DBE77E4B984200D19DE004DC7D4B98
:103630009842ECD07C4BF0E77C4B984200D193E071
:103640007B4BC8E77B4B984200D19AE127DC7A4B51
:10365000984200D188E012DC784B984200D194E186
:1036600006DC774B984200D191E1764A95239DE79D
:10367000754B984200D188E1744A872396E7744BD2
:10368000984200D187E105DC724B984200D17AE183
:10369000714AF2E7714B9842B9D0714BB5E7714B63
:1036A0009842B4D010DC704B984296D004DC6F4B3B
:1036B0009842ACD06E4BA8E76E4B984202D06E4B4E
:1036C0009842ADD1852389E76C4B984200D184E7BD
:1036D00005DC6B4B984200D17FE76A4B7BE76A4B76
:1036E000984241D003007A333ED0684B95E70300FF
:1036F000273339D00300273300DDC9E00300383316
:1037000000D16AE70300383330DC0300603300D1B6
:103710007DE70300603316DC0300663300D176E7F3
:103720000300663307DC03006A3300D133E16830FD
:1037300000D16CE774E70300643300D167E76230BF
:1037400000D164E76CE703003C3307DC03003D3342
:1037500002DA403000D063E794233FE703003A33B6
:10376000FAD0393000D05BE7932337E703003233D8
:1037700000D132E70300323315DC03003533F3D0D8
:103780000300353306DC03003733EDD0363000D18B
:1037900023E745E703003433DED093235B42333025
:1037A00000D106E73CE703002D33DDD003002D33C5
:1037B00005DC03003133D7D02F30D5D030E70300FC
:1037C0002933D1D00300293300DD20E72B30CBD0C3
:1037D00026E7C04680BBFFFF00AFFFFF809EFFFFD4
:1037E000009DFFFF009CFFFF809CFFFF809DFFFF6F
:1037F000009EFFFF80ADFFFF009FFFFF809FFFFF48
:1038000000AEFFFF80AEFFFF80B2FFFF00B1FFFF01
:1038100080AFFFFF80B0FFFF80B1FFFF00B2FFFF6E
:1038200080B4FFFF80B3FFFF00B4FFFF80BAFFFF4B
:1038300000BBFFFF00C2FFFF80BEFFFF00BDFFFF18
:1038400000BCFFFF80BCFFFF80BDFFFF00BEFFFF8D
:1038500080C0FFFF00BFFFFF80BFFFFF00C1FFFF71
:1038600080C1FFFF00C5FFFF80C3FFFF80C2FFFFD5
:1038700000C3FFFF00C4FFFF80C4FFFF80C6FFFF3F
:1038800080C5FFFF00C6FFFF80C7FFFF00C7FFFF27
:10389000030012337DD00300123336DC03001933EA
:1038A00000D161E70300193314DC030022330DDC7F
:1038B0000300243300DB90E60300263300D18CE6BE
:1038C00093235B42253000D173E6A9E6203000D176
:1038D00083E6A5E60300163300D17EE60300163327
:1038E00009DC0300183300D177E693235B421730DD
:1038F00000D15EE694E60300143300D187E69323FB
:103900005B42133000D154E68AE603000C3300D149
:103910007DE603000C3319DC03000F3339D00300BC
:103920000F3309DC0300113300D11DE78D235B4207
:10393000103000D13DE673E603000E3300D166E699
:1039400087235B420D3000D133E669E6831D00D149
:103950005DE6831D09DC03000A3300D157E68A23A4
:103960005B42083000D124E65AE6831C09D00023CC
:10397000984200D11DE6031D00D051E647E6892399
:103980002CE692232AE6962328E6972326E68A2326
:1039900024E6952322E68D2320E6C046F7B5802451
:1039A00017006404DBB2394A23439A1806000191D8
:1039B0001024022A2DD9364A04349A18012A28D90B
:1039C000344A0834934224D0334A0434934220D0FA
:1039D000324A103493421CD0314A1034934218D0EA
:1039E000304A243C934214D02F4A0434934210D0DE
:1039F0002E4A043C93420CD02D4A0434934208D002
:103A00002C4A1034934204D02B4A9B185C425C41F0
:103A1000A401099B0B9A390001209D1817F064FE40
:103A20003060002802D18D2040422BE077603A00C0
:103A3000019918F017FD099BAB4224D86519AC42D7
:103A400021D82900012017F04FFEB0600028EAD0ED
:103A50000B9BF560002B04D000191A000A9918F08E
:103A600001FD099B002B07D00B9B099AE018B36856
:103A70000899181818F0F6FC33000020513350361E
:103A800018703470FEBD8720CEE7C046FFFFFFFEF2
:103A9000FCFFFFFE08000001090000010A00000110
:103AA0000B0000010C0000010D00000110000001DE
:103AB0001100000112000001EDFFFFFE002313B50D
:103AC0000C000B6001A9019302F088FD002804D1CD
:103AD000019B1A68002A01D1236016BD992040423B
:103AE000FBE7F0B5C9B004900F0015000593802ADC
:103AF0002BD81620002102AB07ACC01821706270D1
:103B000018F042FD2378AE1CA35562786319281D76
:103B1000DA7039002A00201818F0A4FC519B21000B
:103B20000393509B720002934F9B049801934E9B0A
:103B30000093059BFFF732FF82210500490020001A
:103B40000CF02AFD280049B0F0BD87256D42F9E749
:103B500070B51500FE22D20504000240C020C0044A
:103B6000824201D12B4A1440FA228020D205224001
:103B7000C00482422CD1284A944218D00AD8274A3D
:103B8000944205D0264A94422BD0264A94420CD126
:103B900002220DE0244A944216D013D3234A9442C1
:103BA00014D023480622844202D0002024E00522BB
:103BB00020480918002003291ED808001CF014FB17
:103BC000271D15250322F3E70422F1E70822EFE77A
:103BD000194A944207D0194A002094420CD1062277
:103BE000E6E70722E4E70122E2E70520002B00D008
:103BF0001870290006F0E6FB70BD0320402DF5D0BB
:103C00000130802DF2D14035F0E70720EEE70220A9
:103C1000ECE7C046FFC0FFFF0100C00401016004E3
:103C200001008004000160040300C00401000006DC
:103C300002000006FFFFFFBF0200C0020300C00237
:103C4000CC235B00C358084A10B5934203D0074AFF
:103C5000934204D010BD083006F03DF8FAE7083072
:103C60000BF06DF8F6E7C0460110000602100006E2
:103C7000F0B51C00002385B00D000B6003A91600F1
:103C8000039302F0ABFC002838D1039A1368002B91
:103C900036D0E021C9050B40C021C9058B4201D1B6
:103CA00001239E43536833409E422CD1002C24D0E4
:103CB00093689C4221D026001449154F0E40019173
:103CC000BE4204D0134E144926408E421BD10199A6
:103CD0001940B94204D00F490F4E1940B14212D1D8
:103CE000FF261F0037400ED08021490439430B4F77
:103CF000B94208D15C40B44305D12A6005B0F0BD9B
:103D00009A204042FAE78520FBE7C04600FFFEFF0D
:103D10000000021000FFFCFF00000410FF00000183
:103D20001A4B70B5150098421ED005D8184B984212
:103D300020D0862149421BE0A223DB05984203D014
:103D4000A423DB059842F4D107240C401BD1073192
:103D5000C9086960012017F0C7FC2100286000280D
:103D600006D16C608D3903E00029EDD151601160FE
:103D7000080070BD40230A009A43802AE4D08023C3
:103D80005B009942E0D08721D4E7C0460100005093
:103D900001000040C021036802008020C90510B561
:103DA0001940C005814202D1D069C00010BD094947
:103DB00009481940814203D190690DF005F9F4E7F3
:103DC000064900200B4006498B42EFD19369986D5C
:103DD000ECE7C046FFFFFFEF000001600000FFEFCF
:103DE00000000360F0B51F0014000023C02287B05C
:103DF0000D000C993B6006000368D205002904D031
:103E000019001140914200D09AE080211A40C90562
:103E10008A4215D1F269A24202D98A26764231E05D
:103E2000002C09D0B169280018F01CFBF0690021B2
:103E3000221A281818F0A8FBF3693B60002621E03D
:103E400040491A0C12048A421FD10C9A002A1CD134
:103E50003000FFF79FFF0730C30801939C42DCD37B
:103E6000B0691A0029007C3004F0D6FBFFF774FB20
:103E7000061E07D1019B0C99E21AE81818F084FB82
:103E8000019B3B60300007B0F0BD2F4A2F491A401C
:103E90008A4206D02E4A13402E4A934228D08626C4
:103EA000BCE704A80BF031FB2B4B0493B3690593DB
:103EB0000C9B002B07D1E0223368D2051340C022AF
:103EC000D205934219D12B1904AA290003A8039300
:103ED0000CF0B4F9061E16DA002C04D022000021E2
:103EE000280018F051FB3000FFF736FB0600C9E749
:103EF00004A80BF00AFB194BD7E72200290004A8FD
:103F00000CF0FEF9E6E743009C420DD3241A2C196D
:103F100002002100280018F0A5FA3200002120003C
:103F200018F032FB3E6089E78442FBD9241A020074
:103F30002919280018F0D8FAA81922000021EFE763
:103F400087266BE700000370FFFFFFEF00000160B2
:103F50000000FFEF00000360F86C0210986C021084
:103F600070B5002503680400AB4209D0C02280214F
:103F7000D2051A40C9058A4204D1A06917F038FF5A
:103F8000280070BD0A4A0B491A408A4203D1806951
:103F90000EF02EF8F1E7084A1340084A934203D185
:103FA000806908F0CEF8E8E797256D42E8E7C0465B
:103FB000FFFFFFEF000001600000FFEF0000036063
:103FC000F7B5040000680D00FFF7E4FE6B462168BA
:103FD00002000600073309682800FFF7B9FD60609A
:103FE000002807D0334B344A2B40934204D0334A45
:103FF00093423DD086260EE0CC23314A5B00E2504E
:1040000010220433E25423680E3A1B6893432D4A6E
:10401000934202D08726764228E0270008373800EE
:1040200005F032FE6B462268D97992693300380078
:1040300005F030FEFFF790FA061E37D1FE23C021AF
:10404000DB052B40C90400228B4201D1AA04920E49
:10405000CE204000205C904226D300228B4201D12A
:10406000AD04AA0E9E230026FF33E2543000FEBDAD
:10407000CC23154A5B00E25010220433E25423683B
:104080000E3A1B6893430F4A9342C3D12700083767
:1040900038000AF0C9FB6B462268D979926933006F
:1040A00038000AF0C8FBC9E7872676422000FFF7F0
:1040B000C7FDDBE7FFC0FFFF0100000602000006AE
:1040C00001100006010000400210000610B5FF2399
:1040D0000C0001000C4A9943914212D10340802008
:1040E00040041843094BC01803280AD8084B800025
:1040F000C0580BF092F80121020020000CF05EFF86
:1041000010BD0020F5E7C04600000312F8FFFFFED7
:1041100034380210F7B5FF2306001D4F9E431D4B98
:104120000500009101920340BB4204D01A4B1B4A88
:104130000340934220D1EBB2002B1DD080225204C9
:104140001343174A9B18032B16D8164A9B009C58FA
:1041500020000BF062F8019B1870BE420ED1B542F0
:1041600011D0002C11D020000BF052F8009B984287
:1041700009D08720404207E00024E9E70A4B9E422D
:1041800001D1002C01D00020FEBD8620F2E7C04600
:104190000000021000FFFEFF00FFFCFF0000041003
:1041A000F8FFFFFE3438021000000310F7B51E00C0
:1041B0000023123880B2009101921D000C2801D812
:1041C000194A155C3360AC21012017F08DFA041EEA
:1041D00027D007F069FF2900200009F0F3FFFFF75F
:1041E000BBF9051E16D127008837019B009A3900BC
:1041F000200008F0B3FBFFF7AFF9051E0AD1390024
:10420000200008F0E3FBFFF7A7F9051E02D1346098
:104210002800FEBD200007F094FF200017F0E8FD05
:10422000F6E78D256D42F3E725380210C023F0B57F
:104230001700802204688BB0DB0506000291234042
:10424000D205934215D1624B9F4200D9BEE00200D5
:10425000F90020001832FFF763FD041E06D1002F7D
:1042600004D03A000299B06918F0FCF820000BB0B5
:10427000F0BD584A230C1B04934249D10023123C41
:10428000A0B21C000C2801D8534A145CB361AC21C5
:10429000012017F029FA051E00D194E007F004FF71
:1042A0002100280009F08EFFFFF756F9041E28D1DF
:1042B0002B007C333A0002991800039304F076F93E
:1042C000FFF74AF9041E1CD10399280008F04AFCA4
:1042D000FFF742F9041E14D1A022404B92009B1814
:1042E00001933F4B290000932B00039A2833883118
:1042F000280009F027F8FFF72FF9041E01D1B56156
:10430000B4E7280007F01DFF280017F071FDADE7A6
:10431000344A934208D103003A00A0B218330299FC
:10432000FFF744FF0400A1E72F4B304A234093429C
:104330004CD105A80BF0E9F8E023DB051C409C42BA
:1043400036D100233A000093029905A80BF0D2FD64
:10435000FFF702F9041E27D105A80BF011F9012877
:104360002CD1069D28000CF02FFE8023C0005B019D
:10437000984226D807A803F057FF23002200019493
:10438000009407A928000CF057FDFFF7E5F8041E7C
:1043900005D107A804F0E0F8430700D0863C07A841
:1043A00003F04AFF002CAAD005A80BF0B4F85DE793
:1043B0003A00029905A80BF07BFEC9E78724644206
:1043C000F2E78624FBE78D2464424FE78624FBE76F
:1043D000FFFFFF1F0000037025380210C8610008AE
:1043E000F1AF001000000360FFFFFFEF000001606D
:1043F00070B50400FFF7B4FD050020220021200065
:1044000018F0C2F8280070BDF0B585B00F0003A900
:1044100015001E00FFF752FB041E0AD1039832005C
:1044200007602900FFF702FF041E039804D0002351
:104430000360200005B0F0BDC368012BF9D10096E0
:10444000021D01682B00006902F028FA041EF0D05A
:104450000398FFF785FD0022039B1A60E9E713B577
:1044600001A902F0BBF800280ED1019B0400DA6814
:10447000012A03D1186902F0BBFA04000198FFF782
:10448000B7FF002800D1200016BD73B50D00140041
:10449000002901D000230B60002C01D000232360F1
:1044A00001A902F09BF8061E0BD101980368002BAE
:1044B00009D0002D00D02B60002C02D0FFF76AFC41
:1044C0002060300076BD9A267642FAE77FB51C0060
:1044D00000230D0016002360012203A9FFF7C8FB8B
:1044E000002806D100902300320029000398FFF72E
:1044F00079FC04B070BD7FB5160000220D001C00D1
:104500001A6003A91300FFF7B3FB002807D10123AA
:1045100032000093290023000398FFF763FC04B0E6
:1045200070BD000003680D4A10B50400934207D81F
:104530000B4A93420BD2002B0CD0892040420BE057
:10454000084A9342F9D808300EF006FE02E008301F
:104550000EF049F80020206010BDC046090000019F
:10456000080000010B00000110B504008021E030BC
:104570000CF012F82000FFF7D5FF10BD036870B5EE
:1045800005000E481818032815D82B0008331BF017
:104590002BFE02020E0E18000EF00CFD041E02D0BF
:1045A0002800FFF7BFFF2000FEF7D6FF70BD180000
:1045B0000FF04CFCF2E7024CF2E7C046F8FFFFFEBA
:1045C00000AFFFFF002370B503601D4B0600C81845
:1045D0000D00032825D8340008341BF005FE021016
:1045E000151D20000DF0F9FF012120000EF008F844
:1045F000041E20D135602000FEF7AEFF1AE0200037
:104600000DF0EBFF0021F0E720000EF09FFD0121EF
:1046100020000EF0ADFDEBE720000EF097FD00212D
:10462000F6E7FE20FF23C0051B060840C0184342E2
:104630005841873870BD3000FFF774FFDBE7C04694
:10464000F8FFFFFE002310B59A4202D0FFF796FF55
:104650000300180010BD0000F7B580241F00037888
:1046600064041600324A23439A180500019110246D
:10467000022A2DD92F4A04349A18012A28D92E4A01
:104680000834934224D02D4A0434934220D02C4A3B
:10469000103493421CD02B4A1034934218D02A4A2B
:1046A000243C934214D0294A0434934210D0284A1F
:1046B000043C93420CD0274A0434934208D0264A43
:1046C0001034934204D0254A9B185C425C41A401FB
:1046D0003E60002E04D032002121019817F054FFD3
:1046E000B4421FD82B681E4A9818032818D82B00EC
:1046F000019908331BF078FD0202101018000EF02B
:1047000062FCFEF729FF061E0ED13C602800FFF771
:1047100009FF06003000FEBD18000FF0A0FBF0E717
:104720001048EEE78A2676422800FFF7FBFEF1E705
:10473000FFFFFFFEFCFFFFFE080000010900000173
:104740000A0000010B0000010C0000010D00000137
:10475000100000011100000112000001EDFFFFFE3A
:10476000F8FFFFFE00AFFFFFF0B5A5B001936B4669
:10477000039280221B79520413434D4A02919918E7
:104780000600102202292DD94A490432591801295C
:1047900028D9494908328B4224D0484904328B42F7
:1047A00020D0474910328B421CD0464910328B42F0
:1047B00018D04549243A8B4214D0444904328B42E4
:1047C00010D04349043A8B420CD0424904328B4208
:1047D00008D0414910328B4204D0404A9B185A42BB
:1047E00053419A01019B32495B180A2B06D83C4978
:1047F000CF5C802F03D98624644241E00027BA426F
:10480000F9D8039804ADB8423DD901993000FFF7BB
:10481000D9FE041E30D1039A02993000FFF712FF2F
:10482000041E29D103AB802229003000FFF714FFBA
:10483000041E21D100233621039883422BD13A1A3A
:104840003621281817F0A0FE00206A21039A904212
:1048500026D13300E0333A1A5C21181817F094FE81
:1048600001993000FFF7AEFE041E05D13A00290081
:104870003000FFF7E7FE0400039928000BF08CFEE0
:10488000200025B0F0BD0028D9D0020002992800F0
:1048900017F0E8FDCEE7EA5C4A40EA540133CCE782
:1048A00004002B5CE0344B4033550130CFE7C04669
:1048B000FFFFFFFEFCFFFFFE0800000109000001F2
:1048C0000A0000010B0000010C0000010D000001B6
:1048D000100000011100000112000001EDFFFFFEB9
:1048E00044380210F0B5002607681E4B95B0FB183F
:1048F00005000091019203960A2B01D81A4AD65C52
:1049000003AB402204A92800FFF7A6FE041E25D110
:1049100039002800FFF756FE041E1BD12900320083
:10492000E0312800FFF78EFE041E13D1039A04A97C
:104930002800FFF787FE041E0CD103AB402204A918
:104940002800FFF789FE041E04D1019A04A90098EB
:1049500017F088FD039904A80BF01EFE200015B087
:10496000F0BDC046FFFFFFFE443802107FB503795B
:104970000D0004001100DA072CD506221340022B8B
:1049800028D042798A4222D8036813498B4213D136
:104990006946083006F0ECF8061E04D162796946D3
:1049A000280017F05FFD684610210BF0F5FD300080
:1049B000FEF7D2FD04B070BD08490B40A021890468
:1049C0008B4207D129000830FFF78CFFF2E78A20DD
:1049D0004042EFE78920FBE70200C0020000C07FF1
:1049E0008023F0B55B04CFB21F43444BDBB0FB1810
:1049F00005001024022B2DD9414B0434FB18012B48
:104A000028D9404B08349F4224D03F4B04349F4266
:104A100020D03E4B10349F421CD03D4B10349F425F
:104A200018D03C4B243C9F4214D03B4B04349F4253
:104A300010D03A4B043C9F420CD0394B04349F4277
:104A400008D0384B10349F4204D0374BFC186242D8
:104A5000624194012E0051363378FF2B4AD0013346
:104A600033702B000021B02250331970520002A87D
:104A700017F08AFD3278AB68012A38D11B190093F0
:104A8000EB681B1B01933B006A68296802A8FFF7CB
:104A90006BFE061E23D1019A009902A8FFF7D2FDF2
:104AA000061E1CD12200A96802A8FFF71BFF061EE4
:104AB00015D13B006A68296802A8FFF755FE061E5B
:104AC0000DD1EA68A96802A8FFF7BCFD061E06D151
:104AD00029002200103102A8FFF704FF060002A8F7
:104AE000FFF742FD002E00D030005BB0F0BD009318
:104AF0000194C8E789204042F7E7C046FFFFFFFE68
:104B0000FCFFFFFE08000001090000010A0000018F
:104B10000B0000010C0000010D000001100000015D
:104B20001100000112000001EDFFFFFEF0B589B099
:104B30000591A149170005000F9A03608B421ED111
:104B4000002A02D08720404217E0119B002BF9D1A8
:104B50003900012016F0C8FDA860002801D18D2081
:104B6000F1E73E003A00059917F07CFCEF60129BDC
:104B7000B34200D9A4E06B60002009B0F0BDFF246F
:104B80001900A1438C468D498C4538D1234080249F
:104B900064041C438A4BE3180793022B00D895E06A
:104BA000884BE318012B00D8FBE0874B9C4200D1D7
:104BB000F9E0864B9C4200D1F7E0854B9C4200D146
:104BC000F5E0844B9C4200D1F3E0834B9C4200D142
:104BD000E9E0824B9C4200D1E7E0814B9C4200D14E
:104BE000E1E0804B9C4200D1DFE07F4B9C4200D152
:104BF000DDE07E4B9C4200D1DBE08620A3E77C49D0
:104C0000580A40028842F8D1234080246C4864044A
:104C100023431818102602282DD96A48043618187C
:104C2000012828D968480836834224D067480436CA
:104C3000834220D06648103683421CD06548103627
:104C4000834218D06448243E834214D0634804361B
:104C5000834210D06248043E83420CD0614804363F
:104C6000834208D060481036834204D061481E1841
:104C700070424641B601604818180128BDD8280086
:104C800008308C4510D11199019203910E9A109918
:104C9000009202913A000599FEF780FE002800D0AC
:104CA0006BE7FF235E4362E71199019203910E9A2D
:104CB0001099009202913A000599FEF712FFEDE774
:104CC000129B013300D03DE76E6055E71023FF26AD
:104CD0005E432B00103306930E9923000698FFF7CE
:104CE00043FD002800D048E73A0005990698FFF7F1
:104CF000A9FC002800D040E7290071314022FF3193
:104D00000698FFF7EFFD002800D036E7079A10233A
:104D1000022A2DD92B4A0433A218012A28D92A4A5B
:104D20000833944224D0294A0433944220D0284A9C
:104D3000103394421CD0274A1033944218D0264A8C
:104D4000243B944214D0254A0433944210D0244A80
:104D5000043B94420CD0234A0433944208D0224AA4
:104D60001033944204D0234BE418634263419B0107
:104D7000F8225200AB54F2230022FF33EA54119B75
:104D8000EB60934200D1F2E61900012016F0ACFC72
:104D9000A860002800D1E2E6119A109917F062FB92
:104DA000E5E6142393E71C2391E720238FE73023C4
:104DB0008DE740238BE7C046010000310001003041
:104DC000FFFFFFFEFCFFFFFE0800000109000001DD
:104DD0000A0000010B0000010C0000010D000001A1
:104DE0001000000111000001120000011300000179
:104DF00000020030EDFFFFFEF7FFFFFEF0B50024DC
:104E0000E9B0150007936E9A364B07001340364AF7
:104E10000894934261D10B68344A1B0C1B049342E3
:104E20005ED18E691BA8099406F014F93378013B12
:104E3000DBB20C2B01D82E4AD45CA0B209AB079A86
:104E40002900FFF7B3F9041E21D1012209991BA8FB
:104E500006F04AF9FEF780FB041E18D1020031006B
:104E60001BA806F041F9FEF777FB041E0FD1A02224
:104E7000204B92009B1801931F4B0AAA009308A98C
:104E800042231BA806F056F9FEF766FB04001BA898
:104E900006F006F9099807F054F9099816F0A8FFEA
:104EA000002C13D1154B6E9D03941D40C0239B0510
:104EB0001D4301235B4204930294019400942B0050
:104EC000089A0AA93800FFF731FE040008990AA8D9
:104ED0000BF062FB200069B0F0BD86246442F9E764
:104EE0008724FBE70000F0FE000020220000037092
:104EF00018380210C8610008F1AF0010FFFF0F0161
:104F0000F0B593B002AC0D00160001AB40222100B9
:104F1000FFF7A2FB00280AD1019FB74205D102008A
:104F200003009F4205D1002A01D09520404213B0D2
:104F3000F0BDE95CE65C013371400A43F1E7000033
:104F40000B6870B505000C00002B1FD10368104AD8
:104F5000934207D80F4A93420ED2002B16D08620D8
:104F6000404212E00C4A9342F9D801002000083177
:104F700008300EF0F8F805E0010020000831083094
:104F80000DF038FB00202B68236070BD8920E7E717
:104F900009000001080000010B0000010021036866
:104FA00010B504008B420BD00F4A93420AD108304F
:104FB00005F024FAE02200212379216013402371B7
:104FC000080010BD094A1340A0229204934203D165
:104FD0000830FFF7C9FAEDE7B422520017F0D4FA0F
:104FE00089214942ECE7C0460200C0020000C07FB0
:104FF000F0B585B00500019116001C008027002B3C
:1050000039D13F01E022664B334000932B602B796E
:1050100013402B71009B1A00624B9A422DD128003D
:10502000083005F0E5F9002C03D010232A7913434A
:105030002B7133003A0003A90198FEF719FE041EF4
:1050400015D10398FEF7A6FE009BB7041A00554B36
:10505000BF0E01909A424DD10399020009682300C6
:105060000098FEF775FD011E23D1862464422800B6
:10507000FFF794FF1AE0FF00C4E7A0224A4B920416
:105080003340934202D10023AB60CCE7FE24FE23E1
:10509000E40534401B06E41863426341B422873BB5
:1050A0005200002128001C0017F06EFA200005B005
:1050B000F0BD2C00037D08346B712000039E05F0C9
:1050C00097FB002804D1019AB169200005F0BCFCCF
:1050D000FEF742FA0400002F05D0032FC5D96B79E3
:1050E000BB424ED36F71002CC1D101232A791343E7
:1050F0002B71DBE7A0222C4B92043340934249D121
:10510000F3B28026294A76043343991810220229E3
:105110002DD9274904325918012928D9254908329F
:105120008B4224D0244904328B4220D023491032B0
:105130008B421CD0224910328B4218D02149243A8C
:105140008B4214D0204904328B4210D01F49043ABC
:105150008B420CD01E4904328B4208D01D491032BC
:105160008B4204D01C4A9A185042504182016A7105
:10517000002A00D179E7A2220399D205086890425B
:1051800001D0872472E72800CA6908308969FFF7CF
:10519000EBFA9FE7002F00D167E7862464429CE783
:1051A000FFC0FFFF0200C0020000C07FFFFFFFFE44
:1051B000FCFFFFFE08000001090000010A000001D9
:1051C0000B0000010C0000010D00000110000001A7
:1051D0001100000112000001EDFFFFFE10B50123D8
:1051E000FFF706FF10BD10B50023FFF701FF10BD4C
:1051F00070B504000079C30705D489256D422000ED
:10520000FFF7CCFE12E006230340022BF5D0082363
:10521000034323710C482368834209D120000830DE
:1052200005F03CFCFEF798F9051EE8D1280070BD9A
:1052300006480340A02080048342DED120000830CD
:10524000FFF700FAF0E7C0460200C0020000C07F8E
:10525000F7B51F0005000191161E3A6003D0212109
:10526000019817F091F92B79DB0615D532000199D9
:105270002800FFF77BFB041E10D12800FFF78EFEED
:10528000041E03D16B793B602000FEBD320021215A
:10529000019817F079F9F7E7892464422800FFF7AD
:1052A0007DFEF1E71023F0B5047993B0060001917B
:1052B0001C4027D14779974205D095256D42300093
:1052C000FFF76CFE0FE0402202A9FFF74FFB23001F
:1052D00005009F420ED8002CEFD1002DEFD13000F9
:1052E000FFF75CFE050002A840210BF055F92800ED
:1052F00013B0F0BD019A02A9D25CC95C01334A40E7
:105300001443E6E78925D9E7F0B58FB005920493F9
:10531000159A169B0C001A6080220B00D20007A978
:10532000FEF7A6FC051E00D069E0079AE02113688D
:10533000C90518000840884200D0D1E069498B4275
:1053400064D10BAF966904993A002000FEF7E2FEA3
:10535000051E54D130000BF037FE159B83424CD311
:10536000FF239C43604B9C422DD12A002900300032
:105370000BF024FEA021149B5C4A0393059B89003B
:105380000293049B521801933B78594900933000D3
:1053900001230CF07FFC041E04D130000BF014FE3E
:1053A000169B18602000FEF7D7F8051E27D1212193
:1053B000169B1868159B1A1A149B181817F0E4F816
:1053C00028000FB0F0BD4B4B9C4200D088E03A78EB
:1053D000300001210BF0F2FDA021149B434A0393FE
:1053E000059B89000293049B5218019300950123A9
:1053F0003F4930000CF018FBCDE78A256D42159B24
:10540000002BDDD01A0021211498D7E73A490B4030
:105410003A498B4262D13A4B3A4923408B425FD1A1
:10542000966908A8B36DDD1D02F0FEFE0BA802F020
:10543000FBFE159BED086F00BB424DD3E30338D54F
:10544000E4B2002C33D080235B041C432E4BE418C1
:10545000032C2CD82D4BA400E05809F0DEFE3300BD
:10546000049A02900192059A7C33009208A90BAA33
:10547000300006F074F8041E0DD12A00149908A813
:1054800003F0CAF8041E06D1149B2A0059190BA870
:1054900003F0C2F8040008A802F0CEFE0BA802F048
:1054A000CBFE002C00D07DE7169B1F607AE7002022
:1054B000D3E7A02133000D4A8900521803920C4A09
:1054C0007C330292049A08A90192059A3000009256
:1054D0000BAA06F037F8CEE70D4CDCE786258DE702
:1054E00087258BE70000017000000210C8610008EA
:1054F000F1AF0010000003100000FFEF0000036098
:1055000000FFFEFF00000610F8FFFFFE3438021017
:1055100000B1FFFFF0B591B00792802206930D0015
:105520000B00120109A9FEF7A3FB041E36D1099A4C
:105530004B4913684B48194081424ED10DAF9669D3
:1055400006993A002800FEF7E5FD041E26D130003A
:105550000BF03AFD179B83423CD3FF239D43424B04
:105560009D421ED12200210030000BF027FDA0211A
:10557000169B3E4A0393079B89000293069B521891
:1055800001933B783A490093300023000CF00EFD64
:10559000384B98425ED0FDF7DFFF0400200011B0C9
:1055A000F0BD354B9D4259D13A78300001210BF0C6
:1055B00005FDA021169B2D4A0393079B89000293AA
:1055C000069B5218019300942300294930000CF0E7
:1055D0006DFCDDE78A246442E0E728490B40284956
:1055E0008B4239D1274B1D40274B9D4236D19769BD
:1055F0000AAEBB6D30000733DB080DAD059302F03A
:1056000013FE280002F010FE059B179A5B009A42D9
:1056100020D1059A1699300002F0C8FF041E11D15E
:10562000169B059A2800991802F0C0FF041E09D1A4
:105630003B00019588330096069A0799380005F0DB
:105640009AFF0400300002F0F7FD280002F0F4FD9C
:105650002000A0E79524BEE78624BCE78724BAE7AC
:10566000FFFFFFEF0000016000000210C8610008AA
:10567000F1AF001000BFFFFF000003100000FFEFBC
:105680000000036000FFFEFF00000610F0B51F00E1
:1056900000238BB00792149A0E0013600A00FF33A8
:1056A0009A43314B06929A4205D0119B002B02D0AF
:1056B0008724644237E080223300520009A9FEF7B4
:1056C000D7FA041E2FD1099AC0211368C905180002
:1056D00008408842ECD125490B4025498B4241D1F5
:1056E000956928000BF070FC139B9842E0D8214B81
:1056F0009E421BD1A021129B1F4A0293079B890047
:1057000001935218009723001C4928000BF0CEFF8C
:10571000041E04D128000BF057FC149B18602000D5
:10572000FDF71AFF040020000BB0F0BD069B1A0025
:105730000D4B9A42BCD129003000FEF7C7FCA021D6
:10574000129B0D4A0493079B89000393119B5218E7
:105750000193109B029700930849230028000BF047
:105760009FFED5E78624A4E700000312FFFFFFEFAA
:105770000000016000000212C8610008F1AF0010D3
:10578000F0B58BB0079300231700149A2E4E1360C8
:105790000A00FF339A430D000692B24205D0119BD6
:1057A000002B02D0872040422EE080222B00920066
:1057B00009A9FEF75DFA002826D1099BE0211A68A5
:1057C000C905100008408842ECD120498A4239D1ED
:1057D0009C6920000BF0F8FB079B9842E2D11C4B20
:1057E0009D4213D1A021139B1A4A0393129B890057
:1057F0000293149B5218009301970123164920002D
:105800000CF0EEF8FDF7A8FE0BB0F0BD069BB3421E
:10581000C8D121002800FEF759FCA021139B0D4A96
:105820000593129B89000493149B52180293119BB9
:1058300003970193109B08490093200001230BF06C
:1058400055FFDFE78620AEE700000312000001707D
:1058500000000212C8610008F1AF001070B5002509
:1058600003680400AB4210D0FE22D2051340802210
:10587000D20493420BD1083004F0C0FDF822237902
:10588000256013406571A5712371280070BD8925BD
:105890006D42FAE7F0B587B004000F0016000393DD
:1058A0008025012B0FD0AD00FE238022DB05334085
:1058B000D204934209D04C220021200016F064FE4D
:1058C00087256D4234E06D00EEE7012223792660E2
:1058D000934303329343023A1343237100236371CA
:1058E000A371230008331800019304F081FD2A00FE
:1058F000330005A93800FEF7BBF9051E18D105983D
:10590000FEF748FA05990290020009682B00300062
:10591000FEF71EF9011E60D0019804F069FF071E12
:1059200009D02000FFF79AFF3800FDF715FE0500AB
:10593000280007B0F0BD0599039B029A8969019878
:1059400004F074FD071EECD1254B9E4238D0254B48
:105950009E4240D001222379902113432371FF23DB
:10596000DB053340C9048B4212D0059B1E491B68DE
:1059700010228B420CD01D49083A8B4208D01C499A
:1059800008328B4204D01B4A9B185A425341DAB268
:10599000A2717302CCD5059B13491B6810228B4260
:1059A0000CD01249083A8B4208D0114908328B4278
:1059B00004D0104A9B185A425341DAB26271B7E7D9
:1059C0000421019804F0F2FE071EAAD101232279D6
:1059D00013432371C9E72900F3E7862571E7C04621
:1059E0000001600401016004010000400200004069
:1059F00003000040FCFFFFBF10B50123FFF74AFF83
:105A000010BD10B50023FFF745FF10BD037970B539
:105A1000040006200340022B11D16379934214D174
:105A200020001A00083004F025FDFDF795FD051E45
:105A300007D10423227913432371280070BD8925DF
:105A40006D422000FFF70AFFF7E78725F8E700001F
:105A500070B50C0006211E00037905000B40022BD7
:105A60001CD1437993421CD81A00A0230E489B00F6
:105A70002100C01805F0BCFA002808D0FDF76CFD25
:105A8000041E02D02800FFF7E9FE200070BD6A79ED
:105A9000210032602800FFF7B9FFF1E78924644252
:105AA000F0E78A24FBE7C046C8610008F0B585B07E
:105AB0000393FF2316000268DB05134090220400C5
:105AC0000F00D2043500934206D08579C36A2900BD
:105AD000F0181AF09DFB45430A9B9D4212D8200006
