:020000041000EA
:10000000000001086D3603100D00000009160010F5
:1000100000000000000000000000000000000000E0
:1000200000000000000000000000000021F80210A5
:100030000000000000000000A5F80210B1F8021056
:10004000C5360310D53C0310C5360310C536031062
:10005000C5360310C5360310C5360310C536031068
:10006000C5360310C5360310C5360310C536031058
:10007000C5360310C5360310C5360310C536031048
:10008000C5360310C5360310C5360310C536031038
:10009000C5360310C5360310C5360310C536031028
:1000A000C5360310C5360310C5360310C536031018
:1000B000C5360310C5360310C5360310C536031008
:1000C00010B5064C2378002B07D1054B002B02D02E
:1000D000044800E000BF0123237010BDA0160008F3
:1000E000000000003C7F0410084B10B5002B03D02B
:1000F0000749084800E000BF07480368002B00D10B
:1001000010BD064B002BFBD09847F9E7000000001C
:10011000A41600083C7F0410B41100080000000081
:10012000164B002B00D1144B9D46402292029A1A86
:10013000924600218B460F461348144A121A39F092
:100140002BFC0F4B002B00D098470E4B002B00D000
:1001500098470020002104000D000D48002802D01F
:100160000C482EF08FFE39F015F8200029002FF0F2
:100170007BF92EF07DFEC04600000800000001085B
:1001800000000000A1F30210A01600087C940008F3
:1001900085EE02100000000000B585B00190019BC3
:1001A000002B05D11F49204B662218002EF022F8A3
:1001B0001E4B180031F016FB0200019B1A62019BD6
:1001C0001B6A002B05D11749194B6B2218002EF022
:1001D00011F80023039309E0164A039B5B01D3182F
:1001E0000833019A1A60039B01330393039B012B8D
:1001F000F2D9019B0F4A1A610F4A104B00211800D7
:1002000033F010F80200019B5A60019B5B68002BE1
:1002100005D104490A4B752218002DF0EBFFC046AA
:1002200005B000BD9CF80310D4F703108CF8031040
:10023000F0F70310E8000008C400000821030010D4
:1002400038F8031000B585B00190019B002B05D153
:100250001F49204B602218002DF0CCFF1E4B1800C8
:1002600031F0C0FA0200019B1A62019B1B6A002B4D
:1002700005D11749194B652218002DF0BBFF00234B
:10028000039309E0164A039B5B01D3180833019AD4
:100290001A60039B01330393039B012BF2D9019B4B
:1002A0000F4A1A610F4A104B0021180032F0BAFFB2
:1002B0000200019B5A60019B5B68002B05D1044939
:1002C0000A4B6F2218002DF095FFC04605B000BD07
:1002D000A0F90310E0F8031090F90310FCF80310E4
:1002E0004C010008280100087904001044F90310AB
:1002F00082B00023019302E0019B01330193064B7E
:10030000019A9200D358002BF6D1044B019A1A603F
:10031000C04602B07047C04654020008801F000863
:1003200000B589B0019000230593002307930023B3
:10033000049300230693FFF7DBFF80231B061800BE
:1003400002F086FC03000593059B1022134005D1A3
:10035000059B3F493F4831222DF04CFF3E4B190091
:10036000102002F091FC3C4B1B68022B04D0032BA5
:100370005FD0012B5DD063E0374BDB68002B05D1EC
:100380003349364B382218002DF034FF324B586871
:100390000F226A440123002102F08AFD0300012B91
:1003A00005D02B492E4B3C2218002DF023FF0F23A4
:1003B0006B441B78012B02D0022B21D032E0294B59
:1003C0001B68069A9A4205D2274B069A9200D35888
:1003D000002B05D11E49254B422218002DF00AFFA3
:1003E0001D4B5B680021180002F032FE1E4B069A7E
:1003F0009200D35804AA100098470300079317E00F
:10040000069B01330693144B586804AA0423002169
:1004100002F09AFD104B5B68079A1100180002F079
:1004200017FE05E00A49124B4E2218002DF0E2FE9D
:100430000DE0094B5B680021180002F009FE06E0A0
:10044000054B1B6802490B4857222DF0D3FE74E779
:10045000ECFA0310B8F90310841F00080CFA03101B
:1004600040FA0310801F0008540200087CFA0310B1
:10047000A0FA0310C8FA031000B589B00190002358
:100480000693002305930023049380231B06180082
:1004900002F0DEFB03000693069B3022134005D1D9
:1004A0006049614B232218002DF0A4FE069B102208
:1004B000134000D17AE05D4B1900102002F0E4FBFC
:1004C0005A4B1B68022B04D0032B67D0012B65D03D
:1004D0005DE0564BDA68554B1B69D218534B5B698C
:1004E000D318002B05D14F49514B2A2218002DF06B
:1004F00081FE4E4BDB680593059B180038F076FEB5
:1005000003000493049B002B05D14649494B30223C
:1005100018002DF06FFE454B5868059B049A00218A
:1005200002F0C6FC002307931EE0049A079BD21832
:100530000F236B4412781A70049A079BD3180599FD
:10054000079A8A1A013A04998A1812781A70059A39
:10055000079BD31A013B049AD3180F226A441278DE
:100560001A70079B01330793059B5A08079B9A4211
:10057000DBD82E4B5868059B049A002102F0E4FC5E
:10058000049B180038F03CFE0023049307E0274B3F
:100590001B682449284842222DF02CFEC046234BDC
:1005A0005B680021180002F053FD6EE71F4B190035
:1005B000202002F069FB1D4B1B68022B04D0032B8B
:1005C00020D0012B1ED024E0184B5B68180002F0ED
:1005D000DBFE03000293029B013305D11149174B47
:1005E0004F2218002DF006FE104B5B68002118000A
:1005F00002F02EFD14202FF08BF9029B180002F060
:1006000067FE0DE0094B5B680021180002F020FD39
:1006100006E0064B1B68034907485E222DF0EAFD01
:1006200033E7C046F8FB0310F8FA0310B01F0008C8
:1006300054FB031088FB0310ACFB0310D0FB03102A
:1006400000B583B00190019B002B05D11049114BDF
:10065000732218002DF0CEFD0F4B1800FFF79CFD04
:100660000E4B1800FFF7EEFD0D4B180003F0C2F91A
:100670000C4B180005F022F90B4B180005F02EFF6B
:10068000019B054A1A600523180003B000BDC0464F
:1006900020FC031004FC03108C010008B4010008C6
:1006A000DC010008040200082C02000800B58FB02D
:1006B00000230D9301AB18002C231A00002139F000
:1006C0006BF980231B06180002F0C2FA03000C939A
:1006D0000C9B2022134002D101235B420D9301ABFE
:1006E0001900202002F0D0FA01AB1B68012B07D0C3
:1006F0000D9B002B01D00D9B01E001235B420D936C
:1007000001AB5B680D9A1100180002F0A1FC0D9B73
:1007100018000FB000BD00B58FB000230D9301ABE2
:1007200018002C231A00002139F036F980231B060B
:10073000180002F08DFA03000C930C9B202213404A
:1007400002D101235B420D9301AB1900202002F07E
:100750009BFA01AB1B68032B07D00D9B002B01D02C
:100760000D9B01E001235B420D9301AB5B6800210F
:10077000180002F06DFC0D9B18000FB000BD00B515
:1007800085B0019000230393072002F061FA030073
:100790000293029B2022134001D1002201E0012399
:1007A0005A42019B1A60FFF781FF03000393039BEA
:1007B000002B01D0039B10E0FFF7ADFF0300039374
:1007C000039B002B01D0039B07E0029B20221340D8
:1007D00001D1002301E001235B42180005B000BDF8
:1007E00000B593B00190002311930023109303AB45
:1007F00018002C231A00002139F0CEF800230F93A3
:1008000080231B06180002F023FA03000E930E9BB0
:100810002022134002D101235B42119303AB190044
:10082000202002F031FA03AB1B68012B07D0119B8B
:10083000002B01D0119B01E001235B42119303AB1C
:100840005B68180002F0A0FD03000F930F9B0133BB
:1008500001D1002201E001235A42019B1A6003AB3F
:100860005B680021180002F0F3FBFFF754FF030060
:100870001093119B002B01D0119B00E0109B119352
:10088000119B180013B000BD00B593B00190002378
:1008900011930023109303AB18002C231A0000219E
:1008A00039F07AF800230F9300230E93FFF7FEFE32
:1008B00003001193119B002B01D0119B40E080237A
:1008C0001B06180002F0C4F903000E930E9B2022B1
:1008D000134002D101235B42119303AB1900202086
:1008E00002F0D2F903AB1B68022B07D0119B002B3F
:1008F00001D0119B01E001235B42119303AB5B68C4
:10090000180002F041FD03000F930F9B013301D14A
:10091000002201E001235A42019B1A6003AB5B688D
:100920000021180002F094FBFFF7F5FE030010937E
:10093000119B002B01D0119B00E0109B1193119B88
:10094000180013B000BD000010B594B00190002352
:1009500013930023109303AB18002C231A000021DB
:1009600039F01AF800230F93002312930B2038F06C
:100970003DFC03000E930E9B002B05D14749484BCD
:10098000A22218002DF036FC0E9B0B22002118002D
:1009900039F002F8FFF78AFE03001393139B002B34
:1009A00005D00E9B180038F02BFC139B72E08023BF
:1009B0001B06180002F04CF903000F930F9B202236
:1009C000134002D101235B42139303AB1900202093
:1009D00002F05AF903AB1B68022B07D0139B002BC4
:1009E00001D0139B01E001235B4213930023119379
:1009F00016E003AB58680E9A129BD41803AA119BF9
:100A000002339B00D31804331B681199220002F0B3
:100A10004FFA0200129B9B181293119B0133119302
:100A2000119B032BE5D903ABDA6803AB1B69D21822
:100A300003AB5B69D21803AB9B69D3180B2B0AD1AC
:100A4000129B0B2B07D117490E9B0B22180039F074
:100A5000F7FA031E04D0019B012252421A6002E001
:100A6000019B00221A6003AB5B68139A1100180007
:100A700002F0EEFA0E9B180038F0C2FBFFF74BFEB7
:100A800003001093139B002B01D0139B00E0109BDD
:100A90001393139B180014B010BDC046DCFD031067
:100AA00030FC031054FC031000B591B001900023FA
:100AB0000F9303AB18002C231A00002138F06CFFB1
:100AC00080231B06180002F0C3F803000E930E9B50
:100AD0002022134002D101235B420F9303AB190084
:100AE000202002F0D1F803AB1B68012B07D00F9B2D
:100AF000002B01D00F9B01E001235B420F9303AB5E
:100B00005B68064A1100180002F0A2FA019B0F9AD6
:100B10001A600F9B180011B000BDC0460100008094
:100B200000B593B001900023109303AB18002C2361
:100B30001A00002138F030FF0023119300230F9397
:100B400034230293FFF7B2FD03001193119B002B96
:100B500001D0119B48E080231B06180002F078F8B2
:100B600003001093109B2022134002D101235B420B
:100B7000119303AB1900202002F086F803AB1B6829
:100B8000022B07D0119B002B01D0119B01E0012308
:100B90005B42119303AB586802AA0423012102F0BF
:100BA00087F903000E930E9B002B02D1029B342B7E
:100BB00004D0019B012252421A6002E0019B0022F4
:100BC0001A6003AB5B68119A1100180002F040FA3A
:100BD000FFF7A1FD03000F93119B002B01D0119B88
:100BE00000E00F9B1193119B180013B000BD000093
:100BF00000B593B00190002311930023109302AB32
:100C000018002C231A00002138F0C6FE00230F9391
:100C100000230E930B2038F0E9FA03000D930D9B8F
:100C2000002B07D10A23FF331A003F493F4B18001E
:100C30002DF0E0FA0D9B0B220021180038F0ACFEDD
:100C4000FFF734FD03001193119B002B05D00D9B82
:100C5000180038F0D5FA119B62E080231B061800BB
:100C600001F0F6FF03000F930F9B2022134002D1E7
:100C700001235B42119302AB1900202002F004F81B
:100C800002AB1B68022B07D0119B002B01D0119BDC
:100C900001E001235B42119302AB58680D9A0B23CC
:100CA000012102F005F903000E9302AB1A690E9BB5
:100CB0009A4216D102ABDA6802AB1B69D21802ABBA
:100CC0005B69D3180B2B0CD10D9B06331B78002BC3
:100CD00007D117490D9B0622180039F0B1F9031E00
:100CE00004D0019B012252421A6002E0019B0022C3
:100CF0001A6002AB5B68119A1100180002F0A8F9A3
:100D0000FFF709FD030010930D9B180038F078FAE7
:100D1000119B002B01D0119B00E0109B1193119BA4
:100D2000180013B000BDC04604FE031030FC0310D1
:100D300060FC031000B595B00190002313930023CD
:100D4000129303AB18002C231A00002138F024FE64
:100D5000002311930023109300230F930B2038F0EE
:100D600045FA03000E930E9B002B06D19C235A00DC
:100D700039493A4B18002DF03DFAFFF797FC030074
:100D80001393139B002B05D00E9B180038F038FAF4
:100D9000139B5DE080231B06180001F059FF030040
:100DA0001193119B2022134002D101235B42139324
:100DB00003AB1900202001F067FF03AB1B68022B77
:100DC00007D0139B002B01D0139B01E001235B4252
:100DD000139303AB5B6800220021180002F0A4F813
:100DE00003000F9303AB58680E9A0B23002102F007
:100DF0005FF8030010930F9B002B0AD1109B0B2B65
:100E000007D117490E9B0B22180039F019F9031E60
:100E100004D0019B012252421A6002E0019B002291
:100E20001A6003AB5B68139A1100180002F010F906
:100E3000FFF771FC030012930E9B180038F0E0F9E5
:100E4000139B002B01D0139B00E0129B1393139B69
:100E5000180015B000BDC04630FE031030FC031072
:100E600068FC031000B595B0019000231393002394
:100E7000129302AB18002C231A00002138F08CFDCD
:100E8000002311930023109300230F9300230E934C
:100E90000B2038F0ABF903000D930D9B002B07D10D
:100EA0006823FF331A004049404B18002DF0A2F987
:100EB000FFF7FCFB03001393139B002B05D00D9B46
:100EC000180038F09DF9139B6AE080231B06180078
:100ED00001F0BEFE03001193119B2022134002D1AA
:100EE00001235B42139302AB1900202001F0CCFEDA
:100EF00002AB1B68022B07D0139B002B01D0139B66
:100F000001E001235B42139302AB58680D9A03235F
:100F1000002101F0CDFF0300109302AB5B680522B6
:100F20000021180002F000F803000E9302AB58688D
:100F30000D9BDA1C0823002101F0BAFF03000F9378
:100F4000109B032B0DD10E9B052B0AD10F9B082B59
:100F500007D117490D9B0B22180039F071F8031EB9
:100F600004D0019B012252421A6002E0019B002240
:100F70001A6002AB5B68139A1100180002F068F85F
:100F8000FFF7C9FB030012930D9B180038F038F9E6
:100F9000139B002B01D0139B00E0129B1393139B18
:100FA000180015B000BDC04650FE031030FC031001
:100FB00074FC031000B595B0019000231393002337
:100FC000129302AB18002C231A00002138F0E4FC25
:100FD000002311930023109300230F9300230E93FB
:100FE000082038F003F903000D930D9B002B06D168
:100FF000CC235A003F49404B18002DF0FBF8FFF777
:1010000055FB03001393139B002B05D00D9B180079
:1010100038F0F6F8139B6AE080231B06180001F0F5
:1010200017FE03001193119B2022134002D10123CC
:101030005B42139302AB1900202001F025FE02ABA6
:101040001B68022B07D0139B002B01D0139B01E0E0
:1010500001235B42139302AB58680D9A05230021CC
:1010600001F026FF0300109302AB5B68042200210D
:10107000180001F059FF03000E9302AB58680D9B56
:101080005A1D0223002101F013FF03000F93109B50
:10109000052B0DD10E9B032B0AD10F9B002B07D1E3
:1010A00016490D9B0522180038F0CAFF031E04D014
:1010B000019B012252421A6002E0019B00221A6049
:1010C00002AB5B68139A1100180001F0C1FFFFF733
:1010D00022FB030012930D9B180038F091F8139B2C
:1010E000002B01D0139B00E0129B1393139B18005D
:1010F00015B000BD70FE031030FC031080FC03101F
:1011000000B595B0019000230F9303AB18002C237A
:101110001A00002138F040FC00230E9300231393A3
:1011200000231293002311930023109380231B06A6
:10113000180001F08DFD03000F930F9B2022134038
:1011400007D1CC23FF331A006E496F4B18002DF0E6
:1011500051F803AB1900202001F096FD03AB1B688A
:10116000022B33D0032B00D176E0012B00D09FE07F
:1011700003AB9B68002B06D0E9235A006149634BFF
:1011800018002DF037F8082038F030F803000E93DF
:101190000E9B002B07D1D823FF331A0059495C4B13
:1011A00018002DF027F80E9B00221A600E9B0122DA
:1011B0005A6003AB5B680E9A1100180002F00CF93C
:1011C0000E9B1393129B0133129378E003ABDA6802
:1011D00003AB1B69D21803AB5B69D318002B07D094
:1011E000E223FF331A0047494A4B18002DF002F85A
:1011F00003AB9B68002B07D1E623FF331A0041495C
:10120000454B18002CF0F6FF03AB9A68139B9A42EB
:1012100007D0EA23FF331A003A49404B18002CF05C
:10122000E9FF03AB9B680E930E9B1B685A1C0E9B39
:101230001A600E9B5A680E9B1B685A430E9B5A609D
:1012400003AB58680E9B1A1D0423002101F07CFE9D
:10125000119B0133119332E003AB9B68002B06D145
:10126000FA235A0027492E4B18002CF0C3FF03AB7A
:101270009A68139B9A4206D0FC235A002149274BB7
:1012800018002CF0B7FF0B236B440A221A7003AB33
:101290005B680B226A441100180002F09DF803AB52
:1012A0009B68180037F0ACFF109B0133109306E0E9
:1012B00003AB1B681B4A13491B482CF09BFF002300
:1012C0000E9303AB5B680021180001F0C1FE109B78
:1012D000002B00D12AE7C046129B012B05D1119BA0
:1012E000052B02D1109B012B04D0019B01225242FD
:1012F0001A6002E0019B00221A60019B1B68180023
:1013000015B000BD9CFE031088FC0310CCFC03103C
:1013100030FC0310F4FC031030FD03105CFD0310DF
:1013200088FD031003020000B8FD031000B59DB056
:1013300003900023199309AB18002C231A000021F5
:1013400038F02AFB00231B930023189300231A93E1
:1013500000231793002316933C2037F047FF030028
:101360001593159B002B06D189239A0059495A4B96
:1013700018002CF03FFF159B3C220021180038F08C
:101380000BFBFFF793F903001B931B9B002B05D06E
:10139000159B180037F034FF1B9B98E080231B0639
:1013A000180001F055FC03001993199B20221340EB
:1013B00002D101235B421B9309AB1900202001F0ED
:1013C00063FC09ABDA6809AB1B69D21809AB5B692E
:1013D000D318002B07D11B9B002B01D01B9B01E0D6
:1013E00001235B421B9309ABDB68169309AB58687A
:1013F000169B159A002101F05BFD03001793179BC4
:10140000152B07D01B9B002B01D01B9B01E0012358
:101410005B421B93159A169BD318169A15991800C0
:1014200038F028FA179B5B00179307AB159A1A60E0
:1014300007AB179A5A6005AB159A1A6005AB179A55
:101440005A60264B0521180000F08AFD0300149312
:10145000149B002B02DC01235B421A931A9B002B86
:101460000AD105AA07A914980123009313000122A9
:1014700000F05CFE03001A93039B1A9A1A601A9BF1
:10148000002B03D1149B180000F01AFF1A9B002BAD
:1014900006D109AB5868179B159A002101F054FD3D
:1014A00009AB5B681A9A1100180001F0D1FD159B79
:1014B000180037F0A5FEFFF72EF9030018931B9BC9
:1014C000002B01D01B9B00E0189B1B931B9B18005B
:1014D0001DB000BDC4FE031030FC0310031A000051
:1014E00000B595B003900023119304AB18002C2392
:1014F0001A00002138F050FA0023139300231093B0
:1015000000231293FFF7D2F803001393139B002BD1
:1015100001D0139B73E080231B06180001F098FB99
:1015200003001193119B2022134002D101235B423F
:10153000139304AB1900202001F0A6FB04ABDA687A
:1015400004AB1B69D21804AB5B69D318002B03D121
:1015500004ABDB69002B07D0139B002B01D0139B3E
:1015600001E001235B421393264B0521180000F094
:10157000F7FC03000F930F9B002B02DC01235B425F
:101580001293129B002B09D10F9800230093002384
:101590000022002100F0CAFD03001293129B002BD1
:1015A0000ED180231B061900082001F05EFB03000A
:1015B0001193119B0822134002D101235B42129325
:1015C000129B002B05D101F0B5FE0F9B180000F017
:1015D00077FE039B129A1A6004AB5B68129A1100A3
:1015E000180001F035FDFFF796F803001093139BE8
:1015F000002B01D0139B00E0109B1393139B18004A
:1016000015B000BD041A00002C4B05E02C4B03E084
:101610002C4B01E02C4BFFE7EFF308802B4972467F
:101620000A4201D0EFF309809C46294B19680268F1
:101630000A60043142680A60043182680A60043139
:10164000C2680A600431F0C147460F6004314F465A
:101650000F60043157460F6004315F460F6004315C
:1016600002690A60083142690A60043182690A60CD
:101670000431C2690A60043103462033154E3242F8
:1016800000D0043375460D4E354200D148330C4628
:10169000103C2360EFF309820A600431EFF3088203
:1016A0000A60043172460A600431EFF314820A6062
:1016B0006046074900F010F8FEE700001000000047
:1016C0002000000030000000400000000400000086
:1016D000F0FE03100002000000B587B003900291F5
:1016E000002305931C4B18002CF0FCFB039B302BB4
:1016F0000AD0402B0FD0202B14D1184B18002CF0FF
:10170000F1FB174B059314E0164B18002CF0EAFB85
:10171000154B05930DE0154B18002CF0E3FB144B13
:10172000059306E0134B18002CF0DCFB124B0593DD
:10173000C046124B18002CF0D5FB00F027F8104BD8
:1017400018002CF0CFFB0F4BDA6B0F4905980023E4
:10175000009300232CF0FCFDF4FE031020FF031087
:101760003E01FF8030FF03103F01FF803CFF03106C
:101770004001FF8048FF03103D01FF8054FF03102C
:1017800060FF03103483000880FF031070B586B03B
:10179000002305930CE02E4A059B9B00D3181A6882
:1017A00005992C4B18002CF09DFB059B01330593EC
:1017B000059B0C2BEFDD264B5C6B254B9D6B244B67
:1017C000DE6B234B1A6C224B596C214B9B6C2248CD
:1017D00002930191009233002A0021002CF082FB39
:1017E0001E4B1A681E4B110018002CF07BFB184B87
:1017F000DB6C0822134012D01A4B18002CF072FB3D
:10180000134B1B6D0122134004D0174B18002CF012
:1018100069FB0CE0154B18002CF064FB07E0144B3F
:1018200018002CF05FFB114B18002CF05BFB084BF1
:10183000DB6C0422134004D00E4B18002CF052FB3A
:1018400003E00D4B18002CF04DFBC04606B070BDF8
:101850003483000890FF0310A0FF031000ED00E0A8
:10186000F0FF03100000041010000410200004100A
:1018700034000410440004105000041082B00190A1
:101880000091009B180002B07047000000B58BB0BB
:10189000039002910192039B002B05D139493A4BE9
:1018A0002C2218002CF064FA029B002B05D135493C
:1018B000364B2D2218002CF05BFA00F00DFE0300D1
:1018C0000793079B002B02D0079B1B6801E00123B5
:1018D0005B4206932E4B0493039B04A9002218003D
:1018E0002CF0D8FB039B012118002CF019FC0300FD
:1018F00005930023099300230893002308932CE009
:1019000000230493089B1A04059B13430993039B2C
:101910009A68089B1B01D3181800099A04AB190098
:101920002CF0B8FB031E15D0039B9A68089B1B0183
:10193000D318029ADA60039B9A68089B1B01D3189C
:10194000069A5A60039B9A68089B1B01D318019A58
:101950009A6007E0089B01330893039B5A68089B31
:101960009A42CDD8039B5A68089B9A4205D10549F3
:10197000084B5D2218002CF0FBF9099B18000BB0F6
:1019800000BDC0465C000410A4000410C000041098
:10199000FFFF0000DC00041000B589B00390029145
:1019A000039B002B05D13649364B662218002CF0DC
:1019B000DFF9029B002B05D13149334B6722180018
:1019C0002CF0D6F9029B1B0C0793039B5A68079BCC
:1019D0009A4209D8079A039B5B682C492C480093CC
:1019E00013006D222CF006FC039B9A68079B1B01D9
:1019F000D3181A68029B9A4205D0029B23492548B6
:101A000071222CF0F7FB00F067FD03000693069BA4
:101A1000002B02D0069B1B6801E001235B4205936B
:101A2000039B9A68079B1B01D3185A68059B9A422F
:101A30000ED0039B9A68079B1B01D3189A68059BDD
:101A40009A4205D01149144B7B2218002CF0D2FB8E
:101A5000039B9A68079B1B01D31800221A60039B03
:101A60009A68079B1B01D31800225A60039B9A684F
:101A7000079B1B01D31800229A60C04609B000BD25
:101A80005C000410A400041000010410AC02041057
:101A90001C01041068010410A401041000B589B0F1
:101AA00003900291039B002B05D13649364B8622C9
:101AB00018002CF05DF9029B002B05D13349344B03
:101AC000892218002CF096FB029B1B0C0793039BAA
:101AD0005A68079B9A4209D8079A039B5B682B496F
:101AE0002C48009313008F222CF084FB039B9A68F0
:101AF000079B1B01D3181A68029B9A4205D0029BD0
:101B00002249254893222CF075FB00F0E5FC0300E8
:101B10000693069B002B02D0069B1B6801E0012365
:101B20005B420593039B9A68079B1B01D3185A6875
:101B3000059B9A420ED0039B9A68079B1B01D31802
:101B40009A68059B9A4205D01049144B9D221800B3
:101B50002CF050FB039B9A68079B1B01D318DB6892
:101B6000002B05D107490E4BA22218002CF000F9DA
:101B7000039B9A68079B1B01D318DB68180009B008
:101B800000BDC0465C000410A4000410C80204108C
:101B9000E00104101C01041068010410200204106C
:101BA0007002041084B001900091002303930FE0B1
:101BB000019B1A69039B5B01D3180293029B1A686D
:101BC000009B9A4201D1029B08E0039B01330393DF
:101BD000019B5A69039B9A42EAD80023180004B07B
:101BE0007047000000B585B001900023039316E014
:101BF0000F4B1968039A13009B009B18DB00CB184E
:101C0000019A11001800FFF7CDFF03000293029B19
:101C1000002B01D0029B08E0039B01330393044B8C
:101C20005A68039B9A42E3D80023180005B000BD10
:101C3000BC02000800B587B003900291029B002B04
:101C40000DD1039B1B7D01225340DBB2002B06D03C
:101C5000039B1B681A491B4838222CF0CBFA029BC5
:101C6000002B2BD0029B9B69002B06D1029B1B688B
:101C7000134915483D222CF0BDFA002305930CE0D2
:101C8000029B9A69059B9B00D3181A68039B1B68EB
:101C90009A4212D0059B01330593029BDA69059B9A
:101CA0009A42EDD8039B1A68029B1B6804490748B7
:101CB0000093130046222CF09DFAC04607B000BDE9
:101CC000E0050410E40204101C0304105403041083
:101CD00000B583B001900091009A0199034B180060
:101CE000FFF7D4FD0300180003B000BDC4020008D4
:101CF00000B583B00190019A044B11001800FFF762
:101D0000CDFE0300180003B000BDC046C4020008A9
:101D100000B585B001900091019B9B681A6A012370
:101D20005B42190010002FF081FD03000393039B19
:101D3000002B05D02349244B572218002CF018F80B
:101D4000019BDB69002B03D1019B009A9A6103E0A0
:101D5000019BDB69009A1A61019B009ADA61019B81
:101D60009B685A68019B5B681900100031F0B2FA59
:101D700003000293029B002B05DA1249134B6622E3
:101D800018002BF0F5FF019B5B68029A134005D108
:101D90000C490F4B672218002BF0EAFF019B9B6850
:101DA0001B6A18002FF06CFD03000393039B002BAC
:101DB00005D00449044B6B2218002BF0D9FFC04614
:101DC00005B000BD94030410D8030410EC03041004
:101DD0000804041030B58BB005900491049B002BCF
:101DE00005D15649564B702218002BF0C1FF059BB8
:101DF0001800FFF7F7FE03000993099B002B05D19C
:101E0000059B5049504874222CF0F4F9099B1B693A
:101E1000002B05D1049B1A68099BDB689A4209D8FC
:101E2000099B1B69012B17D1049B1A68099BDB686E
:101E30009A4211D0049B1D68099B1A68099BD968B6
:101E4000099B1B693F4C41480293019100922B0072
:101E50007A2221002CF0CEF900F03EFB030008931B
:101E6000089A099B11001800FFF7E4FE089A049BEA
:101E70000C21180000F06AFB03001A0001235340F4
:101E8000DBB2002B05D02F49314B812218002CF0FA
:101E9000B1F9304B1B6A002118002EF0CDFB030076
:101EA0000793079B002B1BD1049B2B4A5A60089B6E
:101EB000002B0FD0049B9B6818002FF0F1FF03004C
:101EC0000693069B002B35D01C49244B8A22180010
:101ED0002BF04EFF049B9B68180001F0C3FB29E028
:101EE000099B9B681A68079B11001800FFF7F0FE1A
:101EF0000200049B5A60079B02225A75079B089AAE
:101F00001A60079B099A5A60079B049ADA60079B3C
:101F100001221A75079B00229A60079B00221A6112
:101F2000079B00229A75079A099B11001800FFF77A
:101F3000EFFE00E0C0460BB030BDC0469403041075
:101F400024040410CC0504103804041058040410B0
:101F5000B4040410BC02000801000080D80304107F
:101F600000B58FB00190009109AB180010231A0042
:101F7000002137F011FD05AB00221A6005AB0022ED
:101F80005A6005AB09AA9A6005AB1022DA6002AB71
:101F9000009A1A6002AB00225A6005AB1A000021B9
:101FA00001202FF029FF020002AB9A6002AB9B6870
:101FB000002B05D119491A4BB72218002CF01AF939
:101FC00002AA019B11001800FFF704FF02AB9A68F8
:101FD00001235B42190010002FF03AFF03000D931C
:101FE0000D9B002B05D00F490F4BBD2218002BF085
:101FF000BFFE02AB9B6818002FF074FF03000D9327
:102000000D9B002B05D00749074BC02218002BF071
:10201000AFFE02AB5B6818000FB000BD00060410F5
:10202000E404041094030410D803041000B585B030
:1020300001900091009B002B05D13649364BC922F7
:1020400018002BF095FE019B1800FFF751FE0300CE
:102050000393039B002B05D12E49304BCB22180054
:102060002BF086FE039B1A68009B1821180000F0D5
:102070006DFA03001A0001235340DBB2002B05D098
:102080002749284BCE2218002CF0B4F8039B9B7DE7
:10209000012B1DD1009B802212061A61039B1B6835
:1020A000002B05D1009B5B69180001F0DBFA2EE0E4
:1020B000009B5B6918002FF0F3FE03000293029B64
:1020C000002B24D01349184BD82218002BF050FEB7
:1020D000039B153304220321180000F0A3F9039B8E
:1020E000009ADA60039B02221A75009B1868009B15
:1020F0005968009B9A68009BDB6800F067F9039BB6
:102100005B68039A11001800FFF702FE00E0C0466A
:1021100005B000BD94030410240404101C05041031
:102120000C06041034050410D803041000B595B053
:1021300003900291019200930FAB180010231A0034
:10214000002137F029FC0BAB00221A600BAB0022F8
:102150005A600BAB0FAA9A600BAB1022DA6005AB8A
:10216000029A1A6005AB019A5A6005AB009A9A6010
:1021700005AB169ADA6005AB00221A610BAB1A00A8
:10218000002101202FF038FE020005AB5A6105AB9B
:102190005B69002B06D183235A001B491B4B180097
:1021A0002CF028F805AA039B11001800FFF73EFF4A
:1021B00005AB5A6901235B42190010002FF048FE5D
:1021C00003001393139B002B06D086235A0010495B
:1021D000104B18002BF0CCFD05AB5B6918002FF0FD
:1021E00081FE03001393139B002B07D01023FF33B2
:1021F0001A000749074B18002BF0BAFD05AB1B6905
:10220000180015B000BDC0461C060410E4040410FC
:1022100094030410D803041000B585B00190009118
:10222000009B002B06D18C235A002049204B18001C
:102230002BF09EFD019B1800FFF75AFD030003934E
:10224000039B002B07D11C23FF331A001749194B9E
:1022500018002BF08DFD039B1A68009B08211800C5
:1022600000F074F903001A0001235340DBB2002B85
:1022700006D08F235A001049104B18002BF0BAFFDC
:10228000039B15330321180000F004F9039B009A07
:10229000DA60039B03221A75039B5B68039A1100A3
:1022A0001800FFF735FDC04605B000BD94030410CB
:1022B000240404101C0504102806041064050410EE
:1022C00000B58FB00190019B002B55D009AB1800D1
:1022D00010231A00002137F05FFB05AB00221A60C3
:1022E00005AB00225A6005AB09AA9A6005AB102223
:1022F000DA6003AB019A1A6005AB1A0000210120D5
:102300002FF07AFD020003AB5A6003AB5B68002B31
:1023100006D1A1235A001A491A4B18002BF06AFF64
:1023200003AA019B11001800FFF776FF03AB5A6860
:1023300001235B42190010002FF08AFD03000D936A
:102340000D9B002B06D0A4235A000F490F4B1800F9
:102350002BF00EFD03AB5B6818002FF0C3FD0300EC
:102360000D930D9B002B08D04C23FF331A00064918
:10237000064B18002BF0FCFCC0460FB000BDC04659
:10238000380604109405041094030410D8030410B4
:1023900000B585B0019000230393019B1800FFF75F
:1023A00021FC03000293029B002B0AD000F094F85A
:1023B000031E03D1029B1B7D002B02D0029BDB6816
:1023C0000393039B180005B000BD000000B589B061
:1023D0000790069105920493079B002B02D1069B60
:1023E000002B0AD1059B002B02D1049B002B04D1AA
:1023F000069A049BD318042B0CD9079A074908485E
:10240000049B0293059B0193069B009313002722D4
:102410002BF0F0FEC04609B000BDC04660070410B6
:102420004406041000B587B00390080011000B2388
:102430006B44021C1A700A236B440A1C1A7017237F
:102440006B440B226A4412781A700A236B441A7880
:102450000B216944039B18002BF0ECFD03001A00CC
:1024600001235340DBB2002B0DD00B236B441B78B0
:102470001A0017236B441B78044905480093130086
:1024800030222BF0B7FEC04607B000BD7007041025
:102490009806041000B585B003900A000B236B4426
:1024A0001A70039B1B780B226A4412789A420CD054
:1024B000039B1B781A000B236B441B7804490548C7
:1024C0000093130038222BF095FEC04605B000BDE6
:1024D000880704109806041000B583B030F0D0FED1
:1024E00003000093009B002B05D11549154B5E227C
:1024F00018002BF03DFC0023019317E0124B1968E4
:10250000019A13009B009B18DB00CB185A68009BB4
:102510009A4208D10C4B1968019A13009B009B1832
:10252000DB00CB1808E0019B01330193064B5A688E
:10253000019B9A42E2D80023180003B000BDC046B8
:10254000E006041040070410BC0200088CB00390A1
:1025500002910192039B002B01D1002376E0029BA4
:10256000002B01D1012371E0039A029BD3185A1E5C
:10257000039B9A4201D2002368E080231B050B9342
:1025800080235B020A9380235B05099380231B034E
:102590000893304B0793304B0693304B0593F02351
:1025A000DB020493019B002B27D1039A079B9A42DD
:1025B0000FD3079A069BD218039B9A4209D9039A14
:1025C000029BD2180799069BCB189A4201D8012387
:1025D0003CE0039A059B9A4237D3059A049BD21894
:1025E000039B9A4231D9039A029BD2180599049B06
:1025F000CB189A4229D8012328E0039A0B9B9A42D0
:102600000FD30B9A0A9BD218039B9A4209D9039ABB
:10261000029BD2180B990A9BCB189A4201D801232E
:1026200014E0039A099B9A420FD3099A089BD21887
:10263000039B9A4209D9039A029BD2180999089BD5
:10264000CB189A4201D8012300E0002318000CB0F7
:102650007047C04600000108007703000000081022
:1026600010B531F0CBFE174B1A0018210A202DF0BF
:10267000B7FF0200144B1A62134B1B6A002B05D1E3
:10268000124A134B110018002BF0B4FD114B1A0025
:1026900028210A202DF0A4FF02000B4B5A620A4B9E
:1026A0005B6A002B05D1094A0B4B110018002BF077
:1026B000A1FD054B1800FDF7C3FF0200024B5A6055
:1026C000C04610BD8C020008BC020008300804108F
:1026D000D0070410A4020008FC07041010B5034B37
:1026E0001B68180001F01AF9F9E7C046E802000873
:1026F00084B001900023039317E0104B1968039AEC
:1027000013009B009B18DB00CB181A68019B9A42B0
:1027100008D10A4B1968039A13009B009B18DB0031
:10272000CB1808E0039B01330393044B5A68039BC7
:102730009A42E2D80023180004B07047BC02000897
:1027400000B583B001900091009A0199034B1800E5
:10275000FFF79CF80300180003B000BDD00200088A
:1027600000B583B00190019A044B11001800FFF7E7
:1027700095F90300180003B000BDC046D002000860
:1027800000B583B00190019A034B11001800FFF7C8
:1027900003F9C04603B000BDD002000800B583B005
:1027A0000190019A034B11001800FFF7F5F8C0469D
:1027B00003B000BDC402000884B001900091002362
:1027C000039311E0019B1A69039B5B01D3185A68BC
:1027D000009B9A4205D1019B1A69039B5B01D318A8
:1027E00008E0039B01330393019B5A69039B9A42C0
:1027F000E8D80023180004B07047000010B596B068
:102800000190009103AB180028231A00002137F033
:10281000C3F803AB019A1A60019B1B7D022B00D009
:10282000F6E0019BD868019B1B681A001821FFF78E
:102830008DFE03001A0001235340DBB2002B05D0AC
:102840008D498E4B5B2218002BF0D4FC019BDB687A
:102850001393139B1B681293139B5B681193139B39
:102860009B681093139BDB680F930F9B109A119931
:102870001298FFF7ABFD119BD9B203AB24229954F8
:10288000119B002B5DD0119BD900019B1A68129BF4
:102890001800FFF75BFE03001A0001235340DBB270
:1028A000002B05D07449764B6B2218002BF0A2FC4C
:1028B0000023159341E0159BDB00129AD3185B6847
:1028C000002B36D0159BDB00129AD01803AA159B5B
:1028D000DB000421D3185B18020003CA03C3159B55
:1028E000DB00129AD3185A680099159B02339B009B
:1028F000CB1804331A6003AA159BDB00D3180433EA
:10290000186803AA159BDB00D31808331968019BCC
:102910001B681A00FFF71AFE03001A000123534038
:10292000DBB2002B06D0159B534956487C222BF076
:1029300061FCC046159B01331593159A119B9A4271
:10294000B9D30F9B002B63D00F9BD900019B1A6852
:10295000109B1800FFF7FAFD03001A0001235340F3
:10296000DBB2002B05D04449474B832218002BF0E3
:1029700041FC0023149347E0149BDB00109AD3180A
:102980005B68002B3CD0119A149BD318149AD20088
:102990001099881803AADB000421D3185B180200E1
:1029A00003CA03C3149BDB00109AD3185A6800991A
:1029B000149B06339B00CB1804331A60119A149BA6
:1029C000D31803AADB00D31804331868119A149B98
:1029D000D31803AADB00D31808331968019B1B68BE
:1029E0001A00FFF7B3FD03001A0001235340DBB2C6
:1029F000002B06D0149B2049244894222BF0FAFB8C
:102A0000C046149B01331493149A0F9B9A42B3D37C
:102A10001F4B5A6A01235B42190010002DF00CFE77
:102A200003000E930E9B002B05D11349194B9D22D9
:102A300018002BF0DFFB0E9B03AA13CA13C313CAA3
:102A400013C313CA13C312681A600E9B0021180027
:102A5000FFF776FE03000D93019B1B7D1A00009B80
:102A60001A60019B9A68009B9A60009B0D9A5A60BD
:102A7000C04616B010BDC046800E041040080410B9
:102A80006808041088080410AC080410CC0804106E
:102A9000BC020008F008041000B587B00190019B4B
:102AA0009B681A6A01235B42190010002EF0BEFEDB
:102AB00003000593059B002B05D02849284BAD2228
:102AC00018002BF055F9019B9B690493049B002B84
:102AD00005D12449244BB32218002BF08BFB049B17
:102AE0001A69019B9A61049B00221A61019B9B69F0
:102AF000002B1DD1019B0022DA61019B5B6818004D
:102B000030F010FC03000393039B002B05DA1349FC
:102B1000164BBF2218002BF02BF9019B5B68039A20
:102B2000134005D10D49124BC02218002BF020F99B
:102B3000019B9B681B6A18002EF0A2FE0300059300
:102B4000059B002B05D00549054BC52218002BF02D
:102B50000FF9049B180007B000BDC0461C09041003
:102B600060090410940E04107409041094090410F0
:102B7000B009041000B58BB00491039217236B4485
:102B8000021C1A70FFF7A8FC03000993099B002B95
:102B900005D12A492A4BCE2218002BF0E9F8099BCF
:102BA000DB68082213430893099B9A68089B134328
:102BB000079317236B441B78002B02D0079B0493C9
:102BC0000EE0089B049A1A40049B9A4208D0049A8B
:102BD0001C491D48089B00931300DB222BF00AFBC5
:102BE000039A80231B069A4201D0039B01E0012334
:102BF0005B4204981A00022130F0D0FB03000693D8
:102C0000069B079A1A40069B9A420DD0039A80238E
:102C10001B069A4202D0069B023305D007490B4B94
:102C2000E72218002BF0A4F8069B023301D0069B84
:102C300000E0002318000BB000BDC0461C090410C2
:102C4000CC090410B40E0410EC090410280A041076
:102C500000B583B00190019B1A0000210120FFF70D
:102C600089FF0300180003B000BD00B583B00190D8
:102C70000091009A019B19000020FFF77BFF0300E1
:102C8000180003B000BD000010B58AB00390029197
:102C9000FFF722FC03000993099B002B05D1514942
:102CA000514BF92218002BF063F8099A029B2C2152
:102CB0001800FFF74BFC03001A0001235340DBB25E
:102CC000002B05D049494A4BFC2218002BF092FA00
:102CD000029B2C220021180036F05EFE039B002B85
:102CE00006D0039B013B039A134001D1012200E06F
:102CF000002223236B441A701A7801210A401A70AB
:102D000023236B441B7801225340DBB2002B04D1F8
:102D1000099B9B68039A13400AD1099B9B68039CFB
:102D20008422520031493348009323002BF062FA89
:102D300030F01CFB03000793039B079A134007D155
:102D40000E23FF331A0029492B4B18002BF052FA9F
:102D5000039A099B11001800FFF72EFD030006934C
:102D6000069B002B07D1039C89235A001F49234847
:102D700023002BF03FFA069B1800FFF78DFE03009F
:102D80000593059B1B7D022B0AD0032B10D0012B32
:102D900015D1059B153302211800FFF77BFB18E0C6
:102DA000059B1533052204211800FFF73BFB10E0BB
:102DB000059B153303211800FFF76CFB09E0059B09
:102DC0001B7D1C0097235A0008490D4823002BF057
:102DD00011FA029A059B11001800FFF70FFDC0467B
:102DE0000AB010BD1C090410CC090410C00E041058
:102DF000A40A0410C00A04100C0B0410280B0410C1
:102E0000780B041000B587B00390029101920093F3
:102E1000039B1800FFF7A4FC03000593059B1B68A8
:102E2000153305211800FFF735FB029B032B06D94C
:102E30009E235A001C491D4B18002BF0DBF9059B03
:102E400024229B5C1A00029B9A4201D8002327E0AF
:102E5000029BDB00059AD31804330493049B5A6841
:102E6000009B9A4202D2049B5B680093009B002B5C
:102E700015D0019B002B06D0049B1968009A019B7A
:102E8000180036F0F7FC049B1A68009BD218049BCC
:102E90001A60049B5A68009BD21A049B5A60009BDC
:102EA000180007B000BDC046C80E0410A80B0410DF
:102EB00000B587B00390029101920093FFF70CFBDD
:102EC00003000593059B002B07D15823FF331A00FD
:102ED0001149124B18002AF04BFF059A0099019BEB
:102EE0001800FFF733FB03001A0001235340DBB245
:102EF000002B06D0AD235A0009490A4B18002BF0CD
:102F000079F9009B019A02990398FFF77BFF030070
:102F1000180007B000BDC0461C090410CC090410FD
:102F2000D80E0410C40B041000B585B003900291B4
:102F30000192019B029903980022FFF763FF0300AF
:102F4000180005B000BD000010B58AB005900491CE
:102F500003920293029B002B6BD0FFF7BDFA030094
:102F60000993099B002B06D1B6235A003249334BF3
:102F700018002AF0FDFE099A0299039B1800FFF73A
:102F8000E5FA03001A0001235340DBB2002B07D0FF
:102F90007023FF331A002A492A4B18002BF02AF914
:102FA000059B1800FFF7DCFB03000893089B1B68D8
:102FB000153305211800FFF76DFA089B24229B5C4E
:102FC0001A00049B9B180493049B032B06D9BC2373
:102FD0005A001B491C4B18002BF00CF9049BDB001A
:102FE000089AD31804330793079B5A68029B9A42A6
:102FF0000AD2079B5B68029C7E22FF32104913486D
:10300000009323002BF0F6F8079B1B68029A0399A4
:10301000180036F02FFC079B1A68029BD218079BFA
:103020001A60079B5A68029BD21A079B5A60C046D7
:1030300000E0C0460AB010BD1C090410CC09041001
:10304000E40E0410C40B0410E40B0410000C041074
:1030500010B58EB001900091019B1800FFF780FB26
:1030600003000B930B9B1B680D930D9B002B07D14B
:103070008C23FF331A008B498B4B18002AF078FE03
:103080000D9BDB68002B06D1C6235A008549874B70
:1030900018002AF06DFE019B1800FFF771FB0B9BD7
:1030A00028220021180036F077FC814B5B6A0B9ACE
:1030B000110018002DF0E8FA03000A930A9B002B78
:1030C00006D0CB235A0077497A4B18002AF050FEDD
:1030D00000230C930D9B1A6827236B4451424A41ED
:1030E0001A700D9B1B7D022B51D0032B00D178E071
:1030F000012B00D0A3E0009B002B0CD0009B6E4A5C
:10310000934208D0009CA023FF331A006B496C48FF
:1031100023002BF06FF80D9BDB680893089B9B68DE
:103120000C93009B644A934229D10D9B15330221D5
:103130001800FFF7AFF9089B5B681800FFF72EFB3C
:103140000D9B18220021180036F026FC584B1B6AF4
:103150000D9A110018002DF097FA03000793079BB2
:10316000002B06D0D9235A004E49524B18002AF0A2
:10317000FFFD089B009A5A6000230D936BE00D9BA6
:103180001533032202211800FFF74CF963E0009A7F
:1031900080231B069A420BD0009B4A4A934207DACF
:1031A000009CE0235A004549474823002BF022F8B1
:1031B0000D9B1533032205211800FFF733F9009A00
:1031C00080231B069A4202D10D9B01229A750D9B0A
:1031D000DB680693069B009A1A61069B5B690C9359
:1031E00039E00D9BDB680593059B5B680C930D9B99
:1031F0001533012203211800FFF714F9059B1B6802
:103200001800FFF7CBFA0D9B18220021180036F0AA
:10321000C3FB274B1B6A0D9A110018002DF034FADE
:103220000300049300230D93049B002B12D0E22390
:10323000FF331A001B491F4B18002AF099FD0D9B04
:103240001B7D1C00EA23FF331A001C491F48230082
:103250002AF0D0FFC0460D9B002B05D00D9B00220D
:10326000DA600D9B00221A7527236B441B78002B14
:1032700004D00C9B180000F0F5F90FE00C9B18002F
:103280002EF00EFE03000393039B002B06D0FB23BE
:103290005A000449074B18002AF06AFDC0460EB0D8
:1032A00010BDC0461C090410400C0410600C041032
:1032B000BC0200086009041001000080F00E041038
:1032C000880C041080000080C40C0410FC0C041056
:1032D00000B585B00190019B1800FFF709FA0300C3
:1032E0000393039B002B05D1019B0C4A0C490D480D
:1032F0002AF080FF039B5B68082118002FF0EAFF8B
:1033000003000293029B002B05DA074A0749084B8A
:1033100018002AF02DFDC04605B000BD03020000D4
:10332000FC0E0410300D04100A0200001C090410E9
:103330009409041000B583B008202FF0F3FF0300B8
:103340000193019B002B05DA094A0A490A4B180030
:103350002AF00EFD019B0822134005D1074A0849B7
:10336000084B18002AF046FFC04603B000BDC04617
:10337000130200001C090410940904101702000035
:10338000080F0410680D041000B585B00190019B72
:103390001800FFF7E5F903000393039B1B68002B5C
:1033A00005D10A4A0A490B4B18002AF0E1FC039B9D
:1033B0001B681B68002B02D101235B4203E0039BC7
:1033C0001B681B681B68180005B000BD1E020000CA
:1033D0001C0904109C0D041000B585B001900091EB
:1033E000019B1800FFF7BCF903000393039B1B68C4
:1033F000009A9A60C04605B000BD000000B583B0D9
:10340000154B1B685B6918002EF04AFD0300019301
:10341000019B002B08D0019B033305D00F49104BB3
:10342000442218002AF0A4FC0E4B1B681B691800EC
:103430002EF036FD03000193019B002B08D0019B69
:10344000033305D00549064B472218002AF090FCAB
:10345000C04603B000BDC046E40200082C0F0410B3
:103460008C0F0410E802000810B531F0E1F8C046F6
:1034700010BD10B531F0DCF8C04610BD00B587B006
:1034800001AB186059609A6001AB1B68022B11D028
:1034900002D8012B05D045E0032B15D0042B1DD0FD
:1034A00040E001AB9A6801AB5B6819001000FEF7C1
:1034B00091FC3DE001AB9B681A0001AB5B68190011
:1034C0001000FEF7B3FD33E001AB9B681A0001ABBF
:1034D0005B6819001000FEF79FFE29E001AB5B68F6
:1034E0000593059B002208211800FFF72FF8030021
:1034F0001A0001235340DBB2002B05D00E490F4BBD
:103500006C2218002AF076FE01AB9B681800FEF7CB
:103510003FFF0200059B1A60059B5B68180000F0E6
:10352000A1F805E00649074B752218002AF020FC97
:10353000C04607B000BDC04668100410C40F041098
:103540002C0F0410EC0F041000B599B0394B1793F1
:103550000FAB394A1A60179B0C331A000FAB5A6035
:10356000179B48331A000FAB9A606B4618003C2338
:103570001A00002136F010FA6B46304A1A600FAB81
:103580005B6816930FAB9B6815936946169B3C22AC
:10359000180036F06FF96946159B3C22180036F08A
:1035A00069F90FA9179B0C22180036F063F9244B18
:1035B00018002EF017F903001493149B002B05D16B
:1035C0002049214B9F2218002AF0D2FB1F4B1A00E2
:1035D000002101202EF010FC03001393139B002BFD
:1035E00005D118491A4BA22218002AF0C1FB194B29
:1035F0001A00002101202EF0FFFB03001293129B02
:10360000002B05D10F49144BA52218002AF0B0FB5E
:10361000124B1868139B149A159900F03DF8104B43
:103620001B68129A1699180000F096F8C04619B057
:1036300000BDC04600770408779A333D0C4A2863E2
:10364000381004102C0F0410F40F0410481004104C
:10365000081004105810041020100410E402000890
:10366000E802000800B587B0019003AB18000C23F6
:103670001A00002136F090F9019A03AB5A60054B0D
:10368000186803AB19685A689B6800F0B5F8C04623
:1036900007B000BDE402000800B585B003900291B8
:1036A00001920093039B002B05D12349234B242235
:1036B00018002AF05DFB029B002B05D11E49204B10
:1036C000252218002AF054FB029B1B681D4A9342D6
:1036D00005D019491C4B262218002AF049FB019BF2
:1036E000002B05D11449194B272218002AF040FB62
:1036F000009B002B05D11049154B282218002AF0F9
:1037000037FB039B134A1A60029B1A1D039B5A60E6
:10371000029B08331A00039B9A60029B0C331A0029
:10372000039BDA60039B019A1A61039B009A5A611A
:10373000C04605B000BDC04678100410C410041087
:10374000D41004100C4A2863EC1004101C1104104F
:103750002C110410FFD948A200B585B00390029146
:103760000192039B002B05D11C491D4B37221800E9
:103770002AF0FEFA029B002B05D11849194B38227A
:1037800018002AF0F5FA029B1B68174A934205D0ED
:103790001249164B392218002AF0EAFA019B002B35
:1037A00005D10E49124B3A2218002AF0E1FA039B88
:1037B000104A1A60029B1A1D039B5A60029B083331
:1037C0001A00039B9A60029B0C331A00039BDA6079
:1037D000039B019A1A61C04605B000BD7810041021
:1037E000C4100410D41004100C4A2863EC10041008
:1037F0004411041042658BA610B586B0039068464C
:10380000016042608360039B002B05D13D493E4B24
:10381000472218002AF0ACFA039B1B683B4A9342EC
:1038200005D038493A4B482218002AF0A1FA039BE8
:103830001A6901235B42190010002DF0F7FF030005
:103840000593059B002B1BD02E49324B4B221800B1
:103850002AF08EFA039B5A69FA235B0019001000C4
:103860002EF0F6FA03000593059B002B08D0059B6C
:10387000023305D02349284B502218002AF078FA49
:10388000039B9B681B68013303221A40039B5B6800
:103890001B689A42DED0039BD968039B9B681A6819
:1038A00013005B009B189B00CB186A4613CA13C316
:1038B000039B9B68039A92681268013203210A40B5
:1038C0001A60039B5B681B68013303221A40039B49
:1038D0009B681B689A4201D1FFF7C6FD039B1B69D9
:1038E00018002DF0CDFF03000593059B002B05D09C
:1038F0000449084B5D2218002AF03AFAC04606B087
:1039000010BDC04678100410C4100410FFD948A29E
:1039100058110410841104109811041010B586B0C9
:103920000190019B002B05D12D492E4B63221800DD
:103930002AF01EFA019B1B682B4A934205D02849A6
:103940002A4B642218002AF013FA019B1A69FA2301
:103950005B00190010002EF07BFA03000593059B15
:10396000002B31D0059B02332ED01D49204B6822FD
:1039700018002AF0FDF9019BD968019B5B681A6861
:1039800013005B009B189B00CA1802AB13CA13C339
:10399000019B5B68019A52681268013203210A4058
:1039A0001A60019B9B681B68023303221A40019B2B
:1039B0005B681B689A4201D1FFF75BFD02AB186898
:1039C00059689A68FFF75AFD019B5B681A68019B6A
:1039D0009B681B689A42CED1C04606B010BDC04657
:1039E00078100410C410041042658BA6D011041086
:1039F0009811041000B585B00190019B002B05D1F2
:103A00001F49204BD42218002AF0F4FB1E4B18004B
:103A10002DF0E8FE0200019B1A62019B1B6A002B3D
:103A200005D11749194BD92218002AF0E3FB0023CE
:103A3000039309E0164A039B5B01D3180833019AEC
:103A40001A60039B01330393039B0A2BF2D9019B5A
:103A50000F4A1A610F4A104B002118002FF0E2FBA9
:103A60000200019B5A60019B5B68002B05D1044951
:103A70000A4BE32218002AF0BDFBC04605B000BD8A
:103A8000DC1204101C120410CC12041038120410A2
:103A900010030008EC020008DD5700107812041033
:103AA00084B0039002910192019B00221A6033E0DE
:103AB000019B1A68444913005B009B189B005A58ED
:103AC000039B9A4223D1019B1A683F4913005B0074
:103AD0009B189B00CB1804331A68029B9A4216D19C
:103AE000019B1A68384913005B009B189B00CB1898
:103AF00008331B780133D8B2334913005B009B189D
:103B00009B00CB180833021C1A70002358E0019B5D
:103B10001B685A1C019B1A60019B1B68012BC7D9AB
:103B2000019B00221A6045E0019B1A682649130098
:103B30005B009B189B005B58002B36D1019B1A68D9
:103B4000214913005B009B189B00CB1804331B68B2
:103B5000002B2AD1019B1A681B4913005B009B189C
:103B60009B00039A5A50019B1A68174913005B0087
:103B70009B189B00CB180433029A1A60019B1A68A9
:103B8000114913005B009B189B00CB1808331B786E
:103B90000133D8B20C4913005B009B189B00CB1873
:103BA0000833021C1A7000230AE0019B1B685A1C90
:103BB000019B1A60019B1B68012BB5D989235B42CD
:103BC000180004B07047C046B464000882B0019089
:103BD000019B1B7A013BDAB2019B1A72019B1B7A93
:103BE000002B05D1019B00221A60019B00225A6024
:103BF000C04602B07047000084B0019000230393D8
:103C00002BE01949039A13005B009B189B00CB180B
:103C100004331A68019B9A421CD11349039A13007A
:103C20005B009B189B0000225A500F49039A130017
:103C30005B009B189B00CB18043300221A600A49D2
:103C4000039A13005B009B189B00CB1808330022DB
:103C50001A7005E0039B01330393039B012BD0D91A
:103C6000C04604B07047C046B464000884B00390F6
:103C700002910192039B012B14D81249039A13005D
:103C80005B009B189B005A58029B9A420AD10D492F
:103C9000039A13005B009B189B00CB1804331B682E
:103CA000002B02D189235B4209E0039A13005B00D9
:103CB0009B189B00034A9A18019B1A600023180066
:103CC00004B07047B464000800B58DB06B461800AE
:103CD0002C231A00002135F05FFE00230B936B4666
:103CE00019001020FEF7D0FF6B461B68022B04D092
:103CF000032B20D0012B1ED016E009F05DFC030041
:103D00000B930B9B002B18D1114B1B685A1C104BAB
:103D10001A600F4B1B68012B0FD10E4B182200218C
:103D2000180035F039FE08E06B461B680A490B485D
:103D30007E222AF05FFAC04600E0C0466B465B6810
:103D40000B9A11001800FFF783F9C0460DB000BDB3
:103D5000B0640008B464000840140410EC120410AD
:103D600000B58DB06B4618002C231A00002135F0E9
:103D700013FE00230B936A4680235B011100180099
:103D8000FEF782FF6B461B68022B04D0032B1FD06B
:103D9000012B1DD015E0154B1B68002B04DD134BC8
:103DA0001B685A1E114B1A60104B1B68002B11D157
:103DB0000F4B18220021180035F0EEFD09F0D8FB5A
:103DC00008E06B461B680B490B48A3222AF012FA45
:103DD000C04600E0C0466B465B680B9A11001800B5
:103DE000FFF736F9C0460DB000BDC046B06400080C
:103DF000B46400085C140410EC12041010B596B002
:103E000005AB18002C231A00002135F0C5FD002356
:103E1000159305AB19002020FEF736FF05AB1B6894
:103E2000022B1BD0032B00D138E1012B00D044E141
:103E3000B4235B001900012034F05EFE03001493EC
:103E4000149B002B02D1A74B159341E105AB5B6896
:103E5000149A11001800FFF7BFFA39E103AB1800FC
:103E600008231A00002135F097FD05ABDB68082B0D
:103E700003D091235B4215932AE105AB586805AB4B
:103E8000DB6803AA0021FFF713F80300139305ABC7
:103E9000DA68139B9A4205D09349944BC8221800C4
:103EA0002AF0A8F903AB1B78153B052B00D9EFE0EE
:103EB0009A008F4BD3181B689F4605AB986803ABDD
:103EC000598803AB5B681A0006F0BAF80300159333
:103ED000E2E005AB986803AB598803AB5B681A0056
:103EE00006F0C2F803001593D6E005AB1B69190074
:103EF000012034F001FE03001293129B002B03D12A
:103F00008D235B421593C7E005AB586805AB1B6971
:103F1000129A0121FEF7CCFF0300139305AB1A6937
:103F2000139B9A4205D07049704BE52218002AF085
:103F300061F905AB986805AB1A69129B190006F088
:103F4000A7F803001593129B180035F059F9A3E068
:103F50000023029305AB586805AB1B6902AA012137
:103F6000FEF7A6FF0300139305AB1A69139B9A4251
:103F700005D05D495D4BF52218002AF03BF900237E
:103F80000193029B1900012034F0B6FD0300119348
:103F9000119B002B03D18D235B4215937CE005AB75
:103FA0009868029A01AB119906F09EF903001593E7
:103FB000159B002B0DD105AB5868019B119A002170
:103FC000FEF7C2FF05AB586801AA04230121FEF7E2
:103FD000BBFF119B180035F013F9C0465CE00023CD
:103FE000009305AB586805AB1B696A460121FEF7D3
:103FF0005FFF0300139305AB1A69139B9A4204D128
:1040000005AB5A69009B9A4207D01223FF331A006E
:104010003549364B18002AF0EDF8009B19000120B5
:1040200034F06AFD03001093109B002B03D18D2305
:104030005B42159330E005AB586805AB5B69109A9D
:104040000221FEF735FF0300139305AB5A69139B5A
:104050009A4206D08E235A002349244B18002AF096
:10406000C9F805AB9B68009A1099180006F082F910
:1040700003001593109B180035F0C2F8C0460BE002
:1040800005AB9B68180005F031FC0300159303E0B5
:1040900086235B421593C046C04619E005AB9B687A
:1040A000180005F023FC05AB9B68002B0FD005AB77
:1040B0009B68180035F0A4F809E005AB1B681C00EC
:1040C0009F235A0008490B4823002AF093F8C04662
:1040D00005AB5B68159A11001800FEF7B9FFC046E2
:1040E00016B010BD010000807814041010130410E5
:1040F00030130410EC12041010B59AB009AB18007C
:104100002C231A00002135F047FC0023199309AB3A
:1041100019004020FEF7B8FD09AB1B68022B19D02F
:10412000032B00D196E1012B00D0A7E1E021012073
:1041300034F0E2FC03001893189B002B02D1DA4BF9
:104140001993A7E109AB5B68189A11001800FFF7F3
:1041500043F99FE10023179307AB180008231A00C7
:10416000002135F019FC09ABDB68082B03D0912343
:104170005B4219938EE109AB586809ABDB6807AA6B
:104180000021FEF795FE0300179309ABDA68179B31
:104190009A4207D06423FF331A00C449C44B180065
:1041A0002AF028F807AB1B780E3B062B00D948E114
:1041B0009A00C04BD3181B689F4609AB9A6807AB9F
:1041C0005B681900100004F0A7FF030019933FE19A
:1041D00009AB1B691900012034F08EFC0300169313
:1041E000169B002B03D18D235B42199330E109AB61
:1041F000586809AB1B69169A0121FEF759FE0300A6
:10420000179309AB1A69179B9A4206D0BC235A0030
:10421000A649A74B180029F0EDFF09AB986809AB38
:104220001A69169B190004F0F1FF03001993169BFD
:10423000180034F0E5FF0BE10023069309AB586842
:1042400009AB1B6906AA0121FEF732FE0300179392
:1042500009AB1A69179B9A4207D08823FF331A00CB
:104260009249934B180029F0C5FF00230593069B44
:104270001900012034F040FC03001593159B002B1E
:1042800003D18D235B421993E2E009AB9868069A4B
:1042900005AB159904F0FEFF03001993199B002B41
:1042A0000DD109AB5868059B159A0021FEF74CFE0D
:1042B00009AB586805AA04230121FEF745FE159BAA
:1042C000180034F09DFF09AB9B681800FFF794FCC1
:1042D000C046BDE00023049309AB586809AB1B69D5
:1042E00004AA0121FEF7E4FD0300179309AB1A6944
:1042F000179B9A4204D109AB5A69049B9A4206D093
:10430000D2235A0069496A4B180029F073FF049BB5
:104310001900012034F0F0FB03001493149B002BD0
:1043200003D18D235B42199392E009AB586809AB26
:104330005B69149A0221FEF7BBFD0300179309ABDA
:104340005A69179B9A4207D0B023FF331A00574986
:10435000574B180029F04EFF09AB9B68049A14993B
:10436000180005F0CBF803001993149B180034F0E3
:1043700047FF09AB9B681800FFF73EFCC04667E0AB
:1043800009AB9B68180004F097FE0300199309AB72
:104390009B681800FFF730FC5AE00023039309AB39
:1043A0005B681800FEF7F0FF09AB9B6803AA1900D1
:1043B000FFF776FB03001993199B002B45D109AB3E
:1043C000586803AA04230021FEF7BEFDC0463CE066
:1043D0000023029309AB586809AB1B6901AA0121AC
:1043E000FEF766FD0300179309AB1A69179B9A4203
:1043F00006D0E7235A002D492D4B180029F0FAFE6C
:10440000019C09AB5B681800FEF7BEFF010002AB20
:104410001A002000FFF72AFC03001993199B002BB8
:1044200015D1029B5A6809AB9B681900100005F072
:104430008DF803001993029B1800FFF7C7FBC046D5
:1044400005E086235B42199302E0C04600E0C046C7
:10445000C0461FE009AB9B68180004F02DFE09ABB5
:104460009B68002B15D009AB9B681800FFF7C4FBB5
:1044700009AB9B68180034F0C3FE0AE009AB1B6867
:104480001C00EE23FF331A0008490B48230029F0D3
:10449000B1FEC04609AB5B68199A11001800FEF71F
:1044A000D7FDC0461AB010BD010000808C14041066
:1044B0001013041048130410EC12041070B5A2B0CD
:1044C0000DAB18002C231A00002135F065FA0023EB
:1044D00021930DAB19008020FEF7D6FB0DAB1B68B6
:1044E000022B06D0032B00D19EE1012B00D19BE1D2
:1044F00093E10DABDB68102B03D091235B4221933A
:1045000093E10023209309AB180010231A00002127
:1045100035F042FA0DAB58680DABDB6809AA0021F3
:10452000FEF7C6FC030020930DABDA68209B9A428D
:1045300006D083239A00C249C24B180029F05AFEC4
:1045400009AB1B78252B6BD002DC242B04D05EE159
:10455000272B00DD5BE1C5E0002308930DABDB6991
:104560001900012034F0C8FA03001F931F9B002B91
:1045700003D18D235B4221934DE10DAB1B691900E3
:10458000012034F0B9FA03001E931E9B002B07D1C3
:104590008D235B4221931F9B180034F031FE3AE1DA
:1045A0000DAB58680DAB1B691E9A0121FEF780FC0C
:1045B000030020930DAB1A69209B9A4205D0A24AB2
:1045C0009F49A04B180029F015FE09AB588809AB8C
:1045D00059680DAB1D690DABDB691E9C08AA0292E0
:1045E00001931F9B00932B00220006F087F9030024
:1045F0002193219B002B06D10DAB5868089B1F9A75
:104600000021FEF7A1FC0DAB586808AA0423012184
:10461000FEF79AFC1F9B180034F0F2FDC046FAE04A
:104620000DAB1B691900012034F066FA03001D93DD
:104630001D9B002B03D18D235B422193EBE00DAB3F
:1046400058680DAB1B691D9A0121FEF731FC030070
:1046500020930DAB1A69209B9A4205D07B4A78497A
:10466000784B180029F0C6FD0DAB5B6919000120DD
:1046700034F042FA03001C931C9B002B03D18D23C2
:104680005B422193C7E00DAB58680DAB5B691C9A88
:104690000221FEF70DFC030020930DAB5A69209B0D
:1046A0009A4205D06A4A6649664B180029F0A2FD75
:1046B00009AB588809AB59680DAB5C690DAB1B6938
:1046C0001C9A01931D9B0093230006F0A3F903009D
:1046D00021931D9B180034F093FD1C9B180034F0AF
:1046E0008FFD98E0002307930DAB1B691900012093
:1046F00034F002FA03001B931B9B002B03D18D2384
:104700005B42219387E00DAB58680DAB1B691B9A88
:104710000121FEF7CDFB030020930DAB1A69209B0E
:104720009A4206D09C239A004549464B180029F02E
:1047300061FD1B9B1A9309AB9B681B9AD3181993B5
:104740000DABDB691900012034F0D6F90300189392
:10475000189B002B07D18D235B4221931B9B1800D4
:1047600034F04EFD57E009AB1B78262B1AD109AB6C
:10477000588809AB5C6809AB9E6809ABDA680DAB79
:10478000DB691A9D07A904910393189B0293019278
:10479000199B009333002A00210006F0C5F903009D
:1047A000219319E009AB588809AB5C6809AB9E6896
:1047B00009ABDA680DABDB691A9D07A90491039375
:1047C000189B02930192199B009333002A00210049
:1047D00006F054FA03002193219B002B06D10DAB68
:1047E0005868079B189A0021FEF7AEFB0DAB58687E
:1047F00007AA04230121FEF7A7FB189B180034F039
:10480000FFFC1B9B180034F0FBFCC04603E0862332
:104810005B422193C046C04607E00DAB1B680D4AC2
:1048200007490D4829F0E6FCC0460DAB5B68219AAC
:1048300011001800FEF70CFCC04622B070BDC04647
:10484000A0140410101304102502000046020000FA
:1048500052020000A7020000EC120410F0B5A5B04F
:1048600013AB18002C231A00002135F095F8002313
:10487000239313AA80239B0011001800FEF704FA6B
:1048800013AB1B68022B06D0032B00D1E5E0012BF4
:1048900000D1E2E0D7E013ABDB68242B03D09123F7
:1048A0005B422393DAE00023229309AB1800242310
:1048B0001A00002135F070F813AB586813ABDB68B1
:1048C00009AA0021FEF7F4FA0300229313ABDA6879
:1048D000229B9A4205D0664A6649674B180029F028
:1048E00089FC09AB1B78223B012B00D9A5E00023F2
:1048F000129313AB1B691900012034F0FDF803007B
:104900002193219B002B03D18D235B42239398E0BD
:1049100013AB586813AB1B69219A0121FEF7C8FA43
:104920000300229313AB1A69229B9A4205D0534A83
:104930005049514B180029F05DFC219B209309AB95
:10494000DB68219AD3181F9313ABDB691900012090
:1049500034F0D2F803001E931E9B002B07D1219B3D
:10496000180034F04DFC8D235B42239369E009ABC2
:104970001B78222B23D109AB5C8809AB5D6809AB9E
:104980001B891F0009ABDA6809AB196913ABDB6936
:1049900009A81430060012A8069005931E9B0493E4
:1049A00003911F9B02930192209B00933B003200D6
:1049B0002900200006F08AFE0300239322E009ABC1
:1049C0005C8809AB5D6809AB1B891F0009ABDA681D
:1049D00009AB196913ABDB6909A81430060012A8EA
:1049E000069005931E9B049303911F9B02930192D3
:1049F000209B00933B0032002900200006F040FF7E
:104A000003002393239B002B0DD113AB5868129BFB
:104A10001E9A0021FEF798FA13AB586812AA0423D5
:104A20000121FEF791FA219B180034F0E9FB1E9B4F
:104A3000180034F0E5FBC04603E086235B42239375
:104A4000C046C0460AE013AB1B681C00C5239A0091
:104A500008490B48230029F0CDFBC04613AB5B6827
:104A6000239A11001800FEF7F3FAC04625B0F0BDF6
:104A7000C6020000BC14041010130410DA02000077
:104A8000EC12041010B5A6B00023259310AB18004B
:104A90002C231A00002134F07FFF10AA80235B0032
:104AA00011001800FEF7F0F810AB1B68022B19D0AC
:104AB000032B00D154E1012B00D060E14C210120F7
:104AC00034F01AF803002493249B002B02D1B54B39
:104AD00025935CE110AB5B68249A11001800FEF787
:104AE0007BFC54E10EAB180008231A00002134F0BF
:104AF00053FF10ABDB68082B03D091235B42259357
:104B000045E110AB586810ABDB680EAA0021FEF738
:104B1000CFF90300239310ABDA68239B9A4205D0A8
:104B2000A14AA249A24B180029F064FB0EAB1B78E6
:104B30001B3B062B00D90CE19A009E4BD3181B6837
:104B40009F4610AB98680EAB59880EAB5B681A0095
:104B500006F070FA0300259300E110AB98680EABE5
:104B600059880EAB5B681A0006F078FA03002593AB
:104B7000F4E000230D9310ABDB69229309AB18001E
:104B800010231A00002134F007FF10AB98680DAB1A
:104B9000229A09A906F076FA03002593259B002B9B
:104BA00000D0DAE010AB58680D9B09AA0021FEF78F
:104BB000CBF910AB58680DAA04230121FEF7C4F904
:104BC000C046CAE010AB1B69219305AB1800102347
:104BD0001A00002134F0E0FE10AB5868219B05AAB2
:104BE0000121FEF765F903002393239A219B9A4242
:104BF00005D0714A6D496E4B180029F0FBFA10ABD5
:104C00009B68219A05A9180006F08EFA03002593E7
:104C1000C046A3E010AB1B69209310ABDB691F9368
:104C200000230493209B1900012033F065FF03004B
:104C30001E931E9B002B03D18D235B4225938DE099
:104C400010AB5868209B1E9A0121FEF731F9030032
:104C50002393239A209B9A4205D0584A5349544B98
:104C6000180029F0C7FA1F9B1900012033F044FFF8
:104C700003001D931D9B002B07D11E9B180034F0D1
:104C8000BFFA8D235B42259368E010AB98681D9CAA
:104C9000209A1E9904AB01931F9B0093230006F0FA
:104CA00084FA03002593259B002B0DD110AB586887
:104CB000049B1D9A0021FEF747F910AB586804AA1F
:104CC00004230121FEF740F91E9B180034F098FAE6
:104CD0001D9B180034F094FAC0463FE010ABDB692E
:104CE0001C93002303931C9B1900012033F004FF45
:104CF00003001B931B9B002B03D18D235B42259349
:104D00002CE010AB986803AB1C9A1B9906F096FA3E
:104D100003002593259B002B0DD110AB5868039BF6
:104D20001B9A0021FEF710F910AB586803AA042360
:104D30000121FEF709F91B9B180034F061FAC04607
:104D40000CE010AB9B68180006F0FCFA03002593FA
:104D500004E086235B42259300E0C046C04616E08F
:104D600010AB9B68180006F0EDFA10AB9B68002BA7
:104D70000CD010AB9B68180034F042FA06E010AB80
:104D80001B680F4A09490F4829F034FAC04610AB96
:104D90005B68259A11001800FEF75AF9C04626B044
:104DA00010BDC046010000803B030000D014041079
:104DB0001013041064130410620300007903000050
:104DC000BE030000EC12041010B5ACB013AB180019
:104DD0002C231A00002134F0DFFD00232B9313AAAB
:104DE0008023DB0011001800FDF74EFF13AB1B689A
:104DF000022B06D0032B00D155E2012B00D152E249
:104E00004AE213ABDB68102B03D091235B422B9358
:104E10004AE2002329930FAB180010231A00002147
:104E200034F0BAFD13AB586813ABDB680FAA00214E
:104E3000FEF73EF80300299313ABDA68299B9A42E8
:104E400006D0F8239A00DE49DE4B180029F0D2F98B
:104E50000FAB1B7B292B00D90DE29A00DA4BD3183C
:104E60001B689F4613ABDB6928930FAB1B880EAA08
:104E70001100180006F0F1FA03002B932B9B002B76
:104E800000D0FCE113AB5868289B0EAA0021FEF766
:104E90005BF8C046F3E113AB1B69279313AB58686B
:104EA000279B0CAA0121FEF703F803002993299AF6
:104EB000279B9A4205D0C54AC149C24B180029F028
:104EC00099F90FAB1B880CAA1100180006F070FAB4
:104ED00003002B93C046DDE113ABDB6926930FABD8
:104EE0001B880AAA1100180006F092FA03002B93FF
:104EF0002B9B002B00D0C4E113AB5868269B0AAA59
:104F00000021FEF721F8C046BBE113AB1B692593D6
:104F1000259B1900012033F0EFFD03002493249B0F
:104F2000002B03D18D235B422B93B3E113AB586865
:104F3000259B249A0121FDF7BBFF03002993299AA1
:104F4000259B9A4205D0A24A9D499E4B180029F004
:104F500051F90FAB18880FAB9968259B249A03F081
:104F60004AFD03002B93249B180034F049F991E18A
:104F70000FAB1B88180003F089FD03002B9389E118
:104F80000FAB1B8808AA09A9180003F0E7FD03006E
:104F90002B932B9B002B00D075E113ABDB69032B0C
:104FA00006D913AB586809AA04230021FDF7CCFFEA
:104FB00013AB1B6A032B00D865E113AB586808AA32
:104FC00004230121FDF7C0FFC0465CE113ABDB69A0
:104FD0002393239B1900012033F08EFD03002293BD
:104FE000229B002B03D18D235B422B9352E10FAB0D
:104FF000188807AB239A229903F036FF03002B93FE
:105000002B9B002B06D113AB5868079B229A0021DB
:10501000FDF79AFF13AB586807AA04230121FDF797
:1050200093FF229B180034F0EBF8C04632E113AB3B
:10503000DB692193219B1900012033F05DFD030002
:105040002093209B002B03D18D235B422B9321E1E6
:105050000FAB188806AB219A209903F02DFF0300AF
:105060002B932B9B002B06D113AB5868069B209AE1
:105070000021FDF769FF13AB586806AA042301213C
:10508000FDF762FF209B180034F0BAF8C04601E13A
:1050900013AB1B691F9313AB5B691E9300232A9309
:1050A00013AB58681F9B05AA0121FDF701FF030000
:1050B0002993299A1F9B9A4206D08D23DA004049F2
:1050C000404B180029F096F80FAB9B68414A934279
:1050D00023D11E9B002B20D01E9B1900012033F0F2
:1050E0000BFD03002A932A9B002B03D18D235B42E7
:1050F0002B93CFE013AB58681E9B2A9A0221FDF731
:10510000D7FE03002993299A1E9B9A4205D0324A62
:105110002B492C4B180029F06DF80FAB18880FABFA
:105120009968059A2A9C1E9B0093230008F03EF97B
:1051300003002B932A9B180034F062F8C046A9E0C4
:105140000FAB180008F06BFB03002B932B9B002B7D
:1051500000D09AE013AB58680FAA02230021FDF794
:10516000F3FE92E0002304930023039313AB5868EB
:1051700013AB1B6904AA0121FDF79AFE03002993D2
:1051800013AB1A69299B9A4205D0144A0C490D4B5E
:10519000180029F02FF813AB586813AB5B6903AA0A
:1051A0000221FDF785FE0300299313AB5A69299B61
:1051B0009A4217D00A4A0249024B180029F01AF8FD
:1051C000E81404101013041080130410F9030000F5
:1051D0001604000000000170750400008F04000038
:1051E000930400000FAB5B6804990FAA180008F045
:1051F000C9FB03002B932B9B002B48D113AB5868A2
:105200000FAA02230021FDF79FFEC0463FE00023C6
:10521000029313AB586813AB1B6902AA0121FDF777
:1052200047FE0300299313AB1A69299B9A4205D0C4
:10523000224A2349234B180028F0DCFF0FAB5B68A0
:1052400002990FAA180008F08EFB03002B932B9BEA
:10525000002B1ED113AB58680FAA02230021FDF7C3
:1052600073FEC04615E00FAB1B88180008F0A7FBC3
:1052700003002B930EE086235B422B930AE0C0468B
:1052800008E0C04606E0C04604E0C04602E0C04672
:1052900000E0C046C04607E013AB1B680A4A084955
:1052A0000A4828F0A7FFC04613AB5B682B9A110091
:1052B0001800FDF7CDFEC0462CB010BDA2040000C2
:1052C000E814041010130410BB040000EC120410C6
:1052D00000B591B001AB18002C231A00002134F066
:1052E0005BFB00230F9301AA8023DB011100180050
:1052F000FDF7CAFC01AB1B68022B06D0032B01D0C3
:10530000012B3CD100230F9340E001ABDB680E93EF
:105310000E9A8023DB009A4203D987235B420F93C6
:1053200034E00E9B1900012033F0E6FB03000D93DF
:105330000D9B002B03D18D235B420F9326E001AB25
:1053400058680E9B0D9A0021FDF7B2FD03000C93E7
:105350000C9A0E9B9A4205D0114A1249124B180022
:1053600028F048FF0E9A0D9B1100180007F0DAFF95
:1053700003000F930D9B180033F042FF06E001ABD2
:105380001B680A4A07490A4828F034FF01AB5B68EA
:105390000F9A11001800FDF75BFEC04611B000BD6A
:1053A000E10400000815041010130410ED040000BF
:1053B000EC12041000B58FB06B4618002C231A00B5
:1053C000002134F0E9FA00230D936A4680231B0183
:1053D00011001800FDF758FC6B461B68022B04D027
:1053E000032B31D0012B2FD027E06B46DB690C93C8
:1053F0000C9B1900012033F07FFB03000B930B9BE8
:10540000002B03D18D235B420D931EE00C9A0B9B66
:105410001100180007F062FF03000D930D9B002B95
:1054200006D16B4658680C9B0B9A0021FDF78CFD4A
:105430000B9B180033F0E4FE07E06B461B68084A3C
:105440000849094828F0D6FEC0466B465B680D9AAD
:1054500011001800FDF7FCFDC0460FB000BDC046AE
:105460001405000020150410EC12041070B59EB055
:1054700000231D930BAB18002C231A00002134F0DD
:105480008BFA0BAA80239B0111001800FDF7FCFB8F
:105490000BAB1B68022B1CD0032B00D166E1012B48
:1054A00000D072E1FC235B001900012033F024FBE3
:1054B00003001C931C9B002B03D18D235B421D9387
:1054C0006BE10BAB5B681C9A11001800FDF784FFC1
:1054D00063E108AB18000C231A00002134F05CFAD9
:1054E0000BABDB680C2B03D091235B421D9354E183
:1054F0000BAB58680BABDB6808AA0021FDF7D8FCA2
:1055000003001B930BABDA681B9B9A4205D0A84A99
:10551000A849A94B180028F06DFE08AB1B782A3B60
:10552000052B00D91BE19A00A44BD3181B689F469A
:10553000002307930BAB9B6807AA1100180006F025
:1055400005FB03001D931D9B002B00D00BE10BAB53
:10555000586807AA04230021FDF7F6FCC04602E1C3
:1055600000231A930BABDB691993199B19000120D7
:1055700033F0C2FA03001A931A9B002B03D18D2338
:105580005B421D93F0E00BAB9B68199A1A991800C7
:1055900006F026FF03001D931D9B002B06D10BABCD
:1055A0005868199B1A9A0021FDF7CEFC1A9B180027
:1055B00033F026FED8E00BAB58680BAB1B6906AA8C
:1055C0000121FDF775FC03001B931B9B042B05D0E9
:1055D0007B4A7849784B180028F00CFE0BAB5868D2
:1055E0000BAB5B6905AA0221FDF762FC03001B936C
:1055F0001B9B042B05D0734A6E496F4B180028F093
:10560000F9FD08AB58880699059A0BAB9B6806F024
:1056100075FF03001D93C046A6E00BAB9B68180006
:1056200006F018FA03001D939EE00BAB1B691900EE
:10563000012033F061FA03001893189B002B03D16B
:105640008D235B421D938FE00BAB58680BAB1B693E
:10565000189A0121FDF72CFC03001B930BAB1A6970
:105660001B9B9A4205D0584A5249534B180028F0C8
:10567000C1FD0BAB5B691900012033F03DFA03005B
:105680001793179B002B07D18D235B421D93189B0B
:10569000180033F0B5FD67E00BAB58680BAB5B69E6
:1056A000179A0221FDF704FC03001B930BAB5A6908
:1056B0001B9B9A4205D0454A3E493F4B180028F0B3
:1056C00099FD0BAB986808AB5C8808AB5D680BABC9
:1056D0001A690BAB596908AB9B68189E039302913A
:1056E000179B0193009233002A00210007F0A4FCCD
:1056F00003001D9338E00BAB1B691900012033F048
:10570000FBF903001693169B002B03D18D235B42FC
:105710001D9329E00BAB58680BAB1B69169A01214E
:10572000FDF7C6FB03001B930BAB1A691B9B9A4248
:1057300005D0274A1F49204B180028F05BFD0BAB12
:10574000986808AB59880BAB1C6908AB5B68169A64
:105750000093230007F086FD03001D9304E08623D9
:105760005B421D9300E0C046C04616E00BAB9B6851
:10577000180006F06FF90BAB9B68002B0CD00BAB3D
:105780009B68180033F03CFD06E00BAB1B68114A28
:105790000849114828F02EFDC0460BAB5B681D9AE6
:1057A00011001800FDF754FCC0461EB070BDC04685
:1057B0003C050000341504101013041028140410C4
:1057C000670500006D0500008405000091050000DC
:1057D000AA050000C7050000EC12041000B585B052
:1057E000019080231B061800FDF732FA0300039393
:1057F000039B1022134001D0FEF766FA039B202280
:10580000134001D0FEF7FAFA039B4022134001D067
:10581000FEF772FC039A80235B00134001D0FFF770
:1058200031F9039B8022134001D0FEF747FE039A13
:1058300080239B00134001D0FFF710F8039A8023C8
:10584000DB00134001D0FFF7BFFA039A80231B014E
:10585000134001D0FFF7AEFD039A80235B01134094
:1058600001D0FEF77DFA039A80239B01134001D0FB
:10587000FFF7FCFD039A8023DB011340B1D0FFF753
:1058800027FDAEE782B00190019B802252011A6091
:105890000023180002B0704700B583B00190019A50
:1058A00080235B019A4203D100F0ECFD030000E08D
:1058B000014B180003B000BDE803008000B585B0BF
:1058C0000190019B002B05D11F49204B6522180038
:1058D00028F090FC1E4B18002BF084FF0200019B67
:1058E0001A62019B1B6A002B05D11749194B6A22CA
:1058F000180028F07FFC0023039309E0164A039B5D
:105900005B01D3180833019A1A60039B0133039398
:10591000039B012BF2D9019B0F4A1A610F4A104BCE
:10592000002118002DF07EFC0200019B5A60019BB3
:105930005B68002B05D104490A4B7422180028F03B
:1059400059FCC04605B000BD2416041070150410A3
:10595000141604108C150410940400087004000838
:105960003D5A0010CC15041000B585B00190019B84
:10597000DB69042B02D080231B0610E002AB180069
:10598000FFF780FF03000393039B002B06D1019BCD
:10599000586802AA04230021FDF7D6FA039B1800D9
:1059A00005B000BD00B585B00190019BDB68042BFC
:1059B00002D080231B0611E0019B586803AA042330
:1059C0000021FDF775FA0300042B02D080231B068B
:1059D00004E0039B1800FFF75FFF0300180005B009
:1059E00000BD000000B585B0019000910023039335
:1059F000019B1B68022B04D0032B10D0012B0ED06F
:105A000006E0019A009B100098470300039307E00B
:105A1000019B1B6807490848442228F0EBFBC0465D
:105A2000019B5B68039A11001800FDF711FBC0464B
:105A300005B000BD581604103416041000B58FB020
:105A4000019000230D9302AB18002C231A000021B3
:105A500033F0A2FF80231B061800FDF7F9F80300BE
:105A60000D930D9B102213400AD002AB1900102099
:105A7000FDF70AF90A4A02AB11001800FFF7B2FF5E
:105A80000D9B20221340E5D002AB19002020FDF72A
:105A9000FBF8044A02AB11001800FFF7A3FFD9E797
:105AA00069590010A559001010B58EB005900491E9
:105AB0000392029308AB00221A6008AB00225A60DE
:105AC0000023079337236B4400221A70059B0C9325
:105AD0000C9B1B6818331C6808AA04990C980023B7
